:020000022000DC
:106000000000042061620200B9620200BB6202006B
:10601000BD620200BF620200C16202000000000017
:10602000000000000000000000000000C362020049
:10603000C562020000000000C7620200C9620200DF
:1060400021910200CF620200E195020075970200E3
:10605000D5620200D76202003D940200DB620200BA
:10606000DD620200DF620200E1620200E362020020
:10607000E5620200E7620200E9620200EB620200F0
:10608000ED62020041710200F1620200F36202005F
:10609000DD710200F59602008DCB020011A902000D
:1060A000FD620200FF62020001630200036302005E
:1060B0000563020007630200CB620200CB620200AC
:1060C000096302000B6302000D6302000F6302000C
:1060D0005596020013630200156302001763020065
:1060E000196302001B6302001D630200CB62020001
:1060F000CB62020021630200CB6202001F63020038
:10610000364937480A1A02D0072291438D4635494D
:1061100035480A1A06D00722914381F309880222E2
:1061200082F3148831483249324A00F045F8324847
:106130003249334A00F040F832483349334A00F0DC
:106140003BF833483349344A00F036F83348344991
:10615000344A00F031F834483449354A00F02CF81C
:1061600034483549354A00F027F83548354900228A
:1061700000F02DF834483549002200F028F8344862
:106180003449091A082903DB002202600430016047
:10619000314A90471F482049884205D002680430A0
:1061A00003B4904703BCF7E700208646EC46002086
:1061B00000212A4A9047FEE7884207D0521A05D0AC
:1061C000037801300B700131013AF9D170478842F0
:1061D00002D002700130FAE770470000000004208E
:1061E00000E00320000004200000042068340300C5
:1061F00078320020C43200202463020024630200AD
:10620000CCE80200683403007832002078320020A5
:1062100018EA020018EA020018EA020018EA02006E
:1062200018EA020018EA020018EA020018EA02005E
:1062300068340300B4340300C4320020C4320020A8
:10624000C432002078420020784200207C420020A6
:106250007C4200207C620020856202007DA9020051
:106260000F484FF00701884385460E4880470E4887
:10627000016841F470010160BFF34F8FBFF36F8F6E
:10628000FFF73EBF09480A490A4A884207D0521A16
:1062900005D0037801300B700131013AF9D1704714
:1062A00000000420958C020088ED00E0C0E90200A7
:1062B0002032002078320020FEE7FEE7FEE7FEE70E
:1062C000FEE7FEE7FEE7FEE7FEE7FEE7FEE7FEE7A6
:1062D000FEE7FEE7FEE7FEE7FEE7FEE7FEE7FEE796
:1062E000FEE7FEE7FEE7FEE7FEE7FEE7FEE7FEE786
:1062F000FEE7FEE7FEE7FEE7FEE7FEE7FEE7FEE776
:10630000FEE7FEE7FEE7FEE7FEE7FEE7FEE7FEE765
:10631000FEE7FEE7FEE7FEE7FEE7FEE7FEE7FEE755
:04632000FEE700BFD5
:1063240000487047704200207047000007B5044BD6
:106334000093044A402300F032F803B05DF804FBF4
:106344004D630200C53200202DE9F8438946144606
:10635400B2B10F4B0F4E0325002743F0010822462C
:1063640009EB0701002006F003F90744241A48B991
:1063740033782BB14FF47A40C047013D02D13570D8
:10638400BDE8F88301233370002CE8D1F8E700BF9F
:1063940020EA0200C4320020704706F01DB9F0B5AF
:1063A40095B01C46164608460D4602F05FF91A9B46
:1063B4000D93CDE9086400242346082205A9284644
:1063C4000A948DF82C400C9402F08CF9079B0293EC
:1063D400BDF81830ADF80C30BDF81A30ADF80E30F9
:1063E4009DF814308DF8114003F00302012A1DD1E9
:1063F400BDF81440059EC3F3C203C4F383148DF89F
:106404001030A20008230EA9284602F06BF9C6F347
:10641400952608AB0093224602AB0EA9304600F045
:1064240087FB284602F026F915B0F0BD022AF8D100
:10643400BDF81640C3F3C203A4098DF81030082731
:10644400082C264628BF08263B4632460EA9284675
:1064540002F048F9A41B08AB02AA31460EA837443F
:1064640000F0CAFB002CEBD1DBE7000010B5054CB3
:10647400FFF793FF0421204600F0CAFA0123637258
:1064840010BD00BF78320020037813F0030F03F02F
:10649400040202D012B910467047B2B103F00303EC
:1064A400012B03D0022B09D0012070470A68008811
:1064B4000232C0F3831002440A60F5E70B68428895
:1064C400023303EB92130B60EEE70B68428801334F
:1064D40003EB92130288F4E72DE9F04F89B00546E7
:1064E400861C08A8484C019200230F4600F8113D71
:1064F40001F05EF823683B60D4E901231344226869
:1065040001339B1A04F21C4704F5836A04F214480D
:10651400B3421AD3019A0023002A6DD0012262F3F8
:10652400010343F0040365F389132168A2689DF80D
:106534000F000A4003320E4444F82230266001F072
:106544005BF8012009B0BDE8F08F0121384601F065
:1065540089F8504601F09CF8404601F099F80DF195
:1065640020096068D4F808B049F8100D00EA0B005F
:10657400033004EB80004946FFF786FF049BB0B963
:106584000BEA030204EB8202D16805919A1C0133E1
:1065940003EA0B0B04EB8B0C01F00303012B0492B5
:1065A400DCF80CB020D0022B04D083460BE00BEABD
:1065B4000300DDE7BDF816309B0903334FEA1B4B9C
:1065C40002EB93030493404601F065F808B1049B81
:1065D40063605946384601F045F8D4E90123134471
:1065E400226801339B1A93E7BDF81430C3F3831375
:1065F4004FEA1B4B1344E5E7022262F3010343F025
:10660400040365F39F5390E7D833002008B50E4B7D
:106614000E48FF229A600022C3F81824C3E900221E
:10662400C3F8142483F8202401F0D9FF38B9084AA8
:10663400084B09499B1ADB0802469A4200D108BD5F
:1066440021F822200132F8E7D83300208CE9020037
:106654000CE902008CE902003832002030B50B4C02
:1066640079B10B4A0B49121BD20800239A4201D17B
:10667400002030BD01EB83056D88854202D00133D3
:10668400F4E7034654F83300F3E700BF0CE90200D3
:106694008CE9020038320020094B013903EBC000B9
:1066A400032909D8DFE801F00A0204060420704730
:1066B4000079704740797047002070470220704786
:1066C4000CE90200034BD3E90030C31A5842584185
:1066D400704700BFD83300202DE9F04387B0FFF79F
:1066E400F1FF0746002840F0F5807B4DC5F81804FB
:1066F400BFF34F8F6868AC680DF1180848F8100DA7
:106704002040033005EB80004146FFF7BDFE029BAD
:10671400064600285FD104EA0302991C013305EB05
:106724008202234005EB8303D268DB68049302F002
:106734000303022B0392029162D1BDF80E30674825
:106744004FEA9318B8F1500FC14628BF4FF05009D3
:1067540069F38F1309F10801ADF80E3001F057FF0A
:106764000746002800F0A48001F080FF334603A907
:106774000822384601F08DFF029924EA0106013609
:10678400B600B14535D95FFA89F97EB3F6B2A9EB03
:106794000609214003315FFA89F4B146504E05EBF6
:1067A400810108234A46384601F073FF36B109F1E6
:1067B400080322463146384601F06BFF029B08F17C
:1067C400030803EB98030293D5F81834002B4AD13D
:1067D400D5F8104458E02A689A4204D86A603846CA
:1067E40007B0BDE8F08304EA03008AE73C49344675
:1067F400D7E72140033108234A4605EB8101DAE754
:10680400012B55D1BDF80C303448C3F3831106294C
:1068140028BF062161F3891302318900ADF80C30D9
:1068240001F0F5FE0746002842D001F01FFF334671
:10683400082203A9384601F02CFFBDF80C20C2F34E
:106844008312B31C96424FEA8303BDD202994A1CB9
:1068540021400331029205EB81010422384601F004
:1068640018FF0136E9E7384601F004FFFFF72AFF75
:1068740080F00100C7B2B2E7637A23B123683946D6
:106884001B68204698476468002CF5D1384601F00F
:10689400F1FE06A800F8114D00F08AFED5F8183470
:1068A4000BB9029B6B609DF8070000F0A5FEDDE7C5
:1068B400D5F8104444B90B4B0B491888000440F038
:1068C400020000F06BF8D1E7236820469B689847E4
:1068D4006468EFE7002782E7D83300208CE90200E0
:1068E400E43300205832002034EA02002DE9F74F47
:1068F400284C80460F46924601A9012218469B4621
:10690400D4F80890FFF7E8FD88B3019D0026A91C80
:106914005E4506EB010234D100211F4800F082FEDF
:1069240080F310006A1C02EA090204EB82020004EC
:1069340005EA0903033340EA1840D06014F8232021
:1069440068F3C50204F8232034F8232066F389127F
:1069540024F8232054F82320012167F39F2244F8CC
:10696400232061F301026FF3820204F8232094F8D8
:1069740020341BB1FFF7B0FE0028FBD103B0BDE803
:10698400F08F09EA020204EB82025AF82630D3603F
:106994000136BDE7D8330020F437002000231A461F
:1069A400FFF7A4BF13B502AC012344F8042D22461B
:1069B400FFF79CFF02B010BD07B5CDE90023022309
:1069C4006A46FFF793FF03B05DF804FB7FB5CDE99A
:1069D4000123089B0393099B04930A9B059301AA33
:1069E4000523FFF783FF07B05DF804FB7FB5CDE90E
:1069F4000023089B0293099B03930A9B04930B9B1C
:106A040005936A460623FFF771FF07B05DF804FBA0
:106A14000F4A30B5D2F810440023214641B903721D
:106A2400D2F810444CB9C2F810044160184630BD85
:106A34000D7A9D4205D04968F0E762684260606063
:106A4400F4E701330A2BE8D14FF0FF33EEE700BF40
:106A5400D8330020084A38B50123D2F8104482F80C
:106A640020341D4604B938BD2368657220465B682E
:106A740098476468F6E700BFD8330020037A052BF3
:106A840010B50C460FD0437A23B1084A0849204672
:106A940001F0EBFB0749204601F0E7FB2046BDE887
:106AA400104001F0D7BB002AF8D0F3E78FEA0200C8
:106AB40048F00200AEEC0200C38873B504460D46EC
:106AC40033B1144A00921449144A284601F0CDFB0C
:106AD400217A05291CD0637A4BB1A088FFF7DCFD2D
:106AE4000F4B104953F82020284601F0BEFB227AB0
:106AF4000D4BA08853F822600021FFF7AFFD0B492E
:106B040003463246284602B0BDE8704001F0ADBBF2
:106B140002B070BD8FEA02009CEA020094EA02000F
:106B24005CEA020048F00200C0EA0200B4EA020093
:106B34002DE9F04385B01F460C9D002306460C4604
:106B4400904695F80C902B7329463846FFF7B4FF0E
:106B5400B8F1060F09D8DFE808F00412181F28332B
:106B640040003146284601F080FB00222946384681
:106B7400FFF784FF85F80C9005B0BDE8F083226828
:106B84003146284601F071FBEFE7D4E90023314692
:106B9400284601F06AFBE8E7A36800933146D4E98C
:106BA4000023284601F061FBDFE7E3680193A36853
:106BB40000933146D4E90023284601F056FBD4E77C
:106BC40023690293E3680193A36800933146D4E9EF
:106BD4000023284601F049FBC7E76369039323694F
:106BE4000293E3680193A36800933146D4E9002338
:106BF400284601F03AFBB8E708292DE9F84F80460A
:106C04000E4617461C4636D8002593F80C901D7383
:106C140019461046FFF750FFDFF87CA0DFF87CB080
:106C2400AE422AD918F805205946204601F01DFB2A
:106C34000135082DF4D11649DFF864B0204601F07F
:106C440014FB0025AE421DD918F805A0504606F0E5
:106C5400ACFC002814BF52462E225946204601F0AF
:106C640004FB0135082DEDD1012221463846FFF7FA
:106C740005FF84F80C90BDE8F88F5146204601F0DA
:106C8400F4FAD5E70349204601F0EFFAE9E700BF3B
:106C94008AEA020088EA020086EA020080EA020028
:106CA4008CEA02002DE9F04F3B4F89B000263B4BA4
:106CB4001B78F5B2AB4202D809B0BDE8F08F384B6F
:106CC400196811F835000124A0F12002C0F1200355
:106CD40004FA02F924FA03F349EA0309D7E9002381
:106CE40004FA00F8CDE9042302EA080203EA0903DE
:106CF400134301EBC50B4CD0DDE9042322EA08025F
:106D040023EA0903C7E90023079102F085FB0799E9
:106D1400844611F83500A0F12002C0F1200324FAC2
:106D240003F304FA02F21A4304FA00F300931D4B2E
:106D34000192DDE90045D3E9002314401D402246B9
:106D44002B465FFA8CF40025CDE90445049CA0F1A0
:106D54002005AC400394049CC0F1200124FA01F105
:106D6400039C0C430499039481400291DDE902459C
:106D7400AB4208BFA2420CD19BF801104B1E5942F2
:106D84005941A1EB0C02DBF804305142514103B1EB
:106D9400984701368BE700BF30380020FC370020CD
:106DA40038380020283800202DE9F84F06462448BA
:106DB40000F0EEFB002841D10123A6F12001C6F129
:106DC400200203FA01FB23FA02F203FA06FA1D4B2E
:106DD400D3E900014BEA020B00EA0A0801EA0B09B5
:106DE40058EA09021F4623D1304602F015FB164B20
:106DF400B8B1D3E9000140EA0A0441EA0B05C3E94A
:106E04000045D7E900234BEA0305104B0C481968E9
:106E14004AEA0204C7E900450022BDE8F84F00F041
:106E240073BBD3E9000120EA0A0421EA0B05E6E773
:106E340020EA0A0421EA0B05C3E90045BDE8F88FFE
:106E44000438002030380020283800200038002082
:106E5400042A2DE9F34105460C4616463AD902F0B8
:106E640001FAD8B11C4B1D491D601D4BDFF884800D
:106E74001C701C4B00221E600023C1E900231A4928
:106E8400C1E90023013CE4B200260327FF2C0CD106
:106E9400164A1748002100F025FB03E002F0AAF986
:106EA4000028DFD002B0BDE8F08123B205EBC302B5
:106EB40001A992788DF8052015F833008DF8066045
:106EC40042468DF8047002F0D7F9013CE4B2002880
:106ED400DCD0E7E70720E5E7383800202838002031
:106EE400FC3700200038002030380020A96C020054
:106EF40028EB0200AD6D020070B5084D084E002469
:106F04002B789C4201D3002070BD3368012113F813
:106F1400340002F037FA0134F2E700BFFC370020F6
:106F24003838002082B001238DF807309DF80730EF
:106F3400114B1860596044F2010188429A6012D0E2
:106F440044F20201884206D1DA60DA6812889A6152
:106F5400DA685268DA6172B69DF80730002BFBD10B
:106F640062B602B070471A611A6992685A611A6966
:106F740012689A611A69ECE73C38002000B583B0C6
:106F840002900091019244F2010071466A4600F0B9
:106F940003F803B000BD00002DE9F043064685B0B8
:106FA4000F46154672B6FFF755FDFFF795FB00280F
:106FB400FBD1DFF8B480B8F8004041F201032404A7
:106FC4009E4244F0010428D007D8012E14D03A463A
:106FD4001E492046FFF7E6FC12E044F201039E42FC
:106FE4001DD044F202039E42F1D12B886A681849ED
:106FF4002046FFF7E1FC03E016492046FFF7CEFCEC
:10700400154B1B68DB0700D500BE2A4639463046BF
:1070140005B0BDE8F043FFF785BF1049EDE7D5F8AB
:107024000890484601F084FC2B68029701936B6832
:1070340000930B4903464A462046FFF7C7FCB8F8BD
:1070440000000849000440F00100D7E7BFEB02004C
:107054006BEB02002CEB0200F0ED00E049EB0200C8
:1070640085EB0200ABEB020058320020094A53784A
:1070740091780133DBB2994208BF00231178994219
:107084001FBF03705078182303FB002014BF043083
:10709400002070475C38002073B5054602A8002420
:1070A40000F8014D0E4600F083FA0DF10600FFF7DB
:1070B400DDFF90B106700A4B9DF8062045605A70BA
:1070C4009DF8070000F098FA24B9064B4FF480129B
:1070D400C3F80021204602B070BD0424F0E700BFCD
:1070E4005C38002000E100E0024B4FF43C6043F0C8
:1070F40001031847E0EB020038B50C4B0C4C4FF47D
:107104000032C3F8802001254FF48033C4F848339B
:10711400C4F808336560FFF7E7FF064BA560002459
:107124001C60FFF7E1FF044B1C7038BD00E100E078
:10713400001001407839002069390020F8B51F4B50
:107144001F491B680025C1F84051C1F84451C1F8DA
:107154004851C1F84C51C1F80051C1F804514BB326
:10716400D1F8044517490968641A24F07F442F466E
:107174001A68A24209D8A41A15441A7CDE691AB105
:107184001F74D3E905209047AEB90F4B0F4A197805
:1071940013788B4205D10133DBB2022B08BF0023E5
:1071A400137012780A4B43F822500A4B4FF48012A2
:1071B400C3F80021F8BD3346DAE700BF7C3900206C
:1071C40000100140783900207439002075390020FE
:1071D4006C39002000E100E02DE9F74F9E4A9F49F9
:1071E400137809789E4D99423CD00133DBB2022BCF
:1071F40008BF002313709B4912789B4B0F6853F808
:1072040022003B1823F07F4300220B602B681646B4
:107214001446944613B942B12B6006E019688142C2
:107224000ED902B12B60091A19604FF001082B68BE
:10723400DFF83CA200930027BEB9DFF83CB260E05F
:10724400401A0C44D968C3F800C0D3F81CE031B12B
:107254003A1922F07F42C3E90121DE611E46012270
:107264007346D7E70026B046E1E73446F6697D4A1F
:1072740063681268DFF804C2A068991A21F07F419C
:10728400614500F2A58001442160012222742A682C
:107294000023C4E90133E361002A40F0A2802C609A
:1072A400CAE75A1C9BF80210D2B291428BF8002014
:1072B40004BF00228BF80020182202FB03B32A68C3
:1072C40019799C68022974D003297ED0012918D128
:1072D400217CB1B9DA6862601A69A2605A699B6953
:1072E400A361624BE2601B78002BC0D06160BEE7F3
:1072F4009C4200F093809946DB69002BF8D100236F
:1073040023749BF800309BF801209A42C9D12B6862
:107314002FB9009A934202D1B8F1000F43D0002B49
:1073240079D0D3F800A0524D4E4BD5F804751C68A3
:10733400DFF84C813E1B98F8003026F07F46033678
:107344009BB94FF48033C5F84433C5F80433494B33
:107354004FF400324FF00109C3F880211A60C5F8D8
:107364000090FFF7C1FE88F80090B2452CBF54444A
:10737400A41924F07F44C5F84045D5F80435DB1B37
:1073840023F07F43E41B033324F07F44A3420AD950
:10739400D5F80435C5F84035FFF7A6FE354B4FF454
:1073A4000032C3F80021314B00221A7003B0BDE84B
:1073B400F08F13469146A0E71174D2690123002A85
:1073C400FAD1002B9DD02A609BE700231946F6E7EB
:1073D400D31A23F07F43834234BFC31A00232360AC
:1073E40053E721681368994213D8591A1160E2616E
:1073F40055E7091AD8691A4638B10346186888420D
:10740400F7D3401A1860184613462160E061DC6126
:1074140012E71346F2E7FFF76FFEC4E74C450DD1C0
:10742400D3692B6053B90F4801920121CAF808109F
:1074340003600E4B1970FFF757FE019AE169236848
:10744400C9F81C1011B1086803440B602B689A42F8
:1074540018BF012753E700BF743900207539002095
:107464007C390020783900206C39002068390020EC
:107474000010014000E100E05C380020FEFF7F00C6
:107484006939002008B5FFF737FE104B00200B22A6
:1074940018809A700E4B18600E4B18700E4B1870B3
:1074A4000E4B4FF48012E021C3F8802183F81413AB
:1074B4001A6002F18042A2F56F22C2F8080583F82F
:1074C4001113074BD2F804251A6008BD5C3800205C
:1074D4007C390020743900207539002000E100E077
:1074E40078390020074B9B784BB132B128B103683F
:1074F400187C20B959745A617047072070470820D6
:10750400704700BF5C3800202DE9F7431D4FBB785E
:1075140005460E4690469BB390B304292ED9436981
:1075240073B3437C02A80024012B00F8014D0CBF67
:107534008946A14600F03CF80DF10600FFF796FDE0
:10754400D0B101230370104B4560D3F80435C0E972
:107554000498C0E902369DF806307B709DF8070058
:1075640000F04AF824B9094B4FF48012C3F8002103
:10757400204603B0BDE8F0830424EFE70724F7E7CF
:107584000824F5E75C3800200010014000E100E029
:10759400064A92783AB130B1426922B100220274AB
:1075A4000221FFF779BD0820704700BF5C38002036
:1075B40070B5EFF3108672B60C4A946801239CB937
:1075C40093600B4B0B4DD3F8801029401160C3F826
:1075D4008050D3F8841051604FF0FF32C3F88420F8
:1075E400047006B962B670BD0370FAE780390020F2
:1075F40000E100E0FC06FFBD084B9A6810B55AB1E3
:1076040050B9EFF3108272B605491C680C605C68CF
:107614004C60986002B962B610BD00BF803900208A
:1076240000E100E050E8002F0B4640E8003C9CF0ED
:10763400000FF7D11046704750E8003F43EA0102BB
:1076440040E8002C9CF0000FF6D11046704750E83B
:10765400002F02EA010340E8003C9CF0000FF6D141
:107664001046704750E8003F03EB010240E8002C4D
:107674009CF0000FF6D11046704750E8003FA3EB92
:10768400010240E8002C9CF0000FF6D11046704730
:107694000121FFF7D1BF0021FFF7D9BF2DE9F04346
:1076A4008368D3F83C61C6F3400689B0074636B117
:1076B4000022114609B0BDE8F04300F0B9BA01292F
:1076C40006D91E4A022109B0BDE8F04300F07ABA97
:1076D4001B4C1C4DDFF870901C23E2182D1B4FF03F
:1076E4006408B5FBF3F503FB05251C34AC4202D159
:1076F40009B0BDE8F08354F81C0C54E90623017961
:1077040000689A1A1B1ADBB2039308FB03F3B3FB5A
:10771400F2F3CDE9016334F8043C0093CDE9061299
:1077240054F8083C11FB08F13846B1FBF2F1CDE9FD
:1077340004214A46082100F045FAD6E710EC02007D
:107744008CE90200A8E9020023EC020010B590B114
:10775400D0E9012301689B1ADBB20A60013BDBB26A
:10776400FF2B026802D10020107110BD11684C1C5F
:1077740014600B70F2E70E20F7E737B5054602A850
:10778400002400F8014DFFF713FF2A686B681168A5
:1077940099420ED9481E106011F8014CEB68298BF0
:1077A40001FB0434AB6811791B1ADBB2994238BF70
:1077B40013719DF80700FFF71FFF204603B030BD8B
:1077C40037B5054602A8002300F8013D0C46FFF733
:1077D400EFFE2A681368591C1160E968641A298B42
:1077E400B4FBF1F41C709DF80700FFF705FF03B02C
:1077F40030BD08B105F0B2BF704700002DE9F04775
:10780400089C1E4609BB1B4F1B4CE41BE408944216
:10781400B94606D91948E50000EB82080C46A54292
:1078240001D100230EE009EB0403D8F800005B68E3
:10783400196805F06CFF07EB040A08340028EED140
:10784400DAF804303360BDE8F0870028E9D0017825
:10785400436839B12146104698472368002BE0D08D
:107864003460F0E7120199189B58002BD9D031608D
:10787400E9E700BFDCE802000CE902002032002046
:1078840007B58368B9B1DA7B8A4211D00B4A0092FA
:1078940033228DF8042001F12F028DF805206D228A
:1078A400ADF80620D9736A460549006900F0DDFC8D
:1078B40003B05DF804FBD973024AF5E71B5B313B67
:1078C40048F0020016ED0200836807B51A7C8A426C
:1078D40013D045F61B32ADF8002034228DF8022077
:1078E40001F12F028DF803206D22ADF804201974E4
:1078F4006A460349006900F0B8FC03B05DF804FB74
:1079040048F00200014A024900F0AFBC13ED020046
:1079140048F002000A460068014900F0A6BC00BF16
:107924003EED020009B1FFF7F5BF70472DE9F341C1
:1079340006460F461446002514B902B0BDE8F0818E
:10794400706803682246D3F80C80791901ABC047EC
:10795400019B1D44E41A002BEED1B3681A78032A64
:10796400EAD0D3F83C219206FBD593F83C216FF37F
:10797400451283F83C21DFE72DE9F04F054685B039
:1079840017460E46002979D00C46A4EB060A14F8D3
:10799400010B05F005FE0028F7D1BB1B01935FFA2C
:1079A40087F83046FFF725FFAB685C7BA0EB0A0045
:1079B400E41BA04206EB0A095ED9019BCB46A3EB6C
:1079C4000A02ABEB09039BF800000392029305F053
:1079D400E7FD039A28B19BF80000029B0A281C4685
:1079E40007D0A868407B02EB0B0398420BF1010B14
:1079F400E7D8286900F02EFC224649462846FFF7BE
:107A040095FF54443444A4EB060A14F8010B05F022
:107A1400C7FD0028F7D12C4654F8100FFFF772FF6A
:107A240041462046FFF77EFFBBE70134A04218D051
:107A340019F804300A2B0AEB0408F6D1286900F07F
:107A440009FC22462C4649462846FFF76FFF54F8A6
:107A5400100FFFF757FFF9B2204608F1010AFFF7AC
:107A640061FF286906EB0A0100F0FFFB286905B0F5
:107A7400BDE8F04FFFF746BF0024D7E705B0BDE8E7
:107A8400F08F00000A4619B10249006800F0EDBB0E
:107A9400704700BF38ED02000A4619B10249006878
:107AA40000F0E3BB704700BF44ED02002DE9F34151
:107AB40006468068414F00248022214694308DF888
:107AC400034005F0CFFD3E49306900F0CEFB30693C
:107AD40000F0C0FB4FF47A7547F001077068036843
:107AE4000122D3F810800DF1030101ABC047019BC3
:107AF4005BB94FF6C010B847019B002BEED1013D96
:107B0400ADB2002DEAD10D2034E09DF80320B36816
:107B14001B2A47D093F894101B29EDD1522A41D146
:107B24001C44002284F8942093F895105B291ED1FC
:107B340003F19600022510F8011B0135EDB23B2933
:107B44006CB21AD1002C20DB05F193041C440021F3
:107B540014F8010FD8B9FA2988BFFA21FA2A88BF84
:107B6400FA22002019729A7283F8940002E083F8D2
:107B740094200B2002B0BDE8F08102EB820201EBFD
:107B84004202303A802D92B2D5D10C20F2E7013571
:107B9400303801EB8101EDB200EB4101280689B2D6
:107BA400F3D4D5E719190134E4B2092C81F89420EF
:107BB400A2D9002283F894200420DBE750ED0200D0
:107BC40029ED02000CB4F7B508AB02AD53F8046B11
:107BD40045F8043D0F468168D1F83C315B07044603
:107BE40020D5CB7BBB421DD002220F31684605F065
:107BF40010FD39462046FFF743FE2A4631462069E8
:107C040000F0A8FB9DF800102046FFF739FE9DF810
:107C1400011011B12046FFF757FE03B0BDE8F04054
:107C240002B070472A463146206900F093FBF4E71E
:107C34002DE9F04F044689B08248DFF82C921746AC
:107C44000E4605F08BFD05467F4805F087FDA368C9
:107C54007E4A5B68CDF8009008212D1A1B682046E7
:107C6400FFF7B0FFA3685B681868FFF7C2FD8046A2
:107C7400484605F073FDA3685B6808EB000292B206
:107C840059682046FFF778FE714A08212046ADB2B4
:107C9400FFF798FF3FB136B14FF00C09B04609FB2E
:107CA4000769C14528D1684805F058FD02300544EC
:107CB400ADB2644B009305F10308664A08212046DF
:107CC4002B461FFA88F8FFF77DFF4246624920469B
:107CD400FFF752FE36B10C23DFF8789103FB0767F8
:107CE400B74223D1A3685B68D3F80890B9F1000FB9
:107CF4005AD109B0BDE8F08FD8F80400FFF779FD38
:107D04008246D8F80000FFF774FD5044A8420AD90F
:107D1400D8F80400FFF76DFD0546D8F80000FFF71A
:107D240068FD0544ADB208F10C08BAE7D6E90023B2
:107D340093B34AB30192444A00920821474A204629
:107D4400FFF740FF7068FFF754FD83463068FFF784
:107D540050FD82463C4805F001FDA5EB0B03A3EB67
:107D64000A031B1AD9B204F11000FFF7DBFD3A2213
:107D74003B49206900F079FAB16889B1424620464E
:107D8400FFF7FAFD0C36ABE700932B464A46082171
:107D94002046FFF717FFEFE7002AEDD00092F4E743
:107DA4002069FFF7AFFDEDE70DF12008002248F848
:107DB400142D164604AF009743460121484602F1AC
:107DC400010AFFF71BFD039D5DB12868FFF711FD54
:107DD400B04204D9039B1868FFF70BFD86B25246E4
:107DE400E9E7BAF1010F84D01E4A08212046FFF7C3
:107DF400E9FE06F1020A2A46164D1FFA8AFA43469C
:107E040000970121484602F1010BFFF7F7FC039BA1
:107E1400002B3FF46EAF1B680093082153462A469B
:107E24002046FFF7CFFE039B596831B1721D92B211
:107E34002046FFF7A1FD5A46E1E72069FFF762FDFE
:107E4400F9E700BF56ED02005CF0020041F00200C9
:107E54006FEF02007AEF020082EF020095EF02005A
:107E64008CEA02009EEF02002EED0200022910B5FA
:107E740004460AD18368D3F83C319B0705D5002218
:107E84001146BDE81040FFF7D3BE2069054A0649F4
:107E940000F0EBF92069054A0349BDE8104000F001
:107EA400E4B900BF1AED020048F002001EED020022
:107EB40010B58368D3F83C2192070C4606D50022FE
:107EC4001146FFF7B5FE0124204610BD0029FBD062
:107ED4005B68034A1B680221FFF774FEF4E700BFE6
:107EE4007CEE0200012937B50546144606D100226E
:107EF400114603B0BDE83040FFF79ABE023918BFFF
:107F04000121FFF7D5FF48B963680193044B00933F
:107F1400044A236802212846FFF754FE03B030BD0B
:107F2400FBEE0200F1EE020011F1FF3110B518BFB3
:107F340001210446FFF7BCFF40B9054A0549206901
:107F440000F093F9A36845F218029A8110BD00BFAE
:107F540023ED020048F0020001292DE9F341044613
:107F6400154637D18668FFF7A1FD38BBA36804F135
:107F74001005FA21284693F808809F7AFFF7CAFC77
:107F840020691E49FA2200F070F92046FFF78EFDA1
:107F9400A0B9A368197A7173A368A1EB08019B7A4D
:107FA40033732846C9B2FFF76DFD317BC91BC9B2D3
:107FB400284602B0BDE8F041FFF76EBDA36845F264
:107FC40018029A810E4A0421204602B0BDE8F0410D
:107FD400FFF7F8BD022994BF00210121FFF768FFD4
:107FE40048B96B680193074B00932B68064A02213A
:107FF4002046FFF7E7FD02B0BDE8F08132ED020054
:1080040034EF0200FBEE0200F1EE02002DE9F04134
:1080140011F1FF3186B018BF01210546FFF748FF73
:1080240040BBAB68DFF85480D3F834610446EEB14A
:10803400082C1BD030460023092203A900F052FB70
:108044009DF81420A968304609230132943100F0C8
:1080540049FBAB68049E94330093671C2346424655
:1080640008212846FFF7AEFD3C46E0E7AB68002256
:1080740083F8942006B0BDE8F08100BF29EF020028
:1080840011F1FF3110B518BF01210446FFF710FFAD
:1080940030B9A26892F83C3160F3820382F83C3133
:1080A40010BD11F1FF3110B518BF01210446FFF7CF
:1080B400FFFE30B9A26892F83C3143F0040382F821
:1080C4003C3110BD11F1FF3110B518BF0121044638
:1080D400FFF7EEFE30B9A26892F83C3160F3C303B7
:1080E40082F83C3110BD11F1FF3110B518BF0121E8
:1080F4000446FFF7DDFE30B9A26892F83C3143F044
:10810400080382F83C3110BD022973B50D4694BFB3
:108114000021012104461646FFF7CAFE58B9022D74
:108124000BD1736801930D4B00930D4A33682946B4
:108134002046FFF747FD02B070BDA368094AD3F893
:108144003C3113F0080F084B18BF1346074A0821A7
:10815400204602B0BDE87040FFF734BDFBEE0200DC
:10816400F1EE020010EF020013EF020017EF02001D
:1081740011F1FF3110B518BF01210446FFF798FE35
:1081840040B9A368C3F82C01E368BDE81040D8687F
:1081940000F095BB10BD00001FB511F1FF3118BFF1
:1081A40001210446FFF784FEB8B9E368D86800F0FB
:1081B40083FBE368A168DB689B68C2B2CDE9012355
:1081C40064205043B0FBF3F0C0B20090D1F82C31DE
:1081D400034A08212046FFF7F5FC04B010BD00BF98
:1081E400B8EE0200012906D0022908D18368D3F829
:1081F4003C319B0703D500221146FFF719BD024A03
:108204000221FFF7DFBC00BFF3EF0200012907B52D
:1082140006D10022114603B05DF804EBFFF708BD58
:1082240002290AD153680193084B00931368084A42
:10823400FFF7C8FC03B05DF804FB8CBF01210021EB
:1082440003B05DF804EBFFF733BE00BFFBEE0200A2
:10825400F1EE0200826810B504462AB14369016850
:10826400006998470023A36010BD0EB403B50399B9
:1082740029B102AA04AB42F8043D00F06BF802B045
:108284005DF804EB03B07047826830B40468551C91
:108294008560A154D0E901329A4202D330BCFFF781
:1082A400D9BF30BC704700002DE9F84F9946DDE98D
:1082B4000A431746824688460A460126BA420FD226
:1082C4004E4538BF4E4613F0010B01D164B900246A
:1082D4000125B9F1010F1AD909F1FF397D43F8E7F6
:1082E400B2FBF7F20136E9E79B070ED5B9F1000FAF
:1082F4000CBF30252025A642EAD2013C294650462F
:10830400FFF7C2FF002CF6D1E1E72025F3E7B8FB25
:10831400F5F39F42E2D9DFF83890B8FBF5F3504605
:1083240019F8031005FB1388FFF7AEFFB5FBF7F54B
:10833400002DF2D1BBF1000F02D00CB1A64201D343
:10834400BDE8F88F20215046013CFFF79DFFF4E77C
:10835400EEF202002DE9F74F054690460E4600293D
:1083640000F03A8116F8011B002958D0252940F065
:10837400D180002702E047F001071646324612F882
:10838400013B2D2BF7D0302B04D02B2B05D147F0FC
:108394000407F2E747F00207EFE700242A2B06F16F
:1083A40001021BD1D8F80030191D1B68C8F8001051
:1083B4001C44164633782E2B1CD101364FF0000A8C
:1083C400314611F8012BA2F13000092814D80A23F0
:1083D40003FB0A23A3F1300A0E46F1E712F8013C2D
:1083E400A3F130010929E5D80A2101FB0434303C0A
:1083F4001646D3E74FF0000A324612F8011B01F08B
:10840400FB0068281646F8D0692916D054D8582994
:1084140070D00ED825297DD03378002BA2D12B7BA8
:10842400002B00F0D980284603B0BDE8F04FFFF7D9
:1084340011BF632968D06429EED1D8F80020D2F89E
:108444000090111D89EAE972C8F80010A2EBE972E4
:108454004FF0010B092A61DCD34538BFD3462CB158
:10846400B9F1000F01DB790700D5013CBA0702D549
:10847400BAF1000F04D0FB0702D4002C54D100241D
:10848400B9F1000F58DAC9F100092D212846FFF788
:10849400FBFE07F00302022A05D1BAF1000F02D154
:1084A400002C4DD10024CDE9004753460A22494609
:1084B4002846FFF7F9FEAFE7732954D016D8702980
:1084C400AAD1D8F800301A1DC8F800203021284657
:1084D4001C68FFF7D9FE78212846FFF7D5FE002255
:1084E4000823CDE9003221461022E1E775292FD077
:1084F400782991D1D8F800100A1DC8F80020CDE9D8
:108504000047534610222CE0D8F800301A1D197881
:10851400C8F800202846FFF7B7FE7DE70A230BF1D1
:10852400010B92FBF3F295E7A345A9D2202128463B
:10853400013CFFF7A9FEA0E77807AAD52B21A5E700
:10854400A345B0D230212846013CFFF79DFEA7E7A2
:10855400D8F80010CDE900470A1DC8F8002053469A
:108564000A220968A4E7D8F800301A1DC8F80020C8
:10857400F907D3F8009012D54F46A7EB090B17F86B
:10858400011B41B9A345BFF447AF20212846013C54
:10859400FFF77AFEF6E72846FFF776FEEDE7B9F136
:1085A400000F17D0484605F0D9F80746BC4200D959
:1085B40054B909F1FF3919F8011F00293FF42CAF10
:1085C4002846FFF761FEF6E720212846013CFFF725
:1085D4005BFEEBE74F46E9E703B0BDE8F08FFFF73A
:1085E400B5B8F8B546790146721E05460023934294
:1085F4002D6803D30024A64202D8F8BD0133F6E760
:108604000F682846FFF7DCF801343946F3E72DE913
:10861400F843068BCD1C0746FFF7AFF8043E3544FC
:108624000446B5FBF6F5F0B14FF48073EDB28380E8
:10863400C680013D076081464FF00008A84512D26C
:108644003846FFF79AF8064648B1637901336371F7
:1086540008F10108C9F8000007608146EEE72046EA
:10866400FFF7BFFF34462046BDE8F88301210430FC
:10867400FEF7F8BF10B5012104460430FEF7FDFFF4
:1086840010F0FF0F04D12046BDE81040FFF7A9BF4A
:1086940010BD2DE9F843C7880546181D8846B0FB70
:1086A400F7F4164607FB14003CB9A7EB0009B145E3
:1086B40028BFB14626B9BDE8F8832D68013CF3E72D
:1086C4000430A6EB09064A4608EB0401284404F0EA
:1086D400A0FFB7424C442D68B9464FF0000028BFB4
:1086E400B146E7E72DE9F843C7888846191D0546D2
:1086F400B1FBF7F4164607FB14113CB9A7EB0109CB
:10870400B14528BFB14626B9BDE8F8832D68013CC0
:10871400F3E704312944A6EB09064A4608EB0400B2
:1087240004F077FFB7424C442D68B9464FF000017E
:1087340028BFB146E7E741DF70470000064B10B59C
:1087440000241C70054B1C60BFF35F8F044905486F
:1087540000F0B9F8204610BD943900209839002063
:1087640000F302008C39002007B502A8002300F8AA
:10877400013DFEF71DFFF1EE103A23F09F03E1EEF9
:10878400103ABFF35F8F0A4B4022C3F884219DF84F
:108794000700FEF731FF04F0DDF920B1FFF7CBFF4E
:1087A40003B05DF804FB20BF40BF20BFF8E700BF63
:1087B40000E100E0026813685268934291BFD01A46
:1087C40080680130801888BFC01A704713B504460A
:1087D40002A8002300F8013DFEF7EAFE2046FFF759
:1087E400E9FF04469DF80700FEF706FF204602B0A5
:1087F40010BD00002DE9F04F8368D3F83C319B078E
:108804008BB0064606D5002211460BB0BDE8F04FEA
:10881400FFF70EBA012906D9214A02210BB0BDE89F
:10882400F04FFFF7CFB91F4C1F4D204FDFF880806A
:10883400DFF880901C232D1BB5FBF3F503FB0545E6
:10884400AC4202D10BB0BDE8F08FE3680993236812
:10885400D4F808A0D3F808B02046FFF7B7FF94F87F
:1088640010C0642303FB00F1BCF1000F0CBF3A46B7
:10887400424603FB0BF3B3FBFAF3CDE9043BB1FB34
:10888400FAF1099B0191CDE906A2CDE9020A009310
:108894004A46636908213046FFF794F91C34CFE750
:1088A40010EC0200A8E90200A8E9020050F302005B
:1088B40059F3020065F3020003689868704703687F
:1088C40000229A6070470B684A684360934208BF6D
:1088D4000023016008BF43607047436843B10268E6
:1088E400916852680B449342436004BF0023436081
:1088F400704700000D4930B5A1F5947202259142EC
:1089040001D800200EE08B1ADB1093FBF5F302EB89
:10891400C30452F83330834205D802D204F108026A
:10892400EDE7606830BD2146E9E700BF44F5020089
:1089340008B5FFF7DFFF024B002808BF184608BD43
:1089440008F40200F0B406460846F469059FA588B9
:10895400A84211461A46BDF8103010D264888C42E1
:108964000DD92D1AAA42A4EB0104C8BFAAB2A3428E
:10897400C8BFA3B2F4680497A446F0BC6047F0BC37
:10898400704730B404460846E5691146AA88824215
:1089940007D96A888A4204D9A4681A46234630BC97
:1089A400184730BC70472DE9F04F85B09846BDF9A3
:1089B400389099422CBF4FF0FF3A4FF0010A83469A
:1089C4004A45ACBF4FF0FF330123A8EB0100154625
:1089D4000C46029304F0D6FD07B2A9EB050004F09F
:1089E400D1FD0F9B06B22A4621465846FFF7C9FF20
:1089F400B742A9BF334601233E461F46A8BF002302
:108A04000193BB1B7F005B00BFB29BB2BE1B0393F1
:108A140036B2A94504D1444502D105B0BDE8F08F72
:108A2400002EB3B20EDB029A1544039A5444D618AE
:108A3400A4B2ADB236B20F9B2A4621465846FFF780
:108A4400A0FFE6E7FE18019B36B21BB1029B1D4452
:108A5400ADB2F0E75444A4B2EDE710B503680446A0
:108A6400984710B9E36901221A7010BD13464A8869
:108A74000988FFF786BFC3692DE9F3470C461746FB
:108A84000A8899888A42064603D9A5885888854267
:108A940073D86088884203D9E1885B8899426CD88E
:108AA400A088101A04F06EFDE38880466088C01A1E
:108AB40004F068FD2589B4F80090A388B4F802A0F6
:108AC4008045CABFA8464FF000080025994502D04A
:108AD400E188514518D1A3EB090004F053FD6388E4
:108AE4000544E088C01A04F04DFD404480B2ADB2A4
:108AF400009001972B46524649463046FFF722FF25
:108B0400002002B0BDE8F08705BBB8F1000F2DD1FD
:108B140009B200910197524649463046FFF743FF98
:108B2400EEE72088A388628801970B440144B4F9D6
:108B3400060000909BB289B23046FFF734FF2389C8
:108B4400A9B28B4205F10105EBD8D9E70025F6E778
:108B54006288B4F806C0A38821880197024460445F
:108B640000B2009092B23046FFF71DFF2389A8B2ED
:108B7400834205F10105EBD8C2E70720C1E72DE9DF
:108B8400F0478C8886B0012C81460D4690469A4663
:108B94009DF8386069D0CF88012F66D05300A34276
:108BA40063DCBB4261DCC369098898886A888842AF
:108BB40002D25B88934258D34EB1CDE9007A234662
:108BC4004846FFF7BFFE002006B0BDE8F087ADF8C9
:108BD4000C102144ADF80E20ADF81010ADF81220A1
:108BE40003A952464846ADF81480A7EB0807FFF7DF
:108BF40042FF2A88A9886B88ADF80C20BFB20A44CA
:108C04003B449BB2ADF8102003A952464846ADF848
:108C14000E30ADF81230FFF72EFF6B882A88ADF8BE
:108C24000C2003EB0801ADF80E103B44ADF8102006
:108C340003A952464846ADF81230FFF71CFF2B88B3
:108C44001C446B88A4EB0804A4B298441F44524605
:108C540003A94846ADF80C40ADF80E80ADF81040BD
:108C6400ADF81270FFF707FFADE70720ACE700008F
:108C7400054B1B68082B01BF044B1868B0FA80F041
:108C8400400918BF00207047300100103401001063
:108C940008B54FF080430022C3F80C21C3F810211B
:108CA400C3F838254FF0805203F54043D2F804143A
:108CB400C3F82015D2F80814C3F82415D2F80C14FC
:108CC400C3F82815D2F81014C3F82C15D2F81414CC
:108CD400C3F83015D2F81814C3F83415D2F81C149C
:108CE400C3F84015D2F82014C3F84415D2F824145C
:108CF400C3F84815D2F82814C3F84C15D2F82C142C
:108D0400C3F85015D2F83014C3F85415D2F83414FB
:108D1400C3F86015D2F83814C3F86415D2F83C14BB
:108D2400C3F86815D2F84014C3F86C15D2F844247B
:108D3400C3F87025FFF79CFF10B1384B384A1A600E
:108D4400FFF796FF18B1374BFB22C3F81825FFF73E
:108D54008FFF48B13449354B0A681B6822F00F0273
:108D640003F00F0313430B60FFF782FF18B1304B7E
:108D74004FF400721A604FF08043D3F80024D207F6
:108D840044BF6FF00102C3F800242A4AD2F88830A5
:108D940043F47003C2F88830BFF34F8FBFF36F8F73
:108DA4004FF01023D3F80022002A03DBD3F8043257
:108DB400002B2FDA204B0122C3F80425D3F800241A
:108DC400002AFBD04FF010221221C2F80012D3F86F
:108DD4000024002AFBD04FF010231222C3F80422EF
:108DE400154B1A46D3F800140029FBD00021C3F810
:108DF4000415D2F80034002BFBD0BFF34F8F0D497C
:108E04000E4BCA6802F4E0621343CB60BFF34F8F8A
:108E140000BFFDE70A4B0B4A1A6008BD8C560040A0
:108E24004881030000F00040E40E004058020010A6
:108E34004096024000ED00E000E001400400FA0525
:108E4400843200200090D003074B1B5C1F2B8ABF89
:108E5400064A4FF0A04203F01F03D2F80405D8409D
:108E6400C04300F00100704702F902000003005003
:108E7400074B1B5C1F2B86BF03F01F0305494FF0F4
:108E8400A041012202FA03F3C1F80C35704700BF78
:108E940002F9020000030050074B1B5C1F2B86BF26
:108EA40003F01F0305494FF0A041012202FA03F326
:108EB400C1F80835704700BF02F9020000030050F2
:108EC40008B50020FFF7E8FF0120FFF7E5FF0220C7
:108ED400FFF7E2FF0320BDE80840FFF7DDBF08B558
:108EE4000020FFF7C5FF0120FFF7C2FF0220FFF7B4
:108EF400BFFF0320BDE80840FFF7BABF0A4B185C68
:108F04001F288ABF094B4FF0A04300F01F00D3F87D
:108F140004250121814021EA02000A40C3F8080522
:108F2400C3F80C25704700BF02F90200000300508B
:108F34000B2809D00C2809D0182809D019280CBFEF
:108F440003204FF0FF307047002070470120704726
:108F540002207047C20710B504460CD54FF0A04359
:108F64000322C3F83427C3F83827C3F83C27C3F8CF
:108F74004027FFF7A5FFA3070AD54FF0A0430C2213
:108F8400C3F82C27C3F83027C3F86027C3F8642735
:108F940010BD000038B5084C04F10803054600284C
:108FA40018BF1C4623682BB11A6822605B682846E8
:108FB4009847F7E738BD00BFA439002020B9054B16
:108FC40001225A70FFF7E6BF012802D1014A9070CE
:108FD400F8E770479C39002020B9034B01225A70EE
:108FE400FFF7D8BF704700BF9C39002038B50B4C41
:108FF400237883B90A486360A3602361E36000F0C7
:109004005FF8054603F0A6FD08B900F067F80123F0
:109014002370284638BD8525FBE700BF9C39002016
:10902400C18F020037B502A80023094C00F8013DA6
:10903400FEF7BEFAE368013BE360E56815B900F0AA
:1090440061F8A5709DF80700FEF7D6FA03B030BDAD
:109054009C390020012813B509D003D303281BD061
:1090640002B010BD0F4B0122C3F88020F8E702A81C
:1090740000230D4C00F8013DFEF79AFA23780BB952
:10908400FFF7B4FFE3689DF807000133E3600123B1
:10909400A370FEF7B1FAE3E700F020F8FFF7C2FF90
:1090A400DEE700BF00E100E09C39002000F18040D1
:1090B400002382B0036003680193019B02B07047F0
:1090C400054A13792BB901211060117153711846A7
:1090D40070478520704700BFB0390020084B1A68DC
:1090E400D20706D4E02283F800230122C3F88021AA
:1090F4001A604FF080430122C3F81825704700BF5F
:1091040000E100E0044B01221A604FF08042D2F8E3
:109114001834DB03FBD470470C000040124B1B686F
:1091240010B573B14FF48070FFF7C0FF4FF0804368
:109134000122C3F808230D4B587910B95A711B68E2
:1091440098470B4B1B6873B14FF48270FFF7AEFF67
:109154004FF080430222C3F80823044B01201B680C
:10916400BDE81040184710BD00010040B039002090
:109174000401004000F1804000F5C040002382B0AB
:10918400036003680193019B02B0704703681F2BBF
:1091940083BF03F01F03036001484FF0A0407047F2
:1091A4000003005007B502AB43F8040D1846FFF75F
:1091B400EDFF019B00EB8300D0F8003723F440332C
:1091C400C0F80037D0F8003743EA0141C0F800176F
:1091D40003B05DF804FB0000054B4FF0FF32072895
:1091E40043F8202084BF1B1883F85820704700BF21
:1091F400B839002010B5174C94F86A3043BBFF21EE
:10920400E2180133302B82F83010F9D10021C8B2B2
:10921400FFF7E2FF01310C29F9D1062200210E48A3
:1092240004F020FA0D4BE02283F806234022C3F811
:1092340080214FF4BE701A60FFF79CFF084B4FF07B
:109244000042C3F80423012384F86A30002010BDCF
:109254000820FCE7B83900201C3A002000E100E0B7
:1092640000600040034B93F86A00003018BF0120EF
:10927400704700BFB8390020F7B5404F3B1804468B
:1092840093F93030002B944675DA8B78C3F340039E
:10929400002B15BF0025082508200C20854202D18B
:1092A400042003B0F0BD57F8252001324FEA8506AB
:1092B40049D1381947F825C080F8305013B97B19C3
:1092C40083F858408B785A071BD4D8073DD502A899
:1092D40040F8084DFFF75AFF009B00EB8300D0F8DD
:1092E400003723F00203C0F800372548E20804F0F1
:1092F400070C012303FA0CF310F802C043EA0C0331
:109304008354887891F800C010F002002AD006F146
:10931400804303F5C0432402D3F8102522F44F32CE
:1093240022F44072C3F810254FEA0C4CD3F81025F0
:1093340004F47C540CF4403C44EA0C041443C3F895
:1093440010450020ADE70135A8E702A84A7840F8A7
:10935400044DFFF71BFF019B03F5E073920040F8F7
:109364002320C2E7083D3D4495F8604044EA8C1C44
:1093740085F860C095E7082093E700BFB83900205E
:109384001C3A002073B5224C2518064695F9302066
:10939400072A1ADD224492F858309B09032B10D176
:1093A40002A840F8046DFFF7F1FE019AD0F81035D9
:1093B400D340DB0707D402213046FFF7F3FE02B0A7
:1093C40070BD012BF7D00321F6E7D3B2072BF6D8F3
:1093D400930003F1804303F5C043D3F8100540F034
:1093E4000100C3F8100502F14000800080B2FFF7CD
:1093F400C1FE0029E3D095F9303054F82330002B16
:10940400DDD0012303FA02F2024BC3F80423D6E7AA
:10941400B83900200060004007B502AB43F8040DE2
:109424001846FFF7B3FE019BD0F81005D84000F0B2
:10943400010003B05DF804FB2DE9F04F002489B06E
:10944400CDE902445F4A604E604D01211368A2F5E4
:10945400C040012B80B206D1D6F804330B4202D0AF
:10946400FFF788FE0C430432AA424FEA4101EDD1D2
:10947400574B1B68012B0ED14FF4BE70FFF77AFED9
:109484004FF0A04344F00044D3F810350293514BFD
:10949400D3F81035039314F0FF0F1AD04E4F002564
:1094A4000126344210D0AB0003F1804303F5C043DE
:1094B400D3F81005D3F8101557F82530C0F305205C
:1094C400C1F3014103B198470135082D4FEA46061F
:1094D400E7D1002C72DA04AE0023049373604FF0DA
:1094E400FF33CDE906333C4F4FF0010800252C46ED
:1094F4007B1993F96020531C47D0D2B222F0C009E3
:1095040008A84FEAD90300EB030B02F007011BF88C
:10951400080C08FA01F1084237D007EB0900920958
:1095240090F9300057F820A0BAF1000F05D1032AB2
:109534002BD1F05C0843F05401E0032AF9D001A8D0
:10954400CDF80490FFF722FE019B03F5E07350F879
:1095540023301BF8180C0842C3F3014305D0022B37
:1095640013D1032A0BD1114604E0032B0DD1032A96
:1095740005D102214846FFF715FE0134E4B2BAF1E1
:10958400000F02D011464846D0470135042DAFD113
:10959400A4B14FF0A0430299D3F8102503F540730A
:1095A4009142D3F8103502D10399994206D0029220
:1095B4000393049A059B0692079397E709B0BDE8C5
:1095C400F08F00BF00610040006000402061004057
:1095D4007C61004000030050B8390020014B1B6837
:1095E400184700BF243A00200D4B984237B50D466A
:1095F40010D102A8002300F8013DFDF7D9FF094B63
:109604001C7914B901221D601A719DF80700FDF739
:10961400F3FF14B9002003B030BD1120FBE700BFF5
:1096240000200040243A0020034B984201BF034B22
:1096340000221A601A71704700200040243A00206A
:109644000023435082B043580193019B02B07047FA
:109654002DE9F041234EDFF89480234F00254FF489
:109664008034D6F8043305F150018900234289B2CD
:109674000ED005EB08039B001B684BB1C6F84843AA
:109684003046C6F80843FFF7DBFF3B68E8B298476B
:109694000135042D4FEA4404E3D1124CD4F80433C9
:1096A400DA070BD5D4F8003143B120464FF480716A
:1096B400FFF7C6FF0C4B28461B689847D4F80433C1
:1096C4009B070DD5D4F8043153B106484FF4827189
:1096D400FFF7B6FF044B05201B68BDE8F0411847AF
:1096E400BDE8F081004002402C3A00205090001068
:1096F4000D4BF3B45C680D480023194601251E4642
:109704001A18920017683FB116601268019205FAA0
:1097140003F73943019A89B20133102BF0D10120A8
:10972400234602B0F0BC1847303A002040540010E1
:109734001F2886BF00F01F00044A4FF0A0420123F7
:1097440003FA00F0C2F80805704700BF0003005098
:109754001F2886BF00F01F00044A4FF0A0420123D7
:1097640003FA00F0C2F80C05704700BF0003005074
:10977400114BD3F8183107B5D3B1104B104900225F
:109784001A60C87F1B680193FF28019B03D08B7F5D
:109794005BB1FFF7DDFF00234B770B72D1E900319A
:1097A400084803B05DF804EB1847FFF7C1FFF2E780
:1097B40003B05DF804FB00BF0030004018310040E6
:1097C400483A0020503A00202DE9F74F0679794DA8
:1097D40001934FF0240909FB06F905EB090A9346A6
:1097E4009AF81C2080460C46002A40F0DE80076868
:1097F40071493846FFF7F8FE0146002840F0D7804B
:10980400019BCAF80430237B45F809B0012B20786A
:1098140000F2B980FFF79CFF23781F2B86BF03F06B
:109824001F03664A4FF0A04203F5E073012042F89B
:10983400230094F80190B9F1FF0F00F0A780484687
:10984400FFF786FFB9F11F0F8BBF09F01F034B46CB
:109854005A4A4FF0A04203F5E073032042F8230074
:10986400A378FF2B00F095801F2B8BBF03F01F0202
:109874001A4652484FF0A04002F5E0724FF0040C33
:1098840040F822C09A4698F80420242000FB025293
:1098940082F82030E078FF281BD02379002B7BD07E
:1098A400FFF756FFE2781F2A134686BF02F01F0314
:1098B40042484FF0A04003F5E0734FF0030C40F82A
:1098C40023C098F80430242000FB0353DA7722796C
:1098D4009A772378C7F80835A368C7F80C95C7F8B2
:1098E40010A5C7F82435637B227B003318BF0123FE
:1098F400022A54D0032A55D0012A01D143F002038D
:10990400C7F85435A379C7F8C03524237343EB58FB
:1099140013B14022C7F804230722C7F800253BB33C
:10992400D8F800206079120B53B2002BA8BF03F1C2
:109934006044D2B24FEA5313B8BF02F00F074FEAA4
:109944004010B4BF1E4C04F561444FEA8303C0B217
:1099540003F16043B4BFE05584F8000303F56143A9
:1099640002F01F02012000FA02F2C3F880211A60FB
:10997400242303FB065500236B7701232B7708462A
:1099840003B0BDE8F08FFFF7D3FE45E74FF0FF3992
:1099940066E74FF0FF3A76E7FFF7CAFE82E743F047
:1099A4000403ADE743F00603AAE70821E7E7112122
:1099B400E5E700BF483A0020759702000003005015
:1099C40014ED00E0F8B505791F4C006824236B43BF
:1099D400E618E358D3B1030B5AB2520903F01F033C
:1099E40001212032194F01FA03F347F82230184BB2
:1099F400C0F80833737F4BB14161D0F80431002BB8
:109A0400FBD0242303FB054300225A77242303FBC2
:109A1400054393F82030FF2B0BD01F2B8ABF03F094
:109A24001F034FF0A0420B4A03F5E073022142F8F2
:109A340023100026C0F80065FFF7F6FD242303FB7E
:109A440005442677F8BD00BF483A002000E100E055
:109A540052010800000300502DE9F3410579424EFC
:109A640024236B431446F2180F46517F8046002985
:109A740078D1F35823B114F0140F04BF01235377A2
:109A840097E80F004FF0240C0CFB056C0CF10C0E46
:109A94008EE80F009CF81F00FF2804D09CF81E30AD
:109AA400C3B1FFF745FE396821B101F06043B3F15A
:109AB400005F06D1BA6882B102F06043B3F1005F7F
:109AC4000BD0242303FB056500236B77102002B021
:109AD400BDE8F081FFF73CFEE5E7D8F80030786890
:109AE400C3F84415C3F84805F968C3F834250022BF
:109AF400C3F83815C3F81821D3F818210192019A34
:109B040014F0010218BF0122C3F8502514F0020218
:109B140018BF0122C3F8402522075CBF01221A6145
:109B240024226A43B25892B9D3F81821002AFBD0F0
:109B3400242303FB0565E87FFF2803D0AC7F1CB119
:109B4400FFF706FE0020C2E7FFF7F2FDFAE714F084
:109B540004004FF0400202D0C3F80823F2E7C3F830
:109B64000423B4E71120B2E7483A00207FB5037814
:109B74008DF804304368029383688DF80C30C36811
:109B8400049303698DF81430054A064B01A853F871
:109B9400213052F82110984707B05DF804FB00BF4C
:109BA4006C3A00207C3A0020F0B50646944616F83C
:109BB400047B194A42F827C0184A42F82730184B48
:109BC4000C460FCB85B06D4685E80F0023788DF8E1
:109BD400003063788DF80130A3788DF80230E37893
:109BE4008DF8033023798DF8053063798DF80630CC
:109BF400A3680293237B8DF80C30BCF1000F637BC8
:109C04008DF80D30074A3B4608BF002229463046EE
:109C1400FFF7DAFD05B0F0BD7C3A00206C3A002075
:109C240038F90200719B02000220FFF767B90000B7
:109C34002DE9F04781460D46FFF77AF903280446DB
:109C440004D8012D04D024D3022D2FD0BDE8F087F1
:109C5400194D47003A18A918AE5C4A7852B1DFF89A
:109C64006880164842464FF40041FDF74DFC08B9A0
:109C740088F800903B192B449A78114B1A55002E02
:109C8400E4D0104B1B68002BE0D03046BDE8F04711
:109C940018470A48FDF77CFC074B04EB44021344C5
:109CA4009E78074B1B5DB342D0D1E8E7024B00EB33
:109CB40040041C446678E2E7F03A0020B03A002001
:109CC400093B0020043B00208C3A0020022100784C
:109CD400FFF7AEBF08B5094B1B7853B10020FFF75F
:109CE400DBF80120FFF7D8F80320BDE80840FFF7B0
:109CF400D3B8BDE80840FFF7E3B800BF8D3A0020B1
:109D0400F8B5794C237805461BB100232370FFF77F
:109D1400E1FF172D00F28480DFE805F00C13133FF8
:109D24005061727C84898489919696969696C0C572
:109D3400CDD5E0E0FFF7CEFF6C4B00241C7020462D
:109D4400F8BD0020FFF780F8F8B10020FFF7A4F871
:109D5400022D0CBF4FF4E1614FF47A61634B1D7027
:109D64004FF400404FF4FA740025E0FB01454FF432
:109D74007A7200232046294603F0F0FA00220146B5
:109D84005B48BDE8F840FDF7BFBBFFF771F8022D53
:109D94000CBFC8214FF4C871E0E70020FFF754F866
:109DA40040B10020FFF778F84FF448714F4B03227D
:109DB4001A70D5E7FFF75CF8C821F7E70020FFF732
:109DC40043F838B10020FFF767F84FF47A61474B46
:109DD4000422EDE7FFF74CF84FF4C871F7E70020D1
:109DE400FFF732F848B10020FFF756F83F4B052241
:109DF4001A7041F69A110022C2E7FFF739F8F5E725
:109E04000020FFF77BF8394B06221A70002240F637
:109E1400CD41B5E70020FFF72BF8344B07221A7029
:109E240000248CE701202070FFF768F8EEE701209A
:109E34002070FFF763F800224FF48041A0E7FFF79A
:109E44004EF82A4B0C22EAE72A482B4EFDF7A0FBDA
:109E5400D5F1110504461CD0D8B9012D13D0C8235F
:109E64005D434FF400474FF4FA7000214FF47A72C7
:109E74000023C7FB050103F071FA224601461D4881
:109E8400FDF742FB04460220FEF7F2FF0123337084
:109E940055E70220FFF700F80023F8E7FFF71AFF61
:109EA400124B1222BBE7FFF715FF0020FEF7E0FF7D
:109EB4000E4B1322B3E7FFF70DFF0120FEF7D8FF87
:109EC4000A4B1422ABE7FFF705FF0020FEF7D0FF93
:109ED4000120FEF7CDFF054B1522A0E7FEF7FFFF9B
:109EE400024B1D709CE700BF003B0020083B002094
:109EF400D03A0020903A00208D3A0020044B1B6891
:109F0400DB0703D5034B1878FFF7FABE704700BF91
:109F1400FC3A0020083B002038B51C4B18601C4B51
:109F240010F00204054619601AD01A4B1A480E2282
:109F34001A700F22DA7010229A7111225A720421B7
:109F440040F26662FCF784FF044648B9FCF7D4FF8C
:109F5400044628B90146114A1148FDF7C3FA0446DC
:109F6400EB0711D50120FEF7F5FF6CB921460D4A28
:109F74000D48FDF7B7FA044630B90C4A0C480121E4
:109F8400BDE83840FDF7AEBA204638BDFC3A0020A3
:109F9400043B0020F03A002048F90200D19C020062
:109FA4006CF90200019F020070F902002D9C02006E
:109FB40068F9020072DF704773DF704774DF70471F
:109FC40075DF704776DF704777DF70477ADF704759
:109FD4007CDF704788DF70478EDF7047B1DF7047E2
:109FE40000F5E0704FF0A043032243F820207047AF
:109FF4007047000070B5174E17493088174C00049D
:10A0040040F00300FCF7CAFC154B94F900201978C2
:10A014000120FFF7D9FF25461C4620B1114A40F222
:10A024007121FCF7ABFF30880F492A78000440F017
:10A034000300FCF7B7FC01212078FFF7BDFF20B136
:10A04400084A40F27621FCF799FF084B00221A7067
:10A0540070BD00BF58320020BEFA0200A4320020B6
:10A0640098320020D4FA02005FFB0200D93B0020A2
:10A0740030B597B01822002101A803F0F3FA4FF489
:10A084009673012403933C221023002107A88DF822
:10A094001B308DF804408DF819408DF81A4003F0F8
:10A0A400E1FA02238DF81C30464B1B7806258DF807
:10A0B4001F50002B3DD1444D44492888000440F0F2
:10A0C4000300FCF76BFC424B8DF819401B788DF8AC
:10A0D4001A400BBB28883F49000440F00300FCF7FA
:10A0E4005DFC8DF804403C4B07A81A1D196802F06A
:10A0F400E9FA20B1394A40F24221FCF73FFF01AAB4
:10A1040035493748FFF756FF20B1344A40F245211C
:10A11400FCF734FF17B030BD012BE4D12888314956
:10A12400000440F00300FCF739FC04238DF80430EC
:10A13400D9E7012BEED1244C2B492088000440F0B0
:10A144000300FCF72BFC04238DF819308DF81A302A
:10A154001F4B1B78FBB920882449000440F00300FE
:10A16400FCF71CFC1C4B8DF804501A1D196807A839
:10A1740002F0A8FA20B1194A40F25521FCF7FEFE7C
:10A1840001AA15491648FFF715FF0028C2D0134A43
:10A194004FF41671BCE7012BBCD12088144900048C
:10A1A40040F00300FCF7FAFB082301AA00210C4845
:10A1B4008DF80430FFF7FEFE0028ABD0074A4FF4B9
:10A1C4001971A5E7993200205832002074F9020071
:10A1D400D83B002093F9020088320020D4FA020010
:10A1E40098320020CDF902000AFA020032FA020085
:10A1F40078FA02000120FEF781BE0020FEF77EBE41
:10A204000320FEF77BBE0220FEF778BE0E4B1A68D1
:10A21400BAB10E4A93ED007A12681B6807EE902AD1
:10A22400B8EE477AF8EE677A77EE677A07EE103A77
:10A23400B8EE477A87EE870ADFED057A20EE270A23
:10A2440070479FED040A7047D43E00202C3B002049
:10A254000000C8420000000008B5134B0246187005
:10A2640010B1012812D008BD4FF4C0410F48FDF7CA
:10A274004BF920B10E4A4FF44D71FCF77FFE0D4AA5
:10A284000D480021BDE8084001F0F2BF0748FDF782
:10A294007FF920B1064A40F23D31FCF76FFE002001
:10A2A400FEF7E6FD054AEBE799320020983B0020D3
:10A2B400D4FA02004CFF0200A43F002053FF020026
:10A2C40008B5154B1870B8B1082823D10120FEF742
:10A2D400E3FD00224FF4C0411048FDF715F920B109
:10A2E4000F4A40F2F621FCF749FE0E4A0E480121BE
:10A2F400BDE8084001F0BCBF0848FDF749F920B1AA
:10A30400074A40F2FE21FCF739FE0120FEF7B0FDBA
:10A31400064AEBE708BD00BFA4320020B83B00208A
:10A32400D4FA020040FF0200A43F002046FF0200CE
:10A33400244B10B5044618700320FEF7ADFD34B36A
:10A34400012C3ED12048FDF723F920B11F4A40F2E9
:10A354007131FCF713FE0320FEF79EFD4FF4084213
:10A3640009211B4802F038F8002241F69A111948D5
:10A37400FDF7CAF820B1154A40F27631FCF7FEFD2C
:10A38400154A13480221BDE8104001F071BF11487D
:10A39400FDF7FEF820B10D4A4FF46071FCF7EEFDB5
:10A3A4000220FEF779FD002241F69A110648FDF7D6
:10A3B400ABF820B1054A40F28531FCF7DFFD074ACE
:10A3C400DFE710BDD83B0020DC3B0020D4FA0200BC
:10A3D400A43F00201C3C002024FF020034FF0200A4
:10A3E40008B5094B1878FFF737FF084B1878FFF7C3
:10A3F4009FFF074B1878FFF763FFFFF739FEBDE8AF
:10A404000840FFF7F7BD00BF99320020D83B002079
:10A41400A4320020194A1A4B4FF40001C2F88011EB
:10A42400986828B31A6822F400021A6015490022B9
:10A434000A6015490A6015490A6015490A600F4AFD
:10A44400C0214FF40000C2F8800182F8171392F87B
:10A4540017134909012906D9042904D0996851B16F
:10A464001A6802431A600B4A0B48062101F0C6BF62
:10A47400C2F88010DAE71060F5E700BF00E100E001
:10A48400803900202C3B0020303B0020283B00205A
:10A49400D43E0020B0EC0200A43F00200E38F8B5F2
:10A4A40003280BD8DFE800F002374049254B1B781E
:10A4B400002B0CBF01200020FFF7CEFE224B234FC0
:10A4C4001878FFF77BFD3A884FF6FF739A421CD049
:10A4D4001F4E20493088204D204C000440F00300DA
:10A4E400FCF75CFA0123132138882B702370FFF7E3
:10A4F40069FD024628B3338819491B0443F001005F
:10A50400FCF750FA00232B702370FFF7B1FDBDE870
:10A51400F840FFF76FBD134B1B78002B0CBF0820CE
:10A524000020FFF7CDFEC9E70F4B1B78002B0CBFB3
:10A5340001200020FFF7FCFEC0E7BDE8F840FFF76C
:10A5440069BFFEE799320020983200209A32002039
:10A55400583200205AFD0200D93B0020BC3C0020A8
:10A564006BFD0200A4320020D83B002070B50388A4
:10A574002DED028B202B88B0044600F0DF802AD812
:10A58400122B00F0B98009D8102B4CD0112B00F0FD
:10A5940090809A4B9A491888000428E01C2B00F0FC
:10A5A40067811F2BF5D100F1080292E8030006AB86
:10A5B40083E803001946A088FFF702FD20B1914A01
:10A5C4004FF4D571FCF7DAFC8C4B228918888E493C
:10A5D4006389000496E03B2B884A12D00CD8212BC7
:10A5E40000F0A880222BD4D110888849000440F0C0
:10A5F4000400FCF7D3F97BE0522B00F08880562B43
:10A60400C7D110888249000440F00400FCF7C6F961
:10A61400804B13211888FFF7D5FC002868D0794AAD
:10A624004FF4DF713BE07C4BC27B1A707B4A794D5F
:10A63400818892F9002029800320FFF7C5FC1C467D
:10A6440020B1704A4FF49A71FCF798FC2378012BDF
:10A6540028D16A4B72491888000440F00300FCF7C3
:10A664009DF9704B1878FFF7A9FC6F48FCF790FF31
:10A6740020B1644A4FF4A271FCF780FC0320FEF77A
:10A68400F7FB4FF448720921684801F0A5FE002247
:10A6940011462888FFF79EFC50B35A4ADC21FCF788
:10A6A4006DFC25E0022BDCD1544B61491888000471
:10A6B400D3E7584B027A4FF6FF7119805D4B0021A6
:10A6C40019704E4B5C491888000440F00400FCF7F4
:10A6D40069F95A4B1B781BB9FEF7F2FBFFF780FEB2
:10A6E4004FF408420921514801F076FEFFF792FE2B
:10A6F40008B0BDEC028B70BD404B228918885049CC
:10A704006389000440F00300FCF756F9F0E7108871
:10A714004C49000440F00400FCF740F900231A46B9
:10A724001946A088FFF75AFC0028E1D0354A40F2C8
:10A73400B511B4E710884449000458E7434D90F933
:10A74400091095F900308B423CD02C4E2970FFF74C
:10A754005DFD308800040A4640F003003C49B0EE39
:10A76400408AFCF71FF9217C237BE27A0391E17B89
:10A774000291A17B30880191617B009100043549ED
:10A7840040F00300FCF732F9FDEEC86AB5EEC08A6A
:10A79400B8EEE67AF1EE10FA9FED2F6A30882F4971
:10A7A400CCBF78EE477A77EE487A000467EE867A73
:10A7B40040F00300FDEEE77A16EE902A17EE903A89
:10A7C400FCF7FAF895F900202549264802F0FCFE2A
:10A7D40018EE100A02F056FD0B46024622492348A1
:10A7E40002F0F2FE1F4A1148052101F007FE1F4A3C
:10A7F4000E48062101F002FE7AE700BF583200201D
:10A8040035FD0200D4FA020004FC020078FC0200C8
:10A814005BFC02009A3200201B3C0020A432002082
:10A824007AFB020098320020DC3B0020A43F002089
:10A8340095FB0200BC3C0020C0FB0200D93B002079
:10A84400DBFB02003CFC0200A1FC0200D83E00201D
:10A85400D2FC0200F5FC020020BCBE4C18FD020034
:10A86400F2FC02003C3C002029FD02007C3C00205C
:10A8740006AA0DF117018088FFF7AEFB20B11B4A31
:10A884004FF4EE71FCF77AFB194CFFF7BFFC9DF90E
:10A89400172094F900309342B0EE408A0BD015494A
:10A8A400154802F091FE144A1448052101F0A6FD52
:10A8B4009DF817302370124CD4ED007AF4EE487AE8
:10A8C400F1EE10FA3FF414AF18EE100A02F0DAFCBD
:10A8D40002460B460B480C4902F076FE094A07482B
:10A8E400062101F08BFD84ED008A01E7D4FA020011
:10A8F400D93E0020F2FC02003C3C0020A43F002092
:10A90400A03E00207C3C00202FFD0200154BD3F814
:10A91400002132B100221449C3F800210A6801322F
:10A924000A60D3F8042132B10022C3F804210F4A8B
:10A934001368013313600B4BD3F8082132B10022A2
:10A944000B49C3F808210A6801320A60D3F80C21C4
:10A9540032B10022C3F80C21064A13680133136094
:10A96400704700BF00700140303B00202C3B0020AA
:10A97400283B0020D43E0020BFB54FF40041002006
:10A98400FBF744FE20B1C64A4FF42071FCF7F6FAF7
:10A99400FBF76CFDFCF776FD20B1C14A40F28D2136
:10A9A400FCF7ECFABF4AC0480121FCF79BFD20B13B
:10A9B400BB4A40F29121FCF7E1FABC4ABC480121B0
:10A9C400FCF790FD20B1B64A4FF42571FCF7D6FA96
:10A9D400B84AB9480121FCF785FD20B1B04A40F2DC
:10A9E4009721FCF7CBFAB54AB5480121FCF77AFD6B
:10A9F40020B1AB4A40F29A21FCF7C0FAB1490320D6
:10AA0400FFF78AFA20B1A64A40F2E531FCF7B6FA1C
:10AA14001D20FFF7E5FA1F20FFF7E2FA1E20FFF7DB
:10AA2400DFFA1C20FFF7DCFAA74AA849D2F8103550
:10AA340043F0031343F4E853C2F81035D2F8143545
:10AA440043F0031343F4F853C2F81435D2F818351D
:10AA540043F0031343F4F053C2F81835D2F81C350D
:10AA640043F0031343F4E053C2F81C35984BC3F886
:10AA74006015C3F86425A2F59D42503AC3F86825D1
:10AA840002F59D425432C3F86C25A2F59D42503A1A
:10AA9400C3F8702502F59D425432C3F87425A2F51B
:10AAA4009D42303AC3F8782502F59D42343201F5CF
:10AAB400AF31C3F87C25F831864AC3F83829C3F886
:10AAC4003C190431C3F840190431C3F844190F2167
:10AAD400C2F80413804A4FF40001C020C2F8801168
:10AAE40082F8170311604FF47052C3F80425FDF780
:10AAF40025FE20B16A4A40F2D621FCF73FFA01F064
:10AB0400EDFF20B1664A40F2A621FCF737FA06AC05
:10AB1400002344F8043D0120214602F071F820B1DD
:10AB24005F4A4FF42B71FCF729FA204602F030F902
:10AB340020B15B4A4FF42C71FCF720FA11236748CB
:10AB44008DF8143002F00AFE644982B22046FFF701
:10AB54003FFA20B1524A40F2C621FCF70FFA60488E
:10AB6400FFF734FA20B14E4A40F2C921FCF706FA45
:10AB74005C4B5D484FF4A072F02100F0E7FA5B4BA8
:10AB84005B495C480F2200F0C1FF5B49594801F062
:10AB940015F85A49574801F01EF81221554801F09A
:10ABA40037F8D7242323CDE901430A230093002255
:10ABB4000F2353494F4801F0BBFB524A4D48002133
:10ABC40001F02EFC504A4B48002101F017FC4FF4D1
:10ABD40000420021474801F0EDFB42F29F42002170
:10ABE400444801F0F9FB12220021424801F02AFCFA
:10ABF4004B23CDE901432D23009300220F23434926
:10AC04003C4801F0C9FA052200213A4801F054FBFE
:10AC14004FF6E0720021374801F006FB19220021AB
:10AC2400344801F013FB354A3248002101F032FB6D
:10AC3400374A3048002101F01BFB6E23CDE9014364
:10AC44005523009301220F2332492A4801F070FB57
:10AC54002C4A2848012101F0E3FB2F4A2548012111
:10AC640001F0CCFB4FF400420121224801F0A2FB89
:10AC740042F29F4201211F4801F0AEFB1222012142
:10AC84001C4801F0DFFB9623CDE9014378230093B0
:10AC940001220F232149174801F07EFA05223FE0E3
:10ACA400D4FA02000BA20200B4FD020005A20200C5
:10ACB400B0FD0200FFA10200A8FD0200F9A10200FC
:10ACC400ACFD0200A1A40200006000400C11004091
:10ACD40000F001400070014000E100E0B8FD020016
:10ACE4009C32002088300300343B0020F59F020092
:10ACF400C03C0020A43F0020C8FD02005CFF02000D
:10AD04007C3F002070FF0200DAFD0200A43E002018
:10AD14004CFF0200903F0020E8FD0200BC3E0020F2
:10AD24000121C44801F0C8FA4FF6E0720121C1487C
:10AD340001F07AFA19220121BE4801F087FABE4ACD
:10AD4400BC48012101F0A6FABC4ABA48012101F02D
:10AD54008FFAB923CDE90143A023009302220F23E4
:10AD6400B749B44801F0E4FAB64AB248022101F006
:10AD740057FBB54AAF48022101F040FB4FF40042B3
:10AD84000221AC4801F016FB42F29F420221A9487D
:10AD940001F022FB12220221A64801F053FBE12319
:10ADA400CDE90143C323009302220F23A749A148FD
:10ADB40001F0F2F9052202219E4801F07DFA4FF6D6
:10ADC400E07202219B4801F02FFA192202219948CE
:10ADD40001F03CFA984A9748022101F05BFAE62414
:10ADE4004FF4827741269A4A9248022101F040FAB0
:10ADF4000F23CDE901670094032296498D4801F0A1
:10AE040097FA904A8B48032101F00AFB924A894839
:10AE1400032101F0F3FA4FF400420321854801F0C5
:10AE2400C9FA42F29F420321824801F0D5FA4FF455
:10AE34009275122203217F4801F004FBCDE90165DC
:10AE44004FF483760F23042284490096794801F055
:10AE54006FFA7C4A7748042101F0E2FA804A754887
:10AE6400042101F0CBFA4FF400420421714801F0AF
:10AE7400A1FA42F29F4204216E4801F0ADFA4FF06C
:10AE8400A708122204216B4801F0DCFA432302973D
:10AE9400CDE9004805227349664801F049FA694A38
:10AEA4006448052101F0BCFA6F4A6248052101F0AB
:10AEB400A5FA4FF4004205215E4801F07BFA42F204
:10AEC4009F4205215B4801F087FA12220521594867
:10AED40001F0B8FA4323062264490096CDE90185BE
:10AEE400544801F025FA574A5248062101F098FACD
:10AEF4005D4A5048062101F081FA4FF400420621D0
:10AF04004C4801F057FA42F29F420621494801F0A9
:10AF140063FA12220621474801F094FA0297C427E3
:10AF2400A923CDE9004707225149424801F000FA1C
:10AF3400444A4048072101F073FA4E4A3D4807212C
:10AF440001F05CFA4FF4004207213A4801F032FA6A
:10AF540042F29F420721374801F03EFA12220721AC
:10AF6400344801F06FFAA923082243490096CDE939
:10AF74000175304801F0DCF9324A2E48082101F00D
:10AF84004FFA3E4A2B48082101F038FA4FF40042A8
:10AF94000821284801F00EFA42F29F420821254870
:10AFA40001F01AFA12220821224801F04BFAD623A2
:10AFB400CDE900430922C623314C324902951D488C
:10AFC40001F0B6F94FF4084209211A4801F004FAD5
:10AFD40020882D49000440F00300FBF7DFFC2088A3
:10AFE4002A49000440F00300FBF7D8FC20882849D4
:10AFF400000440F00300FBF7D1FC2088254900043D
:10B0040040F00300FBF7CAFC20882349000440F009
:10B014000300FBF7C3FCFFF7E3F9064800F0BCFDAF
:10B0240001F06EF8FBF758FB0028F9D1FDF79CFB03
:10B03400F6E700BFA43F00205CFF020046FF0200C9
:10B04400683F002070FF0200F8FD0200103B002062
:10B0540034FF0200403F00200CFE0200043F0020A9
:10B0640013FE0200543F002019FE0200183F002086
:10B07400DC3E002048FF02002C3F00201DFE0200A1
:10B0840058320020F03E00201FFE02003FFE020066
:10B094007AFE0200A7FE0200DEFE02001FB589B29E
:10B0A40080B25B1A121AADF80800ADF80E300C48E5
:10B0B400ADF80A1001230093ADF80C20BDF8183048
:10B0C4000068002202A9FDF75AFD20B1054A42F2A8
:10B0D4008901FBF753FF002005B05DF804FB00BFB6
:10B0E400E43F002084FF02001FB5ADF80A300123BD
:10B0F400ADF80C300B4BADF80400ADF80610ADF80C
:10B10400082001A9BDF818201868FDF7B4FC20B187
:10B11400054A42F27B01FBF731FF002005B05DF8E0
:10B1240004FB00BFE43F002084FF020007B5064B88
:10B13400ADF80400ADF80610186801A9FDF796FCF7
:10B1440003B05DF804FB00BFE43F002038B5818004
:10B15400C2800539053A09B212B21C461C4B036081
:10B1640081844FF00413C2848183C28319491A4A2B
:10B174001A4D03620023C36283864386C386038712
:10B18400C363C0E91012C0E904338361C36480F867
:10B194005030436580F85830C36580F860302860CB
:10B1A4002046FDF75AFC20B10D4A41F22521FBF758
:10B1B400E5FE0C4B0C4A1C602B680C49DA64032234
:10B1C40083F8502083F858205965012038BD00BF0A
:10B1D40031B102000101FFFF00005D5CD83F002097
:10B1E40084FF0200E43F0020EDB00200A1B00200A1
:10B1F40082422DE9F3471E46B8BF034690460746F0
:10B20400BCBF984617468E42164ABDF828A0B8BF60
:10B214000B460C46BCBF34461E46136893F85810C0
:10B2240011F0020F914618D0CDF800A05D6D424692
:10B23400334621463846A84778B902B0BDE8F087BE
:10B24400D9F8003028461B685246214698470135F4
:10B254002DB2A845F4DA013424B2A642EDDB3D4612
:10B26400F7E700BFD83F00202DE9F04FDFF804A135
:10B27400DAF800C09CF850E087B01EF0020F0446D4
:10B284000D4616461F46BDF8408047D1321B12B208
:10B294007B1B1BB282EAE271002AA1EBE27183EA12
:10B2A400E379CCBF01224FF0FF32002BA9EBE37905
:10B2B400CCBF01234FF0FF3303910493DAF800303D
:10B2C400BDF90C7005920FFA89F61B6842462946AF
:10B2D40020469847B7422BDADFF898B077104FF042
:10B2E400000A0FFA8AF39E421FDD039B1F44BBB280
:10B2F4001FB2BE4205DCA3EB0907059B1C443FB209
:10B3040024B2049B1D44DBF800302DB21B68424676
:10B314002946204698470AF1010AE2E7CDF8008061
:10B32400DCF84C90C8470028B0D107B0BDE8F08FD6
:10B33400DFF840B07E104FF0000A0FFA8AF39F4204
:10B34400F3DD4E44B3B21EB2B74205DC039A9E1A33
:10B35400049B1D4436B22DB2059B1C44DBF800301F
:10B3640024B21B6842462946204698470AF1010A3E
:10B37400E3E700BFD83F00202DE9F341BDF820509A
:10B3840000951C46804617460B460E46FFF76CFF99
:10B3940023463A46214640460095FFF765FF23467B
:10B3A4004246314640460095FFF75EFF23463A4643
:10B3B40031463846089502B0BDE8F041FFF754BF66
:10B3C4002DE9F04F89B09846D628BDF8483002914F
:10B3D400074611460093139C55D047D8B52858D03A
:10B3E400C42854D0B02808BFF8276389BAB29A4257
:10B3F40039D3A089904236D3B4F9062095B2002DF2
:10B4040031D0680720694FEAD50618BF013608B164
:10B41400FD1A455D88B201909F48D0F800C09CF8A1
:10B4240060E01EF0020F00F09880019B2289DCF896
:10B434005C900298013B1344029A013A2A441BB2DD
:10B4440012B2C84723798146002B4AD16289BA1ABD
:10B45400B4F90870574377439B46B4F908101FFAB0
:10B464008BF28A423ADB09B0BDE8F08FE4280CD0B5
:10B4740003D8DC2808BF9A27B7E7F6280BD0FC28A6
:10B4840008BF8127B1E79927AFE78427ADE78E2767
:10B49400ABE7E627A9E79427A7E72168431CA2F1B5
:10B4A400080A095C01931FFA8AFA72B1CDE9021203
:10B4B400C9074CBF40460098C847DDE90212013A6B
:10B4C40092B252454FEA5101EFD10198C11B89B2A2
:10B4D4008E42E2D837440BF1010BBEE738462A46C8
:10B4E400F4E7012BBFD16689BF1BB4F90860774329
:10B4F400B4F906605FFA88FA7E430027B4F908209D
:10B50400BBB29342AFDA32469DF800B01CE0236828
:10B51400511C13F802C001910099CCF5807E01F40E
:10B524007F4008F47F430EFB00F00EFB0BF20CFB94
:10B5340003000CFB0A220012C2F3072200F47F402E
:10B544001043C84701990A46931B9BB2AB42DED312
:10B55400B4F9063001371E44D0E72179002949D1D6
:10B56400B4F90820DDF804A00790FF1A5743774385
:10B57400019BB4F90820AAEB03039BB29342BFF6E4
:10B5840072AF0FFA8AF2BDF8089004923B46AB46BC
:10B59400DA1B92B2B24205D30AF1010A37441FFA08
:10B5A4008AFAE5E75A1C06922268D35C039309F1F0
:10B5B40008039BB20593BBF1000F19D0079B039AB4
:10B5C4001B6804991B68D2070FFA89F04CBF4246E6
:10B5D400009A9847039B5B08039309F10109059BB3
:10B5E4001FFA89F90BF1FF3B4B451FFA8BFBE2D1A4
:10B5F400069BCDE701297FF436AFB4F90860FF1A42
:10B60400774302FB07F65FFA88F3019F0593019BDA
:10B61400B4F90820FB1A9BB29342BFF624AFBDF8DD
:10B624000830DFF874A00393B1461FFA89F0B1B271
:10B63400431A9BB2AB4205D3B4F9063001371E441A
:10B64400BFB2E4E723689DF8002013F809E0059BE6
:10B65400CEF5807B0BFB02F20EFB0322C2F3072321
:10B66400009A049302F47F4C039A0BFB0CFC511ACE
:10B6740008F47F43DAF800200EFB03C3D2F800B0CD
:10B68400049A1B1203F47F4308441A4339B200B2EC
:10B69400D84709F10109C8E7D83F00202DE9F04F48
:10B6A40041680B6889B0054633B3076827B3B0F91E
:10B6B4000A00B5F90E30B1F908A01A1A52451BDB7D
:10B6C4007E1E012216F8014FCCB995F81480B5F905
:10B6D4001840059418F0300680B215D00133BDF837
:10B6E40014401AFB02F61B1A013A9B1B12FB04F2CC
:10B6F4009B1A1BB2002B08DA09B0BDE8F08F0A2CA4
:10B7040004BF013292B2DDE7334618F0100F18BFC0
:10B714005B1003441EB2CB88B5F90C2006932B8929
:10B724000393531C039AB5F9164004949B1A079388
:10B734003C46002314F8012B0AB10A2A1CD1BDF897
:10B7440010B0A3EB0B04079B1C1B24B2002CD3DB0F
:10B7540018F0010F26D118F0020F00D06410039BDB
:10B7640017F8019B1C44B9F10A0F24B21CD1059BA4
:10B7740053441E4436B2DBE7686841891FFA82FCF1
:10B784008C45D7D3B0F80CE0E645D3D3006938B183
:10B79400521A825C04990B4412FA83F39BB2C9E7F0
:10B7A400069AF7E70024DAE7B9F1000FA4D06A6833
:10B7B40001926A8A2B8A0092214632464846FFF754
:10B7C400FFFD6B681A6932B15B89A9EB030912F8B2
:10B7D40009305C44C4E7069BFBE74368027803EB4B
:10B7E4004212934201D1002006E01846203301782A
:10B7F40001F003010329F4D1704730B5436804789C
:10B8040003EB4414A34201D1002030BD1D7805F0A0
:10B814000305022D184605D11D7E8D4202D15D7EA1
:10B824009542F2D02033EDE7F0B52D4B07781B6835
:10B83400B3F90A50B3F90C6093F808C00024A3B21A
:10B844009F4200D8F0BD6201D0F804E00EEB020183
:10B854001EF802204B7802F04B020A2A29D103F089
:10B864004002BCF1000F27D0B5F1FF3F24D01AB934
:10B8740003F0670343F00503B1F908E0AE4503F0B4
:10B88400DF0214DCB1F90CE0AE4510DBB1F90AE0DB
:10B89400B6450CDCB1F90EE0B64508DB13F0400FF9
:10B8A4000ABF03F0DB0342F0200243F0220242F01D
:10B8B40040034B700134C2E7002AFAD09A060CD533
:10B8C4009A0748BF43F0800343F008035A0648BF71
:10B8D40043F0010303F0B903EBE743F01003F5E78A
:10B8E400D83F00202DE9F84390F800800646002553
:10B8F400ABB2984501D8BDE8F8836B017268D75C98
:10B90400D41807F00303022B12D1B90694F801905E
:10B9140003D563682146304698473A0708D53B0665
:10B9240006D519F0410F03D0636821463046984785
:10B934000135DDE72DE9F347154C00250223656049
:10B944002370077806460DF10408A146AA46ABB257
:10B954009F4202D802B0BDE8F08771686A018B1873
:10B9640001938A5C02F00302022A0ED19A7E62B12C
:10B97400197E5B7EA370C4F80480336B6170E2703F
:10B9840048469847019B83F81AA00135DFE700BFBA
:10B99400DC3F00202DE9F04F87B09946109C93B20C
:10B9A40003F1FF3A0FFA8AFA0293238800930F46B1
:10B9B40090460B4652460546FFF756FCBBB203932E
:10B9C4005E1C1FFA89F303F1FF3B36B20FFA8BFBBF
:10B9D4000493638800932A465B4631462846FFF762
:10B9E40043FCA388009342464B4649462846FFF74A
:10B9F4003BFCE388009342465B4639464046FFF7EA
:10BA040033FCABB205935F1C029BA3F102083FB267
:10BA14000FFA88F823890093424633463146384664
:10BA2400FFF722FC039B9D1C049BA3F102092DB28A
:10BA34000FFA89F9638900933A464B4629463846FA
:10BA4400FFF712FCA389009352465B4659463846D9
:10BA5400FFF70AFCE389009352464B4631465046B1
:10BA6400FFF702FC059B9E1C029B36B2DA1E238A5A
:10BA7400009329462B46304612B2FFF7F5FB049B90
:10BA8400DF1E039B3FB2D91C638A009332463B46B8
:10BA9400304609B2FFF7E8FBA38A009342464B46BF
:10BAA40049463046FFF7E0FBE38A109342463B46A3
:10BAB4002946404607B0BDE8F04FFFF7D5BB07B5B0
:10BAC40002238DF803308DF800300B7E8DF80130A1
