:020000022000DC
:106000000000042061620200B9620200BB6202006B
:10601000BD620200BF620200C16202000000000017
:10602000000000000000000000000000C362020049
:10603000C562020000000000C7620200C9620200DF
:106040005DAA0200CF620200E9B70200D36202003B
:10605000D5620200D762020001B50200DB620200D5
:10606000DD620200DF620200E1620200E362020020
:10607000E5620200E7620200E9620200EB620200F0
:10608000ED62020039870200F1620200F362020051
:1060900079870200F762020011F10200FB62020040
:1060A000FD620200FF62020001630200036302005E
:1060B0000563020007630200CB620200CB620200AC
:1060C000096302000B6302000D6302000F6302000C
:1060D00085BA020013630200156302001763020011
:1060E000196302001B6302001D630200CB62020001
:1060F000CB62020021630200CB6202001F63020038
:10610000364937480A1A02D0072291438D4635494D
:1061100035480A1A06D00722914381F309880222E2
:1061200082F3148831483249324A00F045F8324847
:106130003249334A00F040F832483349334A00F0DC
:106140003BF833483349344A00F036F83348344991
:10615000344A00F031F834483449354A00F02CF81C
:1061600034483549354A00F027F83548354900228A
:1061700000F02DF834483549002200F028F8344862
:106180003449091A082903DB002202600430016047
:10619000314A90471F482049884205D002680430A0
:1061A00003B4904703BCF7E700208646EC46002086
:1061B00000212A4A9047FEE7884207D0521A05D0AC
:1061C000037801300B700131013AF9D170478842F0
:1061D00002D002700130FAE770470000000004208E
:1061E00000E003200000042000000420CC1803007D
:1061F00054320020DC3200202463020024630200B9
:10620000BAF80200CC1803005432002054320020A7
:1062100098F9020098F9020098F9020098F9020032
:1062200098F9020098F9020098F9020098F9020022
:10623000CC18030054190300DC320020DC320020AB
:10624000DC320020BA3C0020BC3C0020BC3C0020DA
:10625000BC3C0020BC5C002085620200D5EB020043
:106260000F484FF00701884385460E4880470E4887
:10627000016841F470010160BFF34F8FBFF36F8F6E
:10628000FFF73EBF09480A490A4A884207D0521A16
:1062900005D0037801300B700131013AF9D1704714
:1062A00000000420B19B020088ED00E064F90200C8
:1062B0002032002054320020FEE7FEE7FEE7FEE732
:1062C000FEE7FEE7FEE7FEE7FEE7FEE7FEE7FEE7A6
:1062D000FEE7FEE7FEE7FEE7FEE7FEE7FEE7FEE796
:1062E000FEE7FEE7FEE7FEE7FEE7FEE7FEE7FEE786
:1062F000FEE7FEE7FEE7FEE7FEE7FEE7FEE7FEE776
:10630000FEE7FEE7FEE7FEE7FEE7FEE7FEE7FEE765
:10631000FEE7FEE7FEE7FEE7FEE7FEE7FEE7FEE755
:04632000FEE700BFD5
:1063240000B5A1B00590049103920293049803F080
:1063340016FA039B1593029B1693002317930023CD
:106344008DF8603000231993229B1A9300231F9326
:106354000FA91F9B0C22049803F0BCFA0C231F9373
:10636400119B1293BDF84030ADF84C30BDF842306B
:10637400ADF84E3000238DF851309DF83C3003F0D9
:106384000303DBB2012B26D10F9BC3F395231C938C
:106394009DF83C30C3F3C203DBB28DF85030BDF836
:1063A4003C30C3F38313DBB21B931B9B9A0009A9F4
:1063B4001F9B049803F08EFA1B9B9B001F9A1344A7
:1063C4001F9312AA09A915AB009313461B9A1C9894
:1063D40001F0A8F82FE09DF83C3003F00303DBB292
:1063E400022B28D1BDF83E30C3F389139BB21E9310
:1063F4009DF83C30C3F3C203DBB28DF850301E9BD2
:10640400082B28BF08231D9307A91F9B1D9A0498D6
:1064140003F060FA1F9A1D9B13441F931E9A1D9B41
:10642400D31A1E9315AB12AA07A81D9901F01CF9E3
:106434001E9B002BE3D1049803F0A0F900BF21B008
:106444005DF804FB00B583B00190019B1B781A46EC
:106454000C4B9B5C002B05D0019B0433184606F0C3
:1064640053FD0BE0019B1B781A46064B9B5C002BEB
:1064740004D1019B0C33184605F0E6FE00BF03B0BF
:106484005DF804FBD839002000B587B00390029171
:1064940013468DF8073000230593039B1B781A4697
:1064A400114B9B5C002B09D0039B04339DF8072000
:1064B4000299184606F056FD05900FE0039B1B78E1
:1064C4001A46094B9B5C002B08D1039B0C339DF8A7
:1064D40007200299184605F02DFF0590059B1846E4
:1064E40007B05DF804FB00BFD839002082B00190EA
:1064F4000091034B01221A7000BF02B0704700BF25
:106504001C33002030B58DB003468DF807301A4B8C
:1065140002AC1D460FCD0FC495E80F0084E80F00B0
:10652400062302934FF0FF3303934FF0FF3304939A
:106534004FF0FF3305934FF0EB7308939DF807304A
:10654400002B01D00D4A00E0002202AB19460C4892
:1065540004F0A0F80B900B9B0A930A9B002B04D029
:10656400084A43210A9801F03BFB074A9DF807308B
:10657400137000BF0DB030BD10FA0200F1640200C8
:106584005432002098F902001D33002000B583B076
:1065940001238DF807309DF807301846FFF7B2FF46
:1065A40000BF03B05DF804FB00B589B0039002910D
:1065B4000192019B8DF81F30124B00221A709DF836
:1065C4001F301A4602991048FFF75EFF0690069B9B
:1065D4000593059B002B04D00C4A5321059801F028
:1065E400FFFA00BF0A4B1B78002B07D0054B1B7822
:1065F400DBB283F00103DBB2002BF3D100BF09B09F
:106604005DF804FB1C3300205432002098F902008A
:106614001D33002000B585B003900291054B009313
:106624004023054A02990398FFF77AFE00BF05B09C
:106634005DF804FBAD650200DC32002082B00190FD
:1066440000BF02B07047000000B583B00190054858
:10665400FFF7F8FE0020FFF755FF00BF03B05DF819
:1066640004FB00BF5432002082B00190019B012240
:106674005A7200BF02B0704700B583B04FF0FF33C9
:106684000193FFF783FF0421084800F003FE019003
:10669400019B002B03DA0649482002F0EEF9034877
:1066A400FFF7E2FF00BF03B05DF804FB683200208F
:1066B4003CFA020000B583B001900091019B1B6875
:1066C4001B6800990198984700BF03B05DF804FB6C
:1066D40000B583B00190019B1B685B6801989847E3
:1066E40000BF03B05DF804FB00B583B00190019BCB
:1066F4001B689B680198984700BF03B05DF804FBD2
:1067040082B001900B468DF80330019B9DF8032065
:106714001A7200BF02B0704782B00190019B1B7ACD
:10672400184602B0704782B00190019B01225A7250
:1067340000BF02B0704782B00190019B5B7A18469B
:1067440002B0704700B587B001900091019B002B07
:1067540001D107233DE0214BFF229A601F4B002209
:106764001A601E4B00225A601C4B0022C3F81824E6
:106774001A4B0022C3F81424184B002283F8202457
:10678400009800F0E5FF154A019BC2F80C34144848
:1067940002F04AFF0490049B002B01D0049B18E0F4
:1067A400104A114BD31ADB080393002305930BE023
:1067B400059B9B000D4A13440293059B9AB2029BCE
:1067C4001A80059B01330593059A039B9A42EFD3E4
:1067D4000023184607B05DF804FB00BFF033002027
:1067E40034F9020034F90200CCF80200203200200F
:1067F400024A034BD31ADB081846704734F90200E7
:10680400CCF8020000B587B001900B468DF8033038
:106814009DF80330002B1FD0FFF7EAFF04900023FC
:10682400059313E0059B9B000E4A13440393039BBB
:106834005B881A46019B1B689A4204D1019B059A06
:106844001A60002309E0059B01330593059A049B14
:106854009A42E7D3052300E00023184607B05DF809
:1068640004FB00BF2032002000B585B001900B4628
:106874008DF803309DF8032001AB11461846FFF74D
:10688400C1FF0346002B07D1019BDB00054A1344DB
:106894000393039B1B6800E00023184605B05DF8D2
:1068A40004FB00BFCCF8020084B001900B468DF8C5
:1068B4000330019BDB00174A134402939DF8033015
:1068C400013B032B1CD801A252F823F0E16802001B
:1068D400E9680200F1680200FB68020002238DF8F7
:1068E4000F3011E004238DF80F300DE0029B1B796B
:1068F4008DF80F3008E0029B5B798DF80F3003E0D0
:1069040000238DF80F3000BF9DF80F30184604B0F7
:10691400704700BFCCF8020000B585B0019000912B
:1069240000238DF80F30019B1B7803F00303DBB2C7
:10693400002B06D0019B1B7803F00403DBB2002B71
:1069440044D0019B1B7803F00403DBB2002B28D056
:10695400019B1B78C3F30103DBB2012B02D0022B92
:106964000CD017E0009B1B68019A1288C2F38312B3
:10697400D2B21344DA1C009B1A6024E0009B1B680B
:10698400019A5288C2F3891292B21344DA1C009B12
:106994001A6018E010494FF4A47002F06EF800BFBA
:1069A40011E0009B1A68019B5B88C3F389139BB2B7
:1069B4001946019B1B88C3F389139BB20B441344F0
:1069C4005A1C009B1A6001238DF80F309DF80F307C
:1069D400184605B05DF804FBD0FA020000B58BB090
:1069E4000023ADF826303E4802F0D5F83D4802F0C9
:1069F400D2F83D4B5B6804933B4B9B680693049A27
:106A0400069B134002339B00374A13440433089314
:106A140004AB19460898FFF77FFF0346002B09D003
:106A2400049A069B134002339B002F4A13440433F9
:106A34000893EDE700BF0023079311E0049B5A1C61
:106A44000492069A1340079A920001A90A4426491F
:106A540002339B000B445B681360079B013307936D
:106A6400079B022BEAD99DF80430C3F30103DBB280
:106A7400012B10D0022B1CD1BDF80A30ADF8263002
:106A8400BDF80630C3F389139BB203339A08049B01
:106A94001344049313E0BDF80A30ADF82630BDF872
:106AA4000430C3F38313DBB21A46049B13440493E8
:106AB40005E00E494FF4C27001F0DFFF00BF094842
:106AC40002F075F80590059B002B02D0049B064A42
:106AD4005360BDF8263018460BB05DF804FB00BFC8
:106AE4000838002004380020F0330020D0FA0200D7
:106AF40000B585B00021074801F0D6FF0390039B41
:106B04000293029B83F310030193019B184605B083
:106B14005DF804FB0C38002010B588B00390029196
:106B240001920093039B1B0C0793FFF7E1FF069070
:106B3400FFF75EFE0246079B934204D3284940F2C6
:106B4400A91001F09AFF069B1904009B5A1C0A9B8A
:106B54001340079A0A43234902339B000B445A60AB
:106B6400204BD3F80C34009A911C0A9A01EA0204CF
:106B7400984701461B4AA31C9B0013445960009A82
:106B84000A9B134002339B00164A134404330593B3
:106B9400039B03F00703D9B2059A137861F3C50385
:106BA4001370019B03F00F03D9B2059A138861F3A4
:106BB40089131380029BC3F31501059A136861F3CB
:106BC4009F231360059A1378012161F30103137065
:106BD400059A13786FF38203137000BF08B010BDD9
:106BE400D0FA0200F033002000B58DB0039002917A
:106BF40013468DF80730039B03330A9301238DF862
:106C0400273000238DF81B300DF11B03184601F0CB
:106C1400E7FE404B1A68029B1A603E4B9A683D4B54
:106C240059683C4B1B68CB1A134401330B9314E093
:106C34000121394801F07FFFFFF7D0FE0790079943
:106C4400354801F078FF334B9A68324B5968314B21
:106C54001B68CB1A134401330B930A9A0B9B9A4279
:106C6400E6D89DF82730002B48D0002305939DF8E3
:106C74000730002B17D09DF81430012262F3010372
:106C84008DF814309DF8143043F004038DF814305B
:106C9400039B03F00F03DAB2BDF8143062F38913D7
:106CA400ADF8143016E09DF81430022262F30103AB
:106CB4008DF814309DF8143043F004038DF814302B
:106CC400039BC3F309039AB2BDF8163062F38F1322
:106CD400ADF816300F4B1A680E4B9B681340023305
:106CE4009B000C4A134404330893059A089B1A60CA
:106CF400084B1A680A9B1344064A13609DF81B301C
:106D0400184601F083FE9DF8273018460DB05DF853
:106D140004FB00BFF03300200C38002000B58BB01A
:106D240005900491039202931F4B9B68079306AB53
:106D3400012219460298FFF757FF0346002B24D07F
:106D4400069B033309930023089311E0089B9B00DF
:106D5400039A1A44099B591C099107990B4012681C
:106D6400114902339B000B445A60089B013308937A
:106D7400089A029B9A42E9D3069A079B009313460A
:106D8400029A04990598FFF7C7FE074B93F820343D
:106D9400002B05D000BF00F081F80346002BFAD188
:106DA40000BF0BB05DF804FBF033002000B583B0E6
:106DB400019000910023002200990198FFF7AEFF93
:106DC40000BF03B05DF804FB00B587B003900291E7
:106DD4000192019B059305AA012302990398FFF7E9
:106DE4009DFF00BF07B05DF804FB00B587B00390BA
:106DF400029101920093019B0493009B059304AAC2
:106E0400022302990398FFF789FF00BF07B05DF8DA
:106E140004FB00B58BB00390029101920093019B97
:106E24000593009B06930C9B07930D9B08930E9B65
:106E3400099305AA052302990398FFF76FFF00BF82
:106E44000BB05DF804FB00B58BB003900291019286
:106E54000093019B0493009B05930C9B06930D9B4D
:106E640007930E9B08930F9B099304AA0623029988
:106E74000398FFF753FF00BF0BB05DF804FB00005D
:106E8400054B5A68044B1B689A420CBF012300232C
:106E9400DBB21846704700BFF033002000B599B04C
:106EA400FFF7EEFF0346002B01D00023B4E1984B1B
:106EB4000022C3F81824BFF34F8F954B5B680493EB
:106EC400934B9B681093049A109B134002339B00CE
:106ED4008F4A134404331293002317930023169309
:106EE40000230F9304AB19461298FFF715FD0346D0
:106EF400002B14D0864B1A68049B9A4205D8844B05
:106F04001B68834A5360002386E1049A109B134054
:106F140002339B007E4A134404331293E2E700BF1A
:106F24000023159311E0049B5A1C0492109A1340F9
:106F3400159A920001A90A44754902339B000B4437
:106F44005B681360159B01331593159B022BEAD9DB
:106F54009DF8043003F00303DBB2022B40F09C8065
:106F6400BDF80630C3F389139BB20D93BDF8063008
:106F7400C3F389139BB2502B28BF50239BB20C93AD
:106F84000C9BC3F309039AB2BDF8063062F38F1366
:106F9400ADF806300C9B0C330B939DF80430C3F30F
:106FA400C203DBB20F930B995A4802F048FB1790C7
:106FB400179B002B00F0D080179802F0D0FB01A99A
:106FC400169B0C22179802F073FC169B0C33169335
:106FD400049BDA43109B134001339B000A930C9AE1
:106FE4000A9B9A4242D90A9B002B08D0049A109B10
:106FF400134002339B00464A1344043300E0464BDB
:1070040008930A9B002B02D00A9BDBB201E00C9B85
:10701400DBB28DF81F300A9B002B01D03E4B00E001
:10702400002306930A9B002B06D00C9BDAB20A9B22
:10703400DBB2D31ADBB200E000238DF817309DF8E1
:107044001F20169B0899179802F032FC9DF81F30F8
:10705400169A13441693069B002B16D09DF81720FE
:10706400169B0699179802F023FC0EE0049A109BD5
:10707400134002339B00264A134404330993169B9E
:107084000C9A0999179802F013FC0D9B03339A0884
:10709400049B134404935FE09DF8043003F003035E
:1070A400DBB2012B58D1BDF80430C3F38313DBB238
:1070B400062B28BF0623DAB2BDF8043062F3891325
:1070C400ADF80430BDF80430C3F38313DBB20333EB
:1070D4000E939DF80430C3F3C203DBB20F930E9BEF
:1070E4009B0019460B4802F0AAFA1790179B002B35
:1070F40032D0179802F033FB01A9169B0C22179883
:1071040002F0D6FB169B0C331693002315931AE05A
:10711400F033002034F90200FC330020049B5A1C95
:107124000492109A134002339B003D4A1344191DE4
:10713400169B0422179802F0BBFB169B043316938C
:10714400159B01331593BDF80430C3F38313DBB2ED
:107154001A46159B9342E1D3179B002B3FD0304B2B
:10716400D3F8103414932E4BD3F81834002B1AD0C0
:10717400179802F003FB49E000238DF84F30149870
:10718400FFF7D9FA0346002B02D001238DF84F30C4
:107194009DF84F30002B03D017991498FFF78AFA03
:1071A400149B5B681493149B002BE5D1179802F091
:1071B400E5FA00238DF803300DF10303184601F0BE
:1071C4000FFC174BD3F81834002B02D1049B144A3C
:1071D40053609DF80330184601F018FC16E0104B7C
:1071E400D3F81034119305E01198FFF77DFA119B41
:1071F4005B681193119B002BF6D10A4B1B881B046F
:1072040043F0020308491846FFF7D0FDFFF738FEA4
:10721400034683F00103DBB2184619B05DF804FBA2
:10722400F03300203832002044FB020000B585B062
:107234000023039322E0164BD3F810340293012366
:107244008DF807300EE00298FFF766FA03461A46F7
:10725400039B934203D100238DF8073005E0029B82
:107264005B680293029B002BEDD19DF80730002B45
:1072740001D0039B07E0039B01330393039B092B7A
:10728400D9DD4FF0FF33184605B05DF804FB00BFAD
:10729400F033002000B585B001900B468DF8033023
:1072A400FFF7C4FF0390039BB3F1FF3F01D1039B9E
:1072B4001EE0039BDBB219460198FFF721FA0E4B3F
:1072C400D3F81034002B07D10B4A019BC2F81034B9
:1072D400019B00225A600AE0074BD3F810345A6825
:1072E400019B5A60044BD3F81034019A5A60039BF3
:1072F400184605B05DF804FBF033002000B583B0F8
:107304000C4BD3F8103401930A4B012283F8202448
:1073140008E00198FFF707FA0198FFF7D9F9019BF4
:107324005B680193019B002BF3D100BF03B05DF8B0
:1073340004FB00BFF033002000B58DB0059004912C
:107344002F4B1B68049AB2FBF3F304932D4B1B6879
:10735400049AB2FBF3F30B930B9B2B4AA2FB03237C
:10736400DB0A0A930A9B4FF4616202FB03F30B9A54
:10737400D31A0B930B9B254AA2FB03235B090993A6
:10738400099A13461B019B1A9B001A460B9B9B1AD6
:107394000B931C4B1A68049BB3FBF2F102FB01F242
:1073A4009B1A0893089B4FF47A7202FB03F2154B65
:1073B4001B68B2FBF3F30793089B4FF47A7202FB4A
:1073C40003F2104B1B68079901FB03F3D31A4FF424
:1073D4007A7202FB03F20B4B1B68B2FBF3F30693C6
:1073E400069B0293079B01930B9B0093099B0A9AAC
:1073F4000749059801F01AFD00BF0DB05DF804FBC4
:107404001838002014380020C5B3A29189888888D0
:10741400C0FB020010B584B003900291039BDB888B
:10742400002B0AD0039BDB881A461F4B009313469C
:107434001E4A1F49029801F0F9FC039B1B7A052B95
:107444002ED0039B5B7A002B12D0039B9B881A4699
:10745400039B1B7A19461046FFF726FA03461A4681
:10746400144B53F822301A461349029801F0DEFCFB
:10747400039B1B6819460298FFF75EFF039B1B7A68
:107484001A460E4B53F82240039B9B880021184652
:10749400FFF7EAF9034622460949029801F0C6FCBF
:1074A40000BF04B010BD00BF78FB020088FB0200DF
:1074B400DCFB020088320020F4FB0200743200205E
:1074C400F8FB020000B585B00390029113468DF8D5
:1074D4000730039B1B7A052B0FD0039B5B7A002B91
:1074E40006D00D4B1B681A460C49029801F09EFC0D
:1074F4000B49029801F09AFC07E09DF80730002B35
:1075040003D00749029801F091FC029801F06CFC49
:1075140000BF05B05DF804FB88320020F4FB0200D4
:1075240004FC020030B58BB00790069105920493D9
:107534000E9B1B7B8DF827300E9B00221A730E992D
:107544000498FFF767FF059B062B7FD801A252F82A
:1075540023F000BF757502007F7502008F7502006D
:10756400A3750200C1750200E975020019760200D4
:1075740007990E9801F05AFC69E0069B1B681A46AD
:1075840007990E9801F052FC61E0069B1A68069B6D
:1075940004331B6807990E9801F048FC57E0069BDA
:1075A4001A68069B04331968069B08331B6800930A
:1075B4000B4607990E9801F039FC48E0069B1968C0
:1075C400069B04331868069B08331B68069A0C3222
:1075D40012680192009303460A4607990E9801F037
:1075E40025FC34E0069B1868069B04331C68069B44
:1075F40008331B68069A0C32126806991031096820
:107604000291019200932346024607990E9801F0D5
:107614000DFC1CE0069B1C68069B04331D68069B3E
:1076240008331B68069A0C321268069910310968EF
:1076340006981430006803900291019200932B463F
:10764400224607990E9801F0F1FB00E000BF0022EA
:107654000E990498FFF736FF0E9B9DF827201A73A6
:1076640000BF0BB030BD00BF00B587B003900291DE
:1076740001920093029B082B5CD8009B1B7B8DF826
:107684001330009B00221A7300990198FFF7C2FE81
:107694000023059314E0059A029B9A4209D2039AA7
:1076A400059B13441B781A462449009801F0BEFB3D
:1076B40003E02349009801F0B9FB059B01330593CE
:1076C400059B072BE7D91F49009801F0AFFB002366
:1076D400059322E0059A029B9A4217D2039A059BCE
:1076E40013441B788DF812309DF81230184608F0B8
:1076F4001BF80346002B02D09DF8123000E02E2325
:107704001A461149009801F091FB03E00F490098D3
:1077140001F08CFB059B01330593059B072BD9D9FD
:10772400012200990198FFF7CDFE009B9DF81320DC
:107734001A7300E000BF07B05DF804FB08FC020008
:1077440010FC020014FC020018FC02001CFC0200E5
:1077540082B001900A4B01221A6007E0019B5B088A
:107764000193074B1B685B00054A1360019B054AA4
:107774009342F3D8044A019B136000BF02B07047E0
:107784001838002040420F00143800202DE9F04F33
:1077940089B0019000238DF81F3099E0524B1A688C
:1077A4009DF81F30DB0013440693069B1B78194693
:1077B4004FF001024FF00003A1F1200CC1F12000B1
:1077C40003FA01F902FA0CFC49EA0C0922FA00F066
:1077D40049EA000902FA01F8CDE90489434BD3E9E7
:1077E4000001DDE9042302EA000A03EA010B5AEA74
:1077F4000B0368D0DDE904236FEA02006FEA03019A
:107804003A4BD3E900AB0AEA00020BEA0103374919
:10781400C1E90023069B1B78184603F055FE034676
:107824008DF80F30069B1B7819464FF001024FF07C
:107834000003A1F1200CC1F1200003FA01F502FAC2
:107844000CFC45EA0C0522FA00F0054302FA01F4A7
:10785400274BD3E9002304EA020A05EA030B9DF847
:107864000F204FF0000306990978A1F1200CC1F113
:10787400200003FA01F702FA0CFC47EA0C0722FA8B
:1078840000F0074302FA01F6BB4508BFB2451AD11E
:107894009DF80F30069A5278012A0CBF012200226B
:1078A400D2B293420CBF01230023DBB20293069BA6
:1078B4005B68002B07D0069B5B68069A12780299D6
:1078C400C9B2104698479DF81F3001338DF81F3018
:1078D400084B1B789DF81F209A42FFF45FAF00BF4E
:1078E40009B0BDE8F08F00BF1C38002050380020DC
:1078F400483800202038002070B586B001900A4630
:107904008DF803204FF001014FF000020198A0F11F
:107914002006C0F1200502FA00F401FA06F6344309
:1079240021FA05F52C4301FA00F3CDE90434304B78
:10793400184600F0BBFF0390039B002B54D12D4B42
:10794400D3E90012DDE9043403EA010504EA02067E
:1079540055EA060337D1019803F0B6FD0346002B20
:107964000CD0254BD3E90012DDE9043443EA0105C8
:1079740044EA0206204AC2E900560FE0DDE9043475
:107984006FEA03016FEA04021B4BD3E9005605EAD0
:10799400010306EA0204184AC2E90034154BD3E98C
:1079A4000012DDE9043443EA010544EA0206114AFF
:1079B400C2E900560E48114B1B680022194600F01C
:1079C40043FF039011E0DDE904346FEA03016FEA39
:1079D4000402084BD3E9005605EA010306EA02044F
:1079E400044AC2E9003400E000BF06B070BD00BF25
:1079F400283800205038002048380020243800203F
:107A040010B58AB003900B4601928DF80B30019BA0
:107A1400042B01D807235AE003F048FC034683F003
:107A24000103DBB2002B09D003F0EEFB0990099BA4
:107A34000893089B002B01D0089B48E0254A039B30
:107A44001360254A9DF80B301370244A019B136080
:107A5400234A4FF000034FF00004C2E90034214AE6
:107A64004FF000034FF00004C2E9003422E09DF817
:107A74000B30DB00039A1344079305AB00210A463D
:107A84001A800A469A7003238DF81430079B9B785A
:107A94008DF81530079B1B78184605AB124A19461A
:107AA40003F010FC0990099B0693069B002B01D060
:107AB400069B0CE09DF80B305A1E8DF80B20002B12
:107AC400D5D10A4A00210A4800F08EFE0346184622
:107AD4000AB010BD1C3800202038002024380020B3
:107AE4004838002050380020FD78020091770200C9
:107AF40020FC020000B583B0114B1B68002B03D19E
:107B04001049BA2000F0B9FF002301930CE00C4B9C
:107B14001A68019BDB0013441B780121184603F00B
:107B24004BFC019B01330193074B1B781A46019BC5
:107B34009342ECD30023184603B05DF804FB00BF66
:107B44001C38002024FC02002038002086B003905A
:107B54000291019201238DF817309DF817301F4AC6
:107B6400039B13601D4A029B53601C4A019B936054
:107B7400039B44F20102934212D044F20202934264
:107B840021D1019B154AD360144BDB681B881A462C
:107B9400124B9A61114BDB685B68104AD36112E0A7
:107BA400019B0E4A13610D4B1B699B680B4A536181
:107BB4000A4B1B691B68094A9361084B1B695B6884
:107BC400064AD36100BF72B600BF9DF81730DBB21E
:107BD400002BFAD162B600BF06B0704758380020B7
:107BE40000B583B002900091019244F20100714605
:107BF4006A4600F003F803B000BD00BF30B58BB097
:107C040007900691059272B6FFF778FB00BFFFF765
:107C140045F90346002BFAD1079B41F20102934236
:107C240019D041F20102934202D8012B09D057E046
:107C340044F20102934229D044F20202934214D046
:107C44004EE0344B1B881B0443F0010332491846B1
:107C5400FFF7ACF84FE02F4B1B881B0443F00103E4
:107C64002E491846FFF7A2F845E0059B0993294BD6
:107C74001B881B0443F001031846099B5B681A46E2
:107C8400099B1B882649FFF7B0F834E0059B08934D
:107C9400204B1B881B0443F001031D46089B9C6872
:107CA400089B9B68184601F01DFF03461846089B75
:107CB4005B681946089B1B68069A0292019300911F
:107CC4000346224617492846FFF7A3F8114B1B88A1
:107CD4001B0443F0010314491846FFF767F80AE050
:107CE4000C4B1B881B0443F00103069A0F491846EA
:107CF400FFF76AF800BF0E4B1B6803F00103002B6B
:107D040000D000BE059A06990798FFF71FFF00BF31
:107D14000BB030BD3832002084FC0200A4FC020009
:107D2400C8FC0200E4FC02000CFD020020FD02007D
:107D3400F0ED00E082B003468DF807309DF807307F
:107D440003F01F0205499DF907305B09012000FA81
:107D540002F241F8232000BF02B0704700E100E0C6
:107D640082B003468DF807309DF8073003F01F02F8
:107D740006499DF907305B09012000FA02F220331D
:107D840041F8232000BF02B0704700BF00E100E0CB
:107D940082B003468DF807309DF8073003F01F02C8
:107DA40006499DF907305B09012000FA02F24033CD
:107DB40041F8232000BF02B0704700BF00E100E09B
:107DC40082B003468DF807309DF8073003F01F0298
:107DD40006499DF907305B09012000FA02F260337D
:107DE40041F8232000BF02B0704700BF00E100E06B
:107DF40082B0034600918DF807309DF90730002BBF
:107E04000CDA009BDAB20C499DF8073003F00F033B
:107E1400043B5201D2B20B441A7609E0009BDAB259
:107E240006499DF907305201D2B20B4483F800236E
:107E340000BF02B0704700BF00ED00E000E100E0C9
:107E440000B585B00190019B002B0AD0074B43F08D
:107E540001030393019B9B010293039B02989847A0
:107E640000E000BF05B05DF804FB00BF40FD020068
:107E740000B583B00190064A019BC2F8083507217A
:107E84001120FFF7B5FF00BF03B05DF804FB00BF8E
:107E94000010014008B50D4B4FF48032C3F8442361
:107EA4000A4B4FF48032C3F804231120FFF788FFF4
:107EB4001120FFF73FFF054B01221A602F20FFF727
:107EC400BFFF034B01221A7000BF08BD0010014020
:107ED4009639002008B51120FFF742FF0E4B4FF4EE
:107EE4008032C3F848230C4B4FF48032C3F8082384
:107EF400094B01225A602F20FFF7A2FF064B0122F3
:107F04009A60064B00221A602F20FFF799FF044B5A
:107F140000221A7000BF08BD0010014088390020FB
:107F240096390020024BD3F804351846704700BF39
:107F34000010014082B001900091019A009BD31A75
:107F440023F07F43184602B07047000082B00190CE
:107F5400034A019BC2F8403500BF02B0704700BF1E
:107F64000010014086B00190284B1B68002B03D100
:107F7400264A019B136045E0019B1A68234B1B684A
:107F84001B689A4210D8214B1B681968019B1A6818
:107F94001E4B1B688A1A1A601C4B1A68019BDA6113
:107FA4001A4A019B13602DE0019B1B680393174B36
:107FB4001B680593154B1B68049309E0049B1B681D
:107FC400039AD31A0393049B0593049BDB690493DC
:107FD400049B002B04D0049B1B68039A9A42EDD89F
:107FE400049B002B05D0049B1A68039BD21A049BA4
:107FF4001A60019B039A1A60019B049ADA61059B3B
:10800400019ADA6100BF06B0704700BF84390020CE
:1080140000B587B001902A4B1B680393284B1B685B
:108024000593059B049308E0049A019B9A4208D0A7
:10803400049B0593049BDB690493049B002BF3D1FD
:1080440000E000BF049B002B01D1002333E0059A1C
:10805400049B9A4214D11A4B1B68DB69184A1360BB
:10806400174B1B68002B0BD1164B01229A60164B41
:1080740000221A60154B01221A702F20FFF7E0FE30
:10808400049B1B680293049BDA69059BDA61059BD8
:10809400DB690493049B002B05D0049B1A68029BA4
:1080A4001A44049B1A60064B1B68039A9A4214BF35
:1080B40001230023DBB2184607B05DF804FB00BFC0
:1080C40084390020001001408839002097390020AD
:1080D40008B51120FFF75CFE00BF08BD08B51420E9
:1080E400FFF756FE00BF08BD00B583B00190019BA9
:1080F4005B69019A92691046984700BF03B05DF826
:1081040004FB000000B585B02B4B1B68002B4ED040
:1081140000230193FFF706FF0246284B1B6819460C
:108124001046FFF707FF0290234B1B6803931DE0E3
:10813400039B1B68029A9A421CD3039B1B68029AF6
:10814400D31A0293039B1B68019A13440193039B64
:108154000093039BDB690393009B1B7C002B05D0DE
:10816400009B00221A740098FFF7BEFF039B002BAC
:10817400DED100E000BF124B1A78124B1B789A42F2
:108184000CD1104B1B780133DAB20E4B1A700D4B25
:108194001B78022B02D10B4B00221A70094B1B785F
:1081A4001946094A019B42F82130FFF797FF00BFA7
:1081B40005B05DF804FB00BF843900208839002035
:1081C40094390020953900208C39002082B0019028
:1081D400184B1A78184B1B789A4223D0154B1B78EE
:1081E4000133DAB2134B1A70124B1B78022B02D1F3
:1081F400104B00221A700F4B1B781A460F4B53F882
:108204002220019B1A60019B1A680D4B1B681344C2
:108214000B4A13600A4B1B6823F07F43084A136020
:10822400012303E0019B00221A600023184602B0D8
:10823400704700BF94390020953900208C39002004
:108244008839002088B0039002910192002307939B
:1082540038E0204B1B680693069B1B68039A9A42DE
:1082640006D2069B1A68039BD21A069B1A602DE05D
:10827400069B1B68039AD31A0393069B1B68079AF1
:1082840013440793069B00221A60124B1B68059344
:10829400069BDB690F4A1360069BDB68002B11D039
:1082A400029A079B134423F07F42069B5A60069B65
:1082B400DA68069B9A60019B1A68069BDA61019B47
:1082C400059A1A60034B1B68002BC2D100BF08B08B
:1082D400704700BF8439002000B589B001900023A5
:1082E4008DF81F30664B1B680593AAE0019B002B99
:1082F40005D0019B0693069BDB69019361E0614B0A
:108304001B781A4613465B001344DB005D4A134492
:10831400043304935B4B1B780133DAB2594B1A7064
:10832400584B1A78574B9B789A4202D1554B0022EE
:108334001A70049B5B680693049B1B78022B04D081
:10834400032B1BD0012B1FD01DE0049B5B68184638
:10835400FFF75EFE0346002B02D001238DF81F3089
:10836400069B00221A746CE0454B1B680393039B25
:1083740000221A74039BDB69414A1360404B1B685B
:10838400002BF1D15DE05CE000BF069B1B7C002B61
:1083940000D056E0049B9A68069B5A60049BDA68F6
:1083A400069B9A60049B1A69069BDA60049B5A69CF
:1083B400069B9A61344B1B78002B02D0069B00224B
:1083C4005A60069B5A68314B1B68D31A23F07F43CB
:1083D4002F4A93420ED8069B5A682C4B1B681946A9
:1083E4001046FFF7A7FD0246069B9B681A44069BAE
:1083F4001A6017E0254B1A68069B5B6819461046FD
:10840400FFF798FD0290069B9B68029A9A4206D257
:10841400069B9A68029BD21A069B1A6002E0069B8E
:1084240000221A60069B00225A60069B00229A6072
:10843400069B01221A74069B0022DA610698FFF754
:1084440091FD019B002B7FF451AF0E4B1A780D4B1D
:108454005B789A427FF44AAF9DF81F30002B04D119
:10846400074B1B68059A9A4201D0012300E00023C0
:1084740003F00103DBB2184609B05DF804FB00BF4A
:10848400843900207838002097390020883900206A
:10849400FEFF7F0010B588B00190274B1B68002BAE
:1084A40044D0254B1B681B680793FFF73BFD0690E0
:1084B400224B1B68059305990698FFF73BFD03467D
:1084C400033304931E4B1B7883F00103DBB2002BB0
:1084D40001D0FFF7DFFC049A079B934238BF134691
:1084E400059A13440593059B23F07F430593059850
:1084F400FFF72CFDFFF716FD039006990398FFF78D
:1085040019FD0346DC1C06990598FFF713FD034685
:108514009C420DD9FFF706FD03461846FFF716FDEA
:108524002F20FFF78DFCFFF7D3FD01E0FFF7D2FC0E
:1085340000BF08B010BD00BF843900208839002076
:108544009639002000B587B00023019300238DF8ED
:108554001730194B1B680493184B1B6803936B4625
:108564001846FFF733FE03468DF80B309DF80B30A9
:10857400002B08D0009B01AA04991846FFF762FE5D
:1085840001238DF81730019B1846FFF7A5FE03461B
:10859400002B02D001238DF817309DF81730002BE3
:1085A40002D00398FFF776FF054B00221A7000BF34
:1085B40007B05DF804FB00BF88390020843900202F
:1085C4009739002082B003468DF80730034A9DF89E
:1085D4000730537000BF02B0704700BF78380020E6
:1085E40084B00190144B5B7801338DF80F30124B3B
:1085F4009B789DF80F209A4202D100238DF80F300A
:108604000D4B1B789DF80F209A4201D100230FE0F7
:10861400019B9DF80F201A70074B5B781A4613468E
:108624005B001344DB00044A134404330293029BAB
:10863400184604B0704700BF7838002000B589B0F0
:1086440003900291019200930023079300238DF875
:1086540016300DF11603184600F0C2F90DF1170398
:108664001846FFF7BDFF0690069B002B02D104239A
:10867400079318E0069B01221A70069B039A5A601E
:10868400FFF750FC0246069B9A60069B029ADA604A
:10869400069B019A1A61069B009A5A619DF817304D
:1086A4001846FFF78FFF9DF81630184600F0AEF914
:1086B400079B002B01D1FFF711FD079B184609B05A
:1086C4005DF804FB00B587B001900B468DF80330CC
:1086D4000023059300238DF80E300DF10E03184688
:1086E40000F07EF90DF10F031846FFF779FF0490AF
:1086F400049B002B02D1042305930BE0049B9DF8FB
:1087040003201A70049B019A5A609DF80F30184692
:10871400FFF758FF9DF80E30184600F077F9059BD7
:10872400002B01D1FFF7DAFC059B184607B05DF872
:1087340004FB000008B50E4B0022C3F840210C4B8B
:108744000022C3F844210A4B0022C3F84821084BF5
:108754000022C3F84C21064B0022C3F80021044B2D
:108764000022C3F80421FFF7CDFC00BF08BD00BF01
:108774000010014008B5FFF7E5FE00BF08BD00008A
:1087840008B5FFF7A7FB134B00221A70114B002208
:108794005A70104B0B229A700F4B00221A600F4B29
:1087A40000221A700E4B00221A701420FFF708FBE7
:1087B40007211420FFF71CFB1420FFF7BBFA1F202E
:1087C400FFF756FBFFF7AEFB0246064B1A60002389
:1087D400184608BD783800208439002094390020D8
:1087E400953900208839002086B003900B46019209
:1087F4008DF80B30134B9B78002B01D108231EE01E
:10880400019B002B01D1072319E0039B002B01D10D
:10881400072314E0039B1B681B7C002B01D0082357
:108824000DE0039B1B680593059B00221A74059BAE
:108834009DF80B205A74059B019A5A61002318462F
:1088440006B070477838002000B587B003900291D5
:108854000192039B0593144B9B78002B01D10823B1
:108864001EE0039B002B01D1082319E0029B042B7B
:1088740001D8072314E0059B5B69002B01D1082371
:108884000EE0059B5B7C012B01D1029B00E00023E1
:108894000493019B049A02990598FFF7CFFE0346BF
:1088A400184607B05DF804FB7838002000B585B0A1
:1088B4000190019B03930D4B9B78002B01D108235E
:1088C40010E0019B002B03D0039B5B69002B01D1BB
:1088D400082307E0039B00221A7402210398FFF780
:1088E400F1FE0346184605B05DF804FB7838002015
:1088F40008B5FFF717FB0346184608BD82B0EFF32F
:1089040010830093009B019372B6019B184602B03A
:10891400704762B600BF704700B585B00190FFF79D
:10892400EDFF0390164B9B68002B1BD1144B0122C7
:108934009A60144BD3F88020134B1340104A1360F1
:10894400104B114AC3F880200E4BD3F884300C4AE4
:1089540053600C4B4FF0FF32C3F88420019B00227C
:108964001A7002E0019B01221A70039B002B01D1B3
:10897400FFF7CFFF0023184605B05DF804FB00BFE6
:108984009839002000E100E0FC06FFBD00B585B089
:1089940003468DF80730104B9B68002B16D09DF8CA
:1089A4000730002B12D1FFF7A9FF03900B4A0A4BA3
:1089B4001B681360094A084B5B685360064B00222E
:1089C4009A60039B002B01D1FFF7A3FF00231846F5
:1089D40005B05DF804FB00BF9839002000E100E019
:1089E40000B583B0019000F02BF80346012B03D0AF
:1089F4000549432000F041F80198FFF78DFF00BFBF
:108A040003B05DF804FB00BF48FD020000B583B06D
:108A140003468DF8073000F013F80346012B03D00A
:108A24000649512000F029F89DF807301846FFF751
:108A3400ADFF00BF03B05DF804FB00BF48FD0200BA
:108A440084B0EFF305830193019BC3F308030393FD
:108A5400039B002B0DD1EFF314830093009B02932F
:108A6400029B03F00103002B0CBF01230023DBB2A4
:108A740000E00123184604B0704700B585B00346F2
:108A84000091ADF80630BDF80630ADF80830009B13
:108A9400039302AB1A46002144F20200FFF7AEF83A
:108AA40000BF05B05DF804FB10B487B001900091DD
:108AB400019B009A53E8004F104643E8000191F0EF
:108AC400000FF7D1059404900391059B184607B055
:108AD4005DF8044B704710B487B001900091019B7E
:108AE400009A53E8004F44EA020043E8000191F081
:108AF400000FF6D1059404900391049B184607B027
:108B04005DF8044B704710B487B001900091019B4D
:108B1400009A53E8004F04EA020043E8000191F090
:108B2400000FF6D1059404900391059B184607B0F5
:108B34005DF8044B704710B487B001900091019B1D
:108B4400009A53E8004F04EB020043E8000191F05F
:108B5400000FF6D1059404900391049B184607B0C6
:108B64005DF8044B704710B487B001900091019BED
:108B7400009A53E8004FA4EB020043E8000191F08F
:108B8400000FF6D1059404900391049B184607B096
:108B94005DF8044B704700B583B001900121019842
:108BA400FFF799FF0346184603B05DF804FB00B5D0
:108BB40083B0019000210198FFF7A5FF03461846F2
:108BC40003B05DF804FB000000B583B001900B46D0
:108BD4008DF80330019B002B03D10849E820FFF7EF
:108BE4004CFF019BDA689DF803300199898A01FBE7
:108BF40003F31344184603B05DF804FBB0FD020010
:108C040000B583B001900091019B002B03D108496A
:108C1400F520FFF732FF009B019AD2689B1A019A54
:108C2400928AB3FBF2F3DBB2184603B05DF804FB9F
:108C3400B0FD020000B585B00190019B002B01D16D
:108C44000E234DE0019B1B68002B03D12649FF2016
:108C5400FFF713FF019B5B68002B04D122494FF4FB
:108C64008070FFF70AFF019B9B68002B04D11E490B
:108C740040F20110FFF701FF019BDB68002B04D1D8
:108C840019494FF48170FFF7F8FE019B9B8A002B72
:108C940004D1154940F20310FFF7EFFE019B9B68D6
:108CA4001A46019B5B68D31A8DF80F30019B1B6831
:108CB400019A52681A6007E0019B1A681368591CEC
:108CC40011609DF80F201A709DF80F305A1E8DF810
:108CD4000F20002BF0D1019B1B6800221A71002386
:108CE400184605B05DF804FBB0FD020000B585B080
:108CF4000190019B002B04D120494FF49270FFF79F
:108D0400BCFE0023039300238DF80A300DF10A03FF
:108D14001846FFF765FE019B1B681A68019B5B6898
:108D24009A4220D9019B1B681A68013A1A601B6891
:108D34001B7819460198FFF747FF0390019B9B6836
:108D44001A46019B1B681B68D31A8DF80B30019BD4
:108D54001B681B799DF80B209A4204D9019B1B6860
:108D64009DF80B201A719DF80A301846FFF74EFE45
:108D7400039B184605B05DF804FB00BFB0FD02007C
:108D840010B584B001900091019B002B04D11549CA
:108D940040F24710FFF771FE009B002B04D11149EC
:108DA4004FF4A470FFF769FE009B039300238DF832
:108DB4000B300DF10B031846FFF712FE019B1B68E5
:108DC4001C68621C1A6003990198FFF719FF034697
:108DD40023709DF80B301846FFF718FE00BF04B04F
:108DE40010BD00BFB0FD020000B583B00190019B2F
:108DF400002B03D10C493120FFF73FFE019B9B68F8
:108E0400002B0CD0019B5B69019A1069019A1168CF
:108E1400019A92689847019B00229A6000E000BF83
:108E240003B05DF804FB00BF10FE02000EB400B5F1
:108E340084B00190019B002B03D118494220FFF715
:108E44001CFE019B5B69002B03D114494320FFF7EF
:108E540014FE019B1B68002B03D110494420FFF72B
:108E64000CFE019B5B68002B03D10C494520FFF7E6
:108E740004FE059B002B0AD00023039306AB039347
:108E840003AB1A460599019800F0B0F900E000BF61
:108E940004B05DF804EB03B0704700BF10FE02009D
:108EA40000B583B001900B468DF80330019B1A681E
:108EB400019B9B68581C0199886013449DF803200A
:108EC4001A70019B9A68019B5B689A4202D30198CD
:108ED400FFF78AFF00BF03B05DF804FB00B587B05D
:108EE400039002910192009300230593009B03F0E9
:108EF4000103002B24D00BE0029B01330293059B5A
:108F0400013305939DF8133019460398FFF7C8FF02
:108F1400029B1B788DF813309DF81330002BEBD196
:108F240006E0019B013B019320210398FFF7B8FF62
:108F3400019A059B9A422ED9019B002BF1D12AE07C
:108F4400029B002B0BD0029806F085FC059006E0EE
:108F5400019B013B019320210398FFF7A1FF019A94
:108F6400059B9A420FD9019B002BF1D10BE0029B88
:108F740001330293059B013305939DF81330194681
:108F84000398FFF78DFF029B1B788DF813309DF833
:108F94001330002BEBD100BF07B05DF804FB0000D9
:108FA40000B589B00390029101920093029B07934C
:108FB4000123069307E0079A019BB2FBF3F307939F
:108FC400069B01330693079A019B9A42F3D2009AB7
:108FD400069B9A4201D9009B06930B9B03F0010365
:108FE400002B22D10A9B002B1FD00B9B03F0020302
:108FF400002B06D0009B002B03D130238DF81730B3
:1090040002E020238DF8173008E00A9B013B0A9305
:109014009DF8173019460398FFF742FF0A9B002B6F
:1090240003D0069A0A9B9A42EFD301230793009B2D
:10903400012B03D9009B013B009309E0029A079B93
:10904400B2FBF3F30493049A019B9A4200D205E025
:10905400079B019A02FB03F30793E8E7029A079B35
:10906400B2FBF3F30493049B079A02FB03F3029A03
:10907400D31A0293154A049B13441B781946039888
:10908400FFF70EFF079A019BB2FBF3F30793079BCD
:10909400002BE3D10B9B03F00103002B11D00A9B9F
:1090A400002B0ED006E00A9B013B0A932021039873
:1090B400FFF7F6FE0A9B002B03D0069A0A9B9A42FE
:1090C400F1D300BF09B05DF804FB00BFC8FE020085
:1090D40000B589B00590049103920293049B002B80
:1090E400B8BF5B4206930123079307E0039B069AEC
:1090F40092FBF3F30693079B01330793039B069AB2
:109104009A42F3DA029A079B9A4201D9029B079387
:109114000A9B002B0AD0049B002B04DB0B9B03F05F
:109124000403002B02D00A9B013B0A930B9B03F020
:109134000203002B02D0029B002B16D00B9B03F0E2
:109144000103002B11D10A9B002B0ED006E00A9BD1
:10915400013B0A9320210598FFF7A2FE0A9B002BEE
:1091640003D0079A0A9B9A42F1D3049B002B07DA97
:10917400049B5B4204932D210598FFF791FE08E0C0
:109184000B9B03F00403002B03D02B210598FFF75E
:1091940087FE0B9B03F00203002B19D00B9B03F0FB
:1091A4000103002B14D1029B002B11D10A9B002B2D
:1091B4000ED006E00A9B013B0A9330210598FFF785
:1091C4006FFE0A9B002B03D0079A0A9B9A42F1D3A5
:1091D40004990B9B01930A9B0093029B039A0598A5
:1091E400FFF7DEFE00BF09B05DF804FB00B58FB0E9
:1091F400059004910392059B002B04D1C8494FF4B8
:109204009F70FFF73AFC059B5B69002B04D1C449AE
:109214004FF4A070FFF731FC059B1B68002B04D1B1
:10922400BF4940F24110FFF728FC059B5B68002B07
:1092340004D1BB494FF4A170FFF71FFC049B002B22
:1092440000F0ED81049B1B788DF83730049B0133CB
:1092540004939DF83730002B00F0D8819DF8373007
:10926400252B40F0C78100230A9301230C93049B10
:109274001B788DF837309DF837302D2B04D0302BE8
:109284000AD02B2B10D017E00A9B43F001030A935A
:10929400049B0133049312E00A9B43F002030A93F4
:1092A400049B013304930AE00A9B43F004030A93EA
:1092B400049B0133049302E000230C9300BF0C9B36
:1092C400002BD4D1002309939DF837302A2B0CD1DD
:1092D400039B1B68191D039A11601B68099A1344A8
:1092E4000993049B013304931AE0049B1B788DF8C3
:1092F40037309DF837302F2B12D99DF83730392B62
:109304000ED8049B01330493099A13469B0013441B
:109314005B001A469DF837301344303B0993D3E77A
:1093240000230B93049B1B788DF837309DF837305E
:109334002E2B1DD1049B01330493049B1B788DF8C1
:1093440037309DF837302F2B12D99DF83730392B11
:109354000ED8049B013304930B9A13469B001344C9
:109364005B001A469DF837301344303B0B93E4E717
:10937400049B1B788DF837309DF837306C2B03D065
:109384009DF83730682B07D1049B01330493049B69
:109394001B788DF83730EFE79DF83730253B532B9A
:1093A40000F2238101A252F823F000BFE5950200E8
:1093B400EF950200EF950200EF950200EF95020091
:1093C400EF950200EF950200EF950200EF95020081
:1093D400EF950200EF950200EF950200EF95020071
:1093E400EF950200EF950200EF950200EF95020061
:1093F400EF950200EF950200EF950200EF95020051
:10940400EF950200EF950200EF950200EF95020040
:10941400EF950200EF950200EF950200EF95020030
:10942400EF950200EF950200EF950200EF95020020
:10943400EF950200EF950200EF950200EF95020010
:10944400EF950200EF950200EF950200EF95020000
:10945400EF950200EF950200EF950200EF950200F0
:10946400EF950200EF950200EF950200EF950200E0
:10947400EF950200EF95020071950200EF9502004E
:10948400EF950200EF950200EF950200EF950200C0
:10949400EF950200EF950200EF950200EF950200B0
:1094A400EF9502000195020029950200EF95020054
:1094B400EF950200EF950200EF9502002995020056
:1094C400EF950200EF950200EF950200EF95020080
:1094D400EF950200EF950200B1950200EF950200AE
:1094E400EF95020095950200EF9502004D9502005C
:1094F400EF950200EF95020071950200039B1B6833
:10950400191D039A11601B680C930C9B8DF81F3076
:109514009DF81F3019460598FFF7C2FC66E000BFAE
:1095240068FE0200039B1B68191D039A11601B68E7
:109534000C930A9B0193099B00930B9B0A220C99A1
:109544000598FFF7C5FD51E0039B1B68191D039A9D
:1095540011601B680C930C990A9B0193099B00935F
:109564000B9B0A220598FFF71BFD3FE0039B1B683A
:10957400191D039A11601B680C930C990A9B0193A3
:10958400099B00930B9B10220598FFF709FD2DE022
:10959400039B1B68191D039A11601B6808930A9B9F
:1095A400099A08990598FFF799FC1FE0039B1B682B
:1095B400191D039A11601B680C9330210598FFF75D
:1095C4006FFC78210598FFF76BFC0C99002301933D
:1095D40008230093082310220598FFF7E1FC05E017
:1095E40025210598FFF75CFC00E000BF049B0133D4
:1095F400049305E09DF8373019460598FFF750FCB1
:10960400049B1B78002B7FF41DAE00E000BF059B7C
:109614001B7B002B04D00598FFF7E6FB00E000BF9E
:109624000FB05DF804FB00BF00B583B00190019852
:10963400FFF700FB0346184603B05DF804FB00B5D2
:109644008BB001900091019B9B8A043B0793009A85
:10965400079B1344DA1C079BB2FBF3F38DF81B3012
:109664000198FFF743FB0590059B002B01D10023D4
:1096740038E0059B00221A71059B01225A71079B51
:109684009AB2059BDA80059B09939DF81B30013B38
:109694000493099B019A1A60002308931DE0019822
:1096A400FFF724FB0390039B002B0ED0059B5B79F3
:1096B4000133DAB2059B5A71099B039A1A60039B22
:1096C400019A1A60039B099304E0059800F00EF8D0
:1096D400002307E0089B01330893089A049B9A42ED
:1096E400DDD3059B18460BB05DF804FB00B58BB0C9
:1096F4000190019B0793079B5B798DF81B30019BBD
:1097040008939DF81B30013B05930023099305E062
:10971400089B1B680893099B01330993099A059BCD
:109724009A42F5D3089B1B680493019B089300237A
:1097340009930BE0089B1B68039308990498FFF7AF
:109744001FFB039B0893099B013309939DF81B306E
:10975400099A9A42EED300BF0BB05DF804FB00B542
:1097640085B00190019B0393039B043301211846A8
:10977400FFF7E1F900BF05B05DF804FB00B587B061
:109784000190019B0593059B043301211846FFF7C3
:10979400EAF90346039303AB0493049B1B78002B61
:1097A40002D10198FFF7A2FF00BF07B05DF804FBE8
:1097B40000B58DB00390029101920093039B069330
:1097C400069BDB880593039B0B93009B1A1D059B4B
:1097D400B2FBF3F30A93009B0433059AB3FBF2F252
:1097E400059901FB02F29B1A0993009A019B1A4402
:1097F400059B1344DA1C059BB2FBF3F38DF813307D
:10980400069B5B799DF813209A420AD92749BA200E
:10981400FFF733F905E00B9B1B680B930A9B013B95
:109824000A930A9B002BF6D100230893059A099BFF
:10983400D31A0793079A019B934228BF13460793B1
:109844002DE09DF83830002B0BD0029A089BD018DD
:109854000B9A099B13440433079A194605F09FFF9A
:109864000AE00B9A099B1344181D029A089B13449F
:10987400079A194605F093FF002309930B9B1B6875
:109884000B93019A079BD31A0193089A079B1344DD
:109894000893059A019B934228BF13460793019BA3
:1098A400002BCED100BF0DB05DF804FBD8FE020042
:1098B40000B587B0059004910392029300230093AE
:1098C400029B039A04990598FFF772FF00BF07B043
:1098D4005DF804FB00B587B00590049103920293F0
:1098E40001230093029B039A04990598FFF760FFF4
:1098F40000BF07B05DF804FB82B003468DF8073063
:109904009DF8073003F01F0206499DF907305B09F3
:10991400012000FA02F2603341F8232000BF02B0B4
:10992400704700BF00E100E000B583B00190019BE7
:10993400002B03D106497220FFF79FF8019B0022F8
:109944001A60BFF35F8F00BF03B05DF804FB00BF74
:10995400A0FF020041DF704700BF184600B585B084
:1099640000238DF803300DF103031846FFF738F890
:10997400F1EE103A0193019B0393039B23F09F03A1
:109984000293029BE1EE103ABFF35F8F2620FFF7AC
:10999400B3FF9DF803301846FFF738F8039B03F034
:1099A4000703002B03D004497620FFF766F800BFB5
:1099B40005B05DF804FB00BFE8FF020008B5064BE4
:1099C40000221A700548FFF7AFFF0549054800F06B
:1099D4002DF80023184608BDA8390020A43900201A
:1099E4004C000300AC39002000B583B0FFF7B6FF8C
:1099F40005F060FB0346002B0ED0FFF7ABFF019090
:109A0400019B002B0BD0019B022B08D0064940F28E
:109A14005910FFF732F802E020BF40BF20BF00BF5B
:109A240003B05DF804FB00BFE8FF020000B583B09B
:109A340001900091019B002B03D110495020FFF7A6
:109A44001CF8009B002B03D10C495120FFF715F89B
:109A5400019B009A1A60019B1B681A68019B5A605B
:109A6400019B5A68019B1B685B689A4202D1019B67
:109A740000225A6000BF03B05DF804FB58000300E5
:109A840000B583B00190019B002B03D114496320DE
:109A9400FEF7F3FF019B1B68002B03D110496420E0
:109AA400FEF7EBFF019B5B68002B14D0019B5B6806
:109AB4001A46019B1B689B6813441A46019B5A6013
:109AC400019B5A68019B1B685B689A4204D1019B05
:109AD40000225A6000E000BF03B05DF804FB00BF41
:109AE4005800030000B585B00190019800F00EF80D
:109AF4000390039B002B01D0039B00E0024B18460C
:109B040005B05DF804FB00BFD400030086B00190EB
:109B1400164B0593164B04931FE0049A059BD31A26
:109B2400DB10DA0F13445B10DB00059A1344039334
:109B3400039B1B680293029A019B9A4202D9039BDE
:109B440004930AE0029A019B9A4203D2039B0833CE
:109B5400059302E0039B5B6804E0059A049B9A4228
:109B6400DBD30023184606B0704700BFD4040300BB
:109B7400FC050300BFF34F8F0549054BDB6803F475
:109B8400E062044B1343CB60BFF34F8F00BFFDE78C
:109B940000ED00E00400FA05024B034A1A6000BF1E
:109BA400704700BFAC3200200090D00308B500F02D
:109BB40025F90346002B0ED04FF080430022C3F852
:109BC4000C214FF080430022C3F810214FF0804352
:109BD4000022C3F8382500F02FF90346002B76D075
:109BE4007D4A4FF08053D3F80434C2F820357A4AC2
:109BF4004FF08053D3F80834C2F82435764A4FF036
:109C04008053D3F80C34C2F82835734A4FF080538C
:109C1400D3F81034C2F82C356F4A4FF08053D3F880
:109C24001434C2F830356C4A4FF08053D3F81834EA
:109C3400C2F83435684A4FF08053D3F81C34C2F864
:109C44004035654A4FF08053D3F82034C2F8443588
:109C5400614A4FF08053D3F82434C2F848355E4A41
:109C64004FF08053D3F82834C2F84C355A4A4FF099
:109C74008053D3F82C34C2F85035574A4FF08053F0
:109C8400D3F83034C2F85435534A4FF08053D3F8E4
:109C94003434C2F86035504A4FF08053D3F8383426
:109CA400C2F864354C4A4FF08053D3F83C34C2F8C0
:109CB4006835494A4FF08053D3F84034C2F86C35C4
:109CC400454A4FF08053D3F84434C2F8703500F05D
:109CD400D1F80346002B02D0404B414A1A6000F0F1
:109CE400DBF80346002B03D03E4BFB22C3F81825B8
:109CF40000F0E4F80346002B0AD03B493A4B1B68BA
:109D040023F00F02394B1B6803F00F0313430B605E
:109D140000F0E6F80346002B03D0354B4FF40072F5
:109D24001A6000F0EFF80346002B0DD04FF080438B
:109D3400D3F8003403F00103002B05D04FF0804327
:109D44006FF00102C3F800242A4A2A4BD3F8883062
:109D540043F47003C2F88830BFF34F8FBFF36F8FA3
:109D64004FF01023D3F80032002B05DB4FF0102303
:109D7400D3F80432002B2BDA1F4B0122C3F804253D
:109D840000BF1D4BD3F80034002BFAD04FF0102342
:109D94001222C3F8002200BF174BD3F80034002B63
:109DA400FAD04FF010231222C3F8042200BF124B42
:109DB400D3F80034002BFAD00F4B0022C3F804254B
:109DC40000BF0D4BD3F80034002BFAD0FFF7D2FEBE
:109DD400FFF7E2FE00BF08BD00C000408C56004003
:109DE4004881030000F00040E40E004058020010D7
:109DF4004096024000ED00E000E001400C4B1B687F
:109E0400082B11D10B4B1B68002B01D101230CE053
:109E1400084B1B68012B01D1012306E0054B1B688D
:109E2400022B01D1012300E001231846704700BF33
:109E340030010010340100100C4B1B68082B11D1A9
:109E44000B4B1B68002B01D101230CE0084B1B6852
:109E5400012B01D1012306E0054B1B68022B01D124
:109E6400012300E001231846704700BF30010010B1
:109E740034010010064B1B68082B05D1054B1B68E9
:109E8400002B01D1012300E000231846704700BFD6
:109E94003001001034010010064B1B68082B05D15B
:109EA400054B1B68002B01D1012300E00023184659
:109EB400704700BF3001001034010010064B1B68CE
:109EC400082B05D1054B1B68002B01D1012300E0B1
:109ED40000231846704700BF300100103401001001
:109EE400064B1B68082B05D1054B1B68002B01D1C1
:109EF400012300E000231846704700BF3001001022
:109F0400340100100C4B1B68082B11D10B4B1B6840
:109F1400002B01D101230CE0084B1B68012B01D15C
:109F2400012306E0054B1B68022B01D1012300E04D
:109F340001231846704700BF30010010340100109F
:109F440000B583B00190019B1B682F2B04D90B49EA
:109F540040F2C710FEF791FD019B1B681F2B02D82E
:109F64004FF0A04306E0019B1B6803F01F02019B16
:109F74001A60034B184603B05DF804FBFC050300AC
:109F84000003005000B585B00190084611461A46FA
:109F940003468DF803300B468DF8023013468DF8D6
:109FA400013001AB1846FFF7CBFF03909DF8032067
:109FB4009DF802305B001A439DF801309B001A4360
:109FC4009DF818301B0242EA03019DF81C301B0463
:109FD400019A1943039B02F5E07243F8221000BF73
:109FE40005B05DF804FB00B585B003900023019330
:109FF400002300930023012201210398FFF7C2FFED
:10A0040000BF05B05DF804FB00B585B003900B46B6
:10A014008DF80B309DF80B2000230193002300934F
:10A024001346002200210398FFF7ACFF00BF05B0E0
:10A034005DF804FB00B585B0019001AB1846FFF74D
:10A044007FFF0390019B012202FA03F31946039850
:10A0540000F069F800BF05B05DF804FB00B585B0F9
:10A06400019001AB1846FFF76BFF0390019B01229F
:10A0740002FA03F31946039800F05FF800BF05B035
:10A084005DF804FB00B585B0019001AB1846FFF7FD
:10A0940057FF0390039BD3F804350293029BDA43E2
:10A0A400019B012101FA03F31A40039BC3F808251D
:10A0B400019B01229A40029B1A40039BC3F80C2582
:10A0C40000BF05B05DF804FB00B583B001900091BA
:10A0D400009B002B03D10198FFF7C0FF02E0019819
:10A0E400FFF7A8FF00BF03B05DF804FB00B585B01F
:10A0F400019001AB1846FFF723FF0390039800F08B
:10A104000AF80246019B22FA03F303F001031846FE
:10A1140005B05DF804FB82B00190019BD3F80435CF
:10A12400184602B0704782B001900091019B009ADA
:10A13400C3F8082500BF02B0704782B001900091B7
:10A14400019B009AC3F80C2500BF02B070470000C1
:10A1540000B585B00190019B032B03D911493A2026
:10A16400FEF78BFC104A019B13441B781846FFF73B
:10A17400BDFF0346002B14BF012300238DF80F30CD
:10A184009DF80F30002B14BF01230023DBB283F0B2
:10A194000103DBB203F00103DBB2184605B05DF83E
:10A1A40004FB00BF300603008406030000B583B03F
:10A1B4000190019B032B03D907494120FEF75DFC65
:10A1C400064A019B13441B7800211846FFF77CFFC5
:10A1D40000BF03B05DF804FB3006030084060300EF
:10A1E40000B583B00190019B032B03D90749472095
:10A1F400FEF743FC064A019B13441B7801211846D1
:10A20400FFF762FF00BF03B05DF804FB30060300F4
:10A214008406030000B583B00023019305E0019890
:10A22400FFF7DEFF019B01330193019B032BF6D95A
:10A2340000BF03B05DF804FB00B583B000230193B5
:10A2440005E00198FFF7B2FF019B01330193019BE5
:10A25400032BF6D900BF03B05DF804FB00B583B04F
:10A264000190019B032B03D907495F20FEF705FCEE
:10A27400064A019B13441B781846FFF703FF00BFEF
:10A2840003B05DF804FB00BF30060300840603003E
:10A2940000B583B00023019309E0094A019B1344EC
:10A2A4001B781846FFF79FFE019B01330193019B26
:10A2B400032BF2D9FFF7AEFF00BF03B05DF804FB38
:10A2C4008406030000B583B0002301930AE0094A21
:10A2D400019B13441B7803211846FFF795FE019B4D
:10A2E40001330193019B032BF1D900BF03B05DF847
:10A2F40004FB00BF8806030084B001904FF0FF33D5
:10A304000293002303930DE00A4A039B13441B7832
:10A314001A46019B934202D1039B029305E0039BDF
:10A3240001330393039B032BEED9029B184604B01D
:10A33400704700BF8806030000B583B00190019BFD
:10A3440003F00103002B01D0FFF7A2FF019B03F0F0
:10A354000203002B01D0FFF7B5FF00BF03B05DF887
:10A3640004FB000082B003468DF807309DF80730E7
:10A3740003F01F0206499DF907305B09012000FA2A
:10A3840002F2203341F8232000BF02B0704700BF1F
:10A3940000E100E008B504F08DFE034683F00103FC
:10A3A400DBB2002B03D105497920FEF766FB00F0F0
:10A3B4003BFB034B00229A7000BF08BD94060300C8
:10A3C400B439002000B583B000230193144B1B78EB
:10A3D400002B02D0852301931CE0114B00229A60CC
:10A3E4000F4B00225A600E4B00221A610C4B0022C4
:10A3F400DA600C4800F0DEFA019004F05BFE0346DC
:10A4040083F00103DBB2002B01D000F0F9FA044B16
:10A4140001221A70019B184603B05DF804FB00BFCB
:10A42400B439002001A5020084B00190019B1B688F
:10A434000393039B002B03D0039B1A68019B1A60B0
:10A44400039B184604B0704700B583B0164B1B78C5
:10A45400002B04D115494FF48470FEF70EFB124B08
:10A46400DB68002B04D1114940F20910FEF705FB0B
:10A4740000238DF807300DF107031846FEF7B0FAF4
:10A48400094BDB68013B084AD360074BDB68002BB0
:10A4940001D1FFF77FFF9DF807301846FEF7B6FAA3
:10A4A40000BF03B05DF804FBB43900209406030038
:10A4B40000B585B003468DF807309DF80730002BB2
:10A4C40002D10C4B039301E00B4B03930398FFF76A
:10A4D400ABFF0290029B002B06D0029B5B689DF8A9
:10A4E400072010469847F1E700BF00BF05B05DF8AC
:10A4F40004FB00BFBC390020C439002000B583B080
:10A5040003468DF807309DF80730002B05D10A4B20
:10A5140001225A700020FFF7CBFF9DF80730012B72
:10A5240005D1054B01229A700120FFF7C1FF00BF3E
:10A5340003B05DF804FB00BFB439002000B583B05C
:10A5440001900091019B002B05D1054B01225A700B
:10A554000020FFF7ADFF00BF03B05DF804FB00BFB0
:10A56400B439002000B585B0034600918DF807305A
:10A574009DF80730012B08D0032B25D0002B00D0E9
:10A5840030E00020FFF7EEFE2CE000238DF80F30C2
:10A594000DF10F031846FEF723FA144B1B7883F0D2
:10A5A4000103DBB2002B01D0FFF70CFF0F4BDB687C
:10A5B40001330E4AD3600D4B01229A709DF80F307F
:10A5C4001846FEF723FA0DE0084B1B78002B04D144
:10A5D400074940F24320FEF750FA00F011FAFFF762
:10A5E40033FF00BF00BF05B05DF804FBB4390020A1
:10A5F4009406030000B589B001900091009B079375
:10A60400019B1B788DF80C30019B5B680493019BC4
:10A614001B7A8DF81430019BDB680693074A079B6D
:10A6240052F823300649079A51F8221003AA10461B
:10A63400984700BF09B05DF804FB00BFC83900208B
:10A64400D039002000B589B001900091009B079398
:10A65400019B1B788DF80C30019B5B680493019B74
:10A664009B68DBB28DF81430019BDB680693074AC4
:10A67400079B52F823300649079A51F8221003AA7F
:10A684001046984700BF09B05DF804FBC8390020A4
:10A69400D039002030B58FB0039002910192039B12
:10A6A4001B780C9326490C9B019A41F82320029BAA
:10A6B4001A6924490C9B41F82320029B5B7F1946AD
:10A6C400214A0C9B13440A461A70029B04AC1D4693
:10A6D4000FCD0FC495E80F0084E80F000C9B08937E
:10A6E40000230D93039B1B781A46174B9B5C002B8E
:10A6F4000DD0039B181D019B002B01D0134A00E0D1
:10A70400002204AB194602F099FB0D9014E0039B60
:10A714001B781A460C4B9B5C002B0DD1039B03F159
:10A724000C00019B002B01D0094A00E0002204AB7D
:10A73400194601F01FFD0D900D9B18460FB030BD5A
:10A74400C8390020D0390020D8390020F9A50200EA
:10A7540049A6020082B003468DF807309DF8073001
:10A7640003F01F0205499DF907305B09012000FA37
:10A7740002F241F8232000BF02B0704700E100E07C
:10A7840082B003468DF807309DF8073003F01F02AE
:10A7940006499DF907305B09012000FA02F2603393
:10A7A40041F8232000BF02B0704700BF00E100E081
:10A7B40082B0034600918DF807309DF90730002BD5
:10A7C4000CDA009BDAB20C499DF8073003F00F0352
:10A7D400043B5201D2B20B441A7609E0009BDAB270
:10A7E40006499DF907305201D2B20B4483F8002385
:10A7F40000BF02B0704700BF00ED00E000E100E0E0
:10A8040000B583B003460A468DF8073013468DF829
:10A8140006309DF80630012B03D99DF80630032B32
:10A824000BD99DF80630042B03D99DF80630072B6D
:10A8340003D908496B20FEF720F99DF806209DF9FD
:10A84400073011461846FFF7B3FF00BF03B05DF8A9
:10A8540004FB00BFF406030000B583B003468DF883
:10A8640007309DF907301846FFF78AFF9DF9073036
:10A874001846FFF76FFF00BF03B05DF804FB00004C
:10A8840082B003468DF807300F4A9DF90730002B3C
:10A8940000DA1F335B115BB252F823209DF90730B5
:10A8A400594203F01F0301F01F0158BF4B425BB232
:10A8B40022FA03F303F00103002B14BF0123002346
:10A8C400DBB2184602B0704700E100E082B00190AC
:10A8D4004FF08042019BC2F8083300BF02B07047BA
:10A8E40082B003468DF807309DF8073003F18043AA
:10A8F40001221A6000BF02B0704784B00346ADF86D
:10A904000630BDF8063003F1804300221A60BDF81A
:10A91400063003F180431B680393039B00BF04B01C
:10A92400704782B00346ADF80630BDF8063003F137
:10A9340080431B68002B14BF01230023DBB218469D
:10A9440002B0704782B003468DF807309DF8073097
:10A954004FF0804203F00303C2F8183500BF02B081
:10A9640070474FF08043D3F818341B0C03F00103F5
:10A97400002B14BF01230023DBB21846704700B537
:10A9840083B007238DF807300020FFF779FF0346D3
:10A9940083F00103DBB2002B08D09DF80730194681
:10A9A4000020FFF72DFF0020FFF756FF00BF03B084
:10A9B4005DF804FB00B585B00190019B002B03D129
:10A9C4000D49A220FEF759F8002303930B4B1B7982
:10A9D400002B02D08523039308E0084A019B1360EF
:10A9E400064B01221A71054B00225A71039B18462B
:10A9F40005B05DF804FB00BF30070300DC3900201C
:10AA040008B5074B1B79002B03D10649BB20FEF781
:10AA140034F8FFF7B4FF0120FFF794FF00BF08BD2F
:10AA2400DC3900203007030008B5094B1B79002BE3
:10AA340003D10849F220FEF720F80C20FFF750FF5D
:10AA440000BFFFF78EFF0346002BFAD100BF08BDFD
:10AA5400DC3900203007030008B54FF48070FFF79D
:10AA640060FF0346002B14D04FF48070FFF745FFBE
:10AA74000120FFF72BFF114B5B7983F00103DBB25D
:10AA8400002B06D00D4B01225A710C4B1B68002081
:10AA940098474FF48270FFF744FF0346002B0AD017
:10AAA4004FF48270FFF729FF0220FFF70FFF034BDB
:10AAB4001B680120984700BF08BD00BFDC39002097
:10AAC40082B003468DF807309DF8073003F01F026B
:10AAD40005499DF907305B09012000FA02F241F8AB
:10AAE400232000BF02B0704700E100E082B00346BB
:10AAF4008DF807309DF8073003F01F0206499DF9D1
:10AB040007305B09012000FA02F2603341F8232088
:10AB140000BF02B0704700BF00E100E082B003460E
:10AB240000918DF807309DF90730002B0CDA009B5B
:10AB3400DAB20C499DF8073003F00F03043B5201CD
:10AB4400D2B20B441A7609E0009BDAB206499DF9A9
:10AB540007305201D2B20B4483F8002300BF02B085
:10AB6400704700BF00ED00E000E100E000B583B0F5
:10AB740003460A468DF8073013468DF806309DF8D3
:10AB84000630012B03D99DF80630032B0BD99DF811
:10AB94000630042B03D99DF80630072B03D9084946
:10ABA4006B20FDF76AFF9DF806209DF907301146DA
:10ABB4001846FFF7B3FF00BF03B05DF804FB00BF06
:10ABC4009007030000B583B003468DF807309DF964
:10ABD40007301846FFF78AFF9DF907301846FFF73C
:10ABE4006FFF00BF03B05DF804FB00B583B00346FC
:10ABF400ADF80630BDF80630184600F026F80346D6
:10AC04001B68012B0CBF01230023DBB2184603B0E1
:10AC14005DF804FB00B585B00346ADF80630BDF819
:10AC24000630184600F011F803461A460023136054
:10AC3400BDF80630184600F008F803461B68039375
:10AC4400039B00BF05B05DF804FB82B00346ADF87A
:10AC54000630BDF8063003F1804303F5C0431846BF
:10AC640002B0704782B00190034A019BC2F80433DA
:10AC740000BF02B0704700BF0060004082B0019086
:10AC8400034BD3F80423019B1340184602B07047CA
:10AC94000060004082B00190084A019B03F5A27352
:10ACA40052F82330054943F00102019B03F5A273D6
:10ACB40041F8232000BF02B0704700BF006000408D
:10ACC40084B00390029113468DF80730144A039B15
:10ACD40003F5A27352F82330114923F44F3323F4BC
:10ACE4004073039A02F5A27241F822300C4A039B86
:10ACF40003F5A27352F82320029B1B0203F47C5138
:10AD04009DF807301B0403F440330B4304491A43F2
:10AD1400039B03F5A27341F8232000BF04B07047DE
:10AD24000060004082B00190054A019B03F5A273C4
:10AD340052F823301B0A03F03F03184602B0704751
:10AD44000060004082B00190064A019B03F5A273A3
:10AD540052F823301B0C03F00303DBB2184602B095
:10AD6400704700BF0060004000B583B00190019BB4
:10AD74001B682F2B04D90B4940F2C710FDF77DFE49
:10AD8400019B1B681F2B02D84FF0A04306E0019BD8
:10AD94001B6803F01F02019B1A60034B184603B0A3
:10ADA4005DF804FBC40703000003005000B585B040
:10ADB4000190084611461A4603468DF803300B46A7
:10ADC4008DF8023013468DF8013001AB1846FFF7B9
:10ADD400CBFF03909DF803209DF802305B001A43DB
:10ADE4009DF801309B001A439DF818301B0242EA7B
:10ADF40003019DF81C301B04019A1943039B02F5BF
:10AE0400E07243F8221000BF05B05DF804FB00B502
:10AE140085B003900B468DF80B309DF80B20002372
:10AE24000193002300931346002200210398FFF7A7
:10AE3400BDFF00BF05B05DF804FB00B585B001900F
:10AE440001AB1846FFF790FF0390019A039B02F5AC
:10AE5400E07253F8223023F002030293019A039B19
:10AE640002F5E072029943F8221000BF05B05DF8C4
:10AE740004FB00B585B001900B468DF8033001AB9F
:10AE84001846FFF771FF0390019A039B02F5E072E5
:10AE940053F82230019A23F44031039B02F5E07207
:10AEA40043F82210019A039B02F5E07253F8223012
:10AEB4009DF8032012041146019A1943039B02F5DD
:10AEC400E07243F8221000BF05B05DF804FB00B542
:10AED40085B0019001AB1846FFF746FF0390039835
:10AEE40000F020F80246019B22FA03F303F0010369
:10AEF400184605B05DF804FB00B585B0019001ABC0
:10AF04001846FFF731FF0390019A039B02F5E072A4
:10AF140053F822301B0C03F00303DBB2184605B0D0
:10AF24005DF804FB82B00190019BD3F810351846FC
:10AF340002B0704700B589B0039002910192174A9C
:10AF440005AB92E8030083E80300039A029B1344D1
:10AF5400022B04D9124940F2DF20FDF78EFD039B3A
:10AF6400079311E0079B9B0008AA134453F80C3C79
:10AF74001846FFF7D7FF0246019B1A60019B043372
:10AF84000193079B01330793039A029B1344079A87
:10AF94009A42E7D300BF09B05DF804FBF807030049
:10AFA400C407030084B001900091009B0393019BAC
:10AFB400DB080293019B03F0070301930122019B29
:10AFC40002FA03F30399029A0A44127813401846CA
:10AFD40004B0704784B001900091009B0393019BDF
:10AFE400DB080293019B03F007030193039A029B7E
:10AFF40013441B785AB20121019B01FA03F35BB29B
:10B00400134359B2039A029B1344CAB21A7000BF85
:10B0140004B0704782B001900C4A019B1344303352
:10B0240093F90030002B09DB084A019B13443033A9
:10B0340093F90030072B01DC012300E0002303F027
:10B044000103DBB2184602B0704700BFE4390020A8
:10B0540082B00190064A019B1344303393F90030C7
:10B06400072BCCBF01230023DBB2184602B0704784
:10B07400E439002082B00190064A019B1344303326
:10B0840093F90030DB43DBB2DB09DBB2184602B0D4
:10B09400704700BFE439002084B00390029101920C
:10B0A4008DF80330029B59B20E4A039B134430338C
:10B0B4000A461A700B49029B019A41F823209DF815
:10B0C400033083F00103DBB2002B08D0029B083B62
:10B0D400039A51B2034A13440A4683F8602000BF1E
:10B0E40004B07047E439002082B00190044A019B07
:10B0F40013443033FF221A7000BF02B0704700BF00
:10B10400E439002000B583B0019004490198FFF7A9
:10B1140061FF00BF03B05DF804FB00BF483A0020A4
:10B1240082B00190044A019B1344303393F90030F8
:10B13400184602B0704700BFE439002082B0019085
:10B14400034A019B52F82330184602B0704700BFEF
:10B15400E439002000B589B00390029113468DF8BC
:10B164000730FF238DF81F309DF80730002B01D0E6
:10B17400002300E0082305939DF80730002B01D03D
:10B18400082300E00C230493059B069314E00F4A64
:10B19400069B52F82330B3F1FF3F0AD19DF80730E4
:10B1A400029A06990398FFF777FF069B8DF81F30E4
:10B1B40006E0069B01330693069A049B9A42E6D363
:10B1C4009DF91F30184609B05DF804FBE4390020EE
:10B1D40082B003468DF807309DF80730094A4FF0D6
:10B1E400FF3142F823109DF80730072B07D99DF84B
:10B1F4000730083B034A1344FF2283F8602000BF52
:10B2040002B07047E439002000B583B0254B93F8B1
:10B214006A30002B03D008230093009B3EE00023F8
:10B224008DF8073009E09DF807301846FFF75CFFFA
:10B234009DF8073001338DF807309DF807302F2B28
:10B24400F1D900238DF8073009E09DF8073018463E
:10B25400FFF7BEFF9DF8073001338DF807309DF8E6
:10B2640007300B2BF1D9062200210F4804F0C0FA55
:10B2740007210620FFF77AFC0620FFF7A3FC4FF412
:10B28400BE70FFF7C7FC4FF00040FFF7EBFC054B27
:10B29400012283F86A2000230093009B184603B020
:10B2A4005DF804FBE4390020483A0020044B93F88D
:10B2B4006A30002B14BF01230023DBB21846704709
:10B2C400E439002000B587B0039002910192039BFA
:10B2D4002F2B04D936494FF40170FDF7CEFB002320
:10B2E40005930398FFF7C6FE0346002B02D00823FC
:10B2F400059357E0029B9B78C3F34003DBB21A46E5
:10B3040001990398FFF726FF03468DF813309DF942
:10B314001330B3F1FF3F43D0029B9B78C3F3800308
:10B32400DBB283F00103DBB2002B13D0029B9B78CA
:10B3340003F00103DBB2002B03D00398FFF77DFD7C
:10B3440005E0029B5B7819460398FFF760FD0398BC
:10B35400FFF7D8FE029B9B7803F00203DBB2002BBD
:10B3640008D09DF91300029B1B781A460399FFF736
:10B37400A7FC17E09DF91330083B0E4A134493F9D8
:10B384006010029B1B789B015AB29DF91330083B55
:10B394000A4351B2074A13440A4683F8602001E085
:10B3A40004230593059B184607B05DF804FB00BF12
:10B3B40008080300E439002000B589B001900B4669
:10B3C4008DF80330019B2F2B04D93D494FF40D70A8
:10B3D400FDF753FB0198FFF74DFE0346002B04D104
:10B3E400374940F23520FDF748FB0198FFF730FE5E
:10B3F4000346002B2FD00198FFF792FE0346083B2B
:10B40400304A134493F960308DF80F309DF80F30B3
:10B414009B098DF80E309DF80E30032B0BD101984B
:10B42400FFF755FD0346002B01D0032300E0022360
:10B434008DF81F3008E09DF80E30012B01D1022356
:10B4440000E003238DF81F309DF81F301946019842
:10B45400FFF70FFD30E00198FFF7DCFD0346002BFA
:10B464002AD00198FFF75CFE03460693069B9BB225
:10B4740040339BB29B00ADF81630069B1846FFF78D
:10B4840009FCBDF816301846FFF7C4FB9DF80330DD
:10B49400002B11D00198FFF743FE03461846FFF72F
:10B4A4004DFE0490049B002B06D00122069B02FA59
:10B4B40003F31846FFF7D6FB00BF09B05DF804FBA1
:10B4C40008080300E439002000B583B00190019B13
:10B4D4002F2B04D9084940F28520FDF7CEFA0198B4
:10B4E400FFF7F5FC0346002B14BF01230023DBB256
:10B4F400184603B05DF804FB0808030000B599B0D2
:10B504000023149306AB00221A605A604FF4807330
:10B51400ADF85C30012316930023139321E0BDF8AA
:10B524005C301846FFF761FB0346002B0ED01698DB
:10B53400FFF7A4FB0346002B08D0BDF85C30184687
:10B54400FFF768FB149A169B13431493169B5B0036
:10B554001693BDF85C300433ADF85C30139B0133B3
:10B564001393139B072BDAD94FF4BE70FFF73DFBFF
:10B574000346002B0DD04FF4BE70FFF74BFB149B1A
:10B5840043F00043149306AB1A4602210020FFF750
:10B59400D1FC149BDBB2002B29D00123169300238A
:10B5A400139321E0169A149B1340002B16D0139882
:10B5B400FFF7B8FB11901398FFF7C4FB03468DF80F
:10B5C40043301398FFF7BAFD0F900F9B002B05D063
:10B5D4009DF843200F9B114611989847169B5B00DA
:10B5E4001693139B01331393139B072BDAD9149BE4
:10B5F400002B80F2F08000238DF85F3004AB002232
:10B604001A605A60002315930AE0159B9B0018AA40
:10B6140013444FF0FF3243F8582C159B0133159314
:10B62400159B012BF1D900238DF85F300023139370
:10B6340078E06B4A139B1344603393F900308DF820
:10B644003B309DF83B3023F0C0030D93644A139BB9
:10B654001344603393F90030B3F1FF3F5FD002AB82
:10B6640019460D98FFF79EFC0346002B57D09DF812
:10B674003B309B098DF833300D98FFF751FD03469D
:10B684001846FFF75BFD0B900B9B002B03D19DF835
:10B694003330032B43D19DF83330032B04D104AB57
:10B6A40019460D98FFF796FC0D98FFF725FC034605
:10B6B4008DF82B3006AB19460D98FFF773FC0990F3
:10B6C400099B002B03D09DF82B30022B06D0099B3D
:10B6D400002B24D19DF82B30032B20D19DF833303F
:10B6E400032B13D19DF82B30022B01D1032300E04F
:10B6F40002238DF823309DF8233019460D98FFF767
:10B70400B8FB9DF85F3001338DF85F300B9B002B45
:10B7140005D09DF833200B9B11460D989847139B39
:10B7240001331393139B032B83D99DF85F30002BB4
:10B734004CD001238DF84B306B461A460221002071
:10B74400FFF7F8FB0023159314E0159B9B0018AA40
:10B75400134453F8602C159B9B0018A90B4453F811
:10B76400483C9A4203D000238DF84B3005E0159BEA
:10B7740001331593159B012BE7D99DF84B30002B12
:10B7840003D000238DF85F3020E0002315931AE0E6
:10B79400159B9B0018AA134453F8602C159B9B001F
:10B7A40018A90B4443F8482C159B9B0018AA134472
:10B7B40053F8502C159B9B0018A90B4443F8582CA4
:10B7C400159B01331593159B012BE1D99DF85F302F
:10B7D400002B7FF428AF00BF19B05DF804FB00BF55
:10B7E400E439002008B5064B1B68002B03D105493A
:10B7F4005120FDF742F9024B1B68984700BF08BD72
:10B80400503A00206C08030082B00190019B044A66
:10B81400934201D1034B00E00023184602B0704765
:10B8240000200040503A002000B587B001900091FC
:10B83400019B002B03D11C497720FDF71EF90198C9
:10B84400FFF7E2FF0590059B002B25D000238DF820
:10B85400133000238DF80B300DF10B031846FDF760
:10B86400BFF8059B1B79002B03D001238DF81330FF
:10B8740005E0059B009A1A60059B01221A719DF848
:10B884000B301846FDF7C2F89DF81330002B03D097
:10B8940011230393039B02E000230393039B1846A5
:10B8A40007B05DF804FB00BF6C08030000B585B069
:10B8B4000190019B002B03D10A499B20FDF7DDF881
:10B8C4000198FFF7A1FF0390039B002B05D0039B76
:10B8D40000221A60039B00221A7100BF05B05DF8B4
:10B8E40004FB00BF6C08030082B001900091019B2F
:10B8F400009AC3F8082300BF02B0704782B00190D9
:10B904000091019BD3F80423009B1340184602B016
:10B91400704782B001900B46ADF80230BDF802309A
:10B92400019A13441B68184602B0704784B0019012
:10B934000B46ADF80230BDF80230019A13440022E0
:10B944001A60BDF80230019A13441B680393039BE9
:10B9540000BF04B0704782B001900091019B009A2F
:10B96400C3F8482300BF02B07047000000B589B097
:10B974000390029101924FF4803306934FF4A07325
:10B98400ADF81E300023059330E006990398FFF7C5
:10B99400B5FF0346002B1ED0BDF81E301946039890
:10B9A400FFF7B7FF0346002B15D006990398FFF75E
:10B9B400D2FF06990398FFF797FFBDF81E3019468A
:10B9C4000398FFF7B3FF2D4A029B52F82330059AE0
:10B9D400D2B210469847069B5B000693BDF81E3012
:10B9E4000433ADF81E30059B01330593059A019B82
:10B9F4009A42CAD34FF48073ADF81E3001210398E4
:10BA0400FFF77CFF0346002B14D0BDF81E30194607
:10BA14000398FFF77EFF0346002B0BD0BDF81E30C2
:10BA240019460398FFF782FF144A029B52F8233009
:10BA3400042098474FF48273ADF81E300221039816
:10BA4400FFF75CFF0346002B14D0BDF81E301946E7
:10BA54000398FFF75EFF0346002B0BD0BDF81E30A2
:10BA640019460398FFF762FF044A029B52F82330F9
:10BA74000520984700BF09B05DF804FB583A002040
:10BA840008B5042200210248FFF770FF00BF08BD7B
:10BA94000040024082B003468DF807309DF807301D
:10BAA40003F01F0205499DF907305B09012000FAE4
:10BAB40002F241F8232000BF02B0704700E100E029
:10BAC40082B003468DF807309DF8073003F01F025B
