:020000022000DC
:106000000000042061620200B9620200BB6202006B
:10601000BD620200BF620200C16202000000000017
:10602000000000000000000000000000C362020049
:10603000C562020000000000C7620200C9620200DF
:1060400029830200CF620200DD870200D3620200D2
:10605000D5620200D762020035860200DB620200D0
:10606000DD620200DF620200E1620200E362020020
:10607000E5620200E7620200E9620200EB620200F0
:10608000ED62020069710200F1620200F362020037
:1060900005720200F7620200719F0200FB620200BB
:1060A000FD620200FF62020001630200036302005E
:1060B0000563020007630200CB620200CB620200AC
:1060C000096302000B6302000D6302000F6302000C
:1060D0005188020013630200156302001763020077
:1060E000196302001B6302001D630200CB62020001
:1060F000CB62020021630200CB6202001F63020038
:10610000364937480A1A02D0072291438D4635494D
:1061100035480A1A06D00722914381F309880222E2
:1061200082F3148831483249324A00F045F8324847
:106130003249334A00F040F832483349334A00F0DC
:106140003BF833483349344A00F036F83348344991
:10615000344A00F031F834483449354A00F02CF81C
:1061600034483549354A00F027F83548354900228A
:1061700000F02DF834483549002200F028F8344862
:106180003449091A082903DB002202600430016047
:10619000314A90471F482049884205D002680430A0
:1061A00003B4904703BCF7E700208646EC46002086
:1061B00000212A4A9047FEE7884207D0521A05D0AC
:1061C000037801300B700131013AF9D170478842F0
:1061D00002D002700130FAE770470000000004208E
:1061E00000E0032000000420000004206CB702003F
:1061F00054320020A43200202463020024630200F1
:1062000072A502006CB70200543200205432002004
:1062100050A6020050A6020050A6020050A602009E
:1062200050A6020050A6020050A6020050A602008E
:106230006CB70200BCB70200A4320020A4320020D8
:10624000A4320020693C00206C3C00206C3C002003
:106250006C3C00206C5C0020856202006D9B02009B
:106260000F484FF00701884385460E4880470E4887
:10627000016841F470010160BFF34F8FBFF36F8F6E
:10628000FFF73EBF09480A490A4A884207D0521A16
:1062900005D0037801300B700131013AF9D1704714
:1062A000000004208D7D020088ED00E01CA60200A5
:1062B0002032002054320020FEE7FEE7FEE7FEE732
:1062C000FEE7FEE7FEE7FEE7FEE7FEE7FEE7FEE7A6
:1062D000FEE7FEE7FEE7FEE7FEE7FEE7FEE7FEE796
:1062E000FEE7FEE7FEE7FEE7FEE7FEE7FEE7FEE786
:1062F000FEE7FEE7FEE7FEE7FEE7FEE7FEE7FEE776
:10630000FEE7FEE7FEE7FEE7FEE7FEE7FEE7FEE765
:10631000FEE7FEE7FEE7FEE7FEE7FEE7FEE7FEE755
:04632000FEE700BFD5
:10632400F0B595B01C4608460D46164601F037FCFC
:106334001A9B099400240D930C22234605A9284690
:1063440008960A948DF82C400C9401F066FC079B87
:106354000293BDF81830ADF80C30BDF81A30ADF822
:106364000E309DF814308DF8114003F00302012A19
:106374001DD1BDF81440059EC3F3C203C4F38314B6
:106384008DF81030A2000C230EA9284601F045FC1C
:10639400C6F3952608AB0093224602AB0EA93046FD
:1063A40000F058FC284601F0FEFB15B0F0BD022AAF
:1063B400F8D1BDF81640C3F3C203C4F389148DF8B1
:1063C40010300C27082C264628BF08263B463246A8
:1063D4000EA9284601F021FCA41B08AB02AA3146F1
:1063E4000EA8374400F09AFC002CEBD1DAE7000049
:1063F400014B01221A707047E532002070470000FB
:1064040070B50E4D06460FCD88B06C460FC495E8A6
:106414000F0084E80F0008A9002E4FF00603084A75
:1064240041F8203D08BF0022064801F005FF08B1ED
:1064340000F0ECFD044B1E7008B070BD50A60200C5
:10644400F563020054320020A432002007B5044B47
:106454000093044A4023FFF763FF03B05DF804FB95
:106464006D640200A532002038B50D4B0D4D00209F
:1064740018700D4804782D5DD2B21C4665B1043005
:1064840002F07AFE08B100F0C1FD084B1A7812B18F
:106494002378002BFBD038BD0C3002F047FCF1E729
:1064A400E53200208839002054320020A432002034
:1064B40008B50848084A0378D35C3BB1043002F0BD
:1064C40005FE0020BDE80840FFF79ABF0C3002F03B
:1064D400D7FBF6E754320020883900200120FFF76B
:1064E4008FBF000010B5054CFFF7F8FF04212046CC
:1064F40000F0EEFA0123637210BD00BF6832002081
:10650400037813F0030F10B503F0040402D004F071
:10651400FF02F4B1B4B103F00303012B03D0022B47
:1065240009D0012010BD0A6800880332C0F383102B
:1065340002440A60F5E70B684288033303EB9213C5
:106544000B60EEE70B684288013303EB9213028879
:10655400F4E7104610BD00002DE9F04F89B006465F
:10656400C51C08A84D4C019200230F4600F8113DAC
:1065740001F038F823683B606268A368134422681A
:1065840001339B1A04F21C4704F5836A04F214488D
:10659400AB421AD3019A0023002A76D0012262F377
:1065A400010343F0040366F389132168A2689DF88C
:1065B4000F000A4003320D4444F82230256001F0F4
:1065C40035F8012009B0BDE8F08F0121384601F00B
:1065D40069F8504601F080F8404601F07DF80DF16D
:1065E40020096068D4F808B049F8100D00EA0B00DF
:1065F400033004EB80004946FFF782FF049B10B18F
:106604000BEA0300F4E7591C01EA0B0104EB8101D6
:106614000BEA0302C968069104EB8202991CD26852
:10662400059201EA0B0B04EB8B0B02F00302DBF87F
:106634000C1007910333012A04931CD0022A22D19F
:10664400BDF81620BDF81AB0C2F38912033203EB69
:1066540092030493404601F042F808B1049B63603E
:106664005946384601F01EF86268A368134422684C
:1066740001339B1A8CE7BDF81420BDF81AB0C2F39D
:1066840083121344E5E78346E4E7022262F301033D
:1066940043F0040366F39F5387E700BFB833002039
:1066A40038B5054608B3124CFF23A36008460023FF
:1066B400C4F8183423606360C4F8143484F82034B4
:1066C40000F082FB0B48C4F80C5401F01FFA68B9BF
:1066D400094A0A4B0A499B1ADB0802469A4200D12E
:1066E40038BD21F822200132F8E7072038BD00BF69
:1066F400B8330020ECA5020084A50200ECA502003A
:106704002032002030B50B4C79B10B4A0B49121BD7
:10671400D20800239A4201D1002030BD01EB830549
:106724006D88854202D00133F4E7034654F8330000
:1067340030BD00BF84A50200ECA502002032002079
:10674400094B013903EBC000032909D8DFE801F044
:106754000A020406042070470079704740797047A4
:10676400002070470220704784A50200034B58683C
:106774001B68C31A58425841704700BFB833002001
:106784002DE9F04387B0FFF7F1FF0546002840F0FC
:10679400F780844CC4F81804BFF34F8F6068D4F8B2
:1067A400088006AE46F8100D00EA0800033004EB3A
:1067B40080003146FFF7A4FE029B814650B1226857
:1067C4009A4204D86260284607B0BDE8F08308EA1C
:1067D4000300EBE7591C01EA080104EB810108EA14
:1067E4000302C968049104EB8202991CD2680392E3
:1067F40001EA0801033304EB8101029302F003036D
:10680400C9680591022B54D1BDF80E306648C3F314
:106814008917502F3D46A8BF502565F38F1305F106
:106824000C01ADF80E3001F089F90646002800F09D
:10683400AF8001F0B4F90C220DEB02014B46304657
:1068440001F0C0F9029928EA01020132920095424E
:1068540027D9002A00F0968008EA01015FFA82F83D
:10686400A5EB080503315FFA85F9504D04EB81016E
:106874000C234246304601F0A5F935B108F10C036A
:106884004A462946304601F09DF9029B033703EB43
:1068940097030293D4F81834002B41D1D4F8105440
:1068A4004AE008EA010103310C232A4604EB810182
:1068B400E8E7012B6CD1BDF80C303B48C3F38311DE
:1068C400062928BF062161F3891303318900ADF835
:1068D4000C3001F033F90646002859D001F05FF975
:1068E4000C224B460DEB0201304601F06BF9BDF86A
:1068F4000C20C2F3831209F1030391454FEA830389
:10690400C8D202994A1C08EA01010331029204EB3D
:1069140081010422304601F055F909F10109E6E745
:10692400304601F040F9FFF721FF80F00100C5B2C5
:1069340049E76B7A7BBB6D68002DFAD1304601F0D4
:1069440032F906A800F8115D00F04CFED4F81834B2
:106954000BB9029B63609DF8070000F067FEE2E755
:10696400236820469B6898476468002CF8D1104B34
:1069740010491888000440F0020000F07FF8D2E7C4
:10698400002520E75FFA85F80849154691466FE728
:10699400D4F81044E9E72B6831461B682846984729
:1069A400C9E700BFB8330020ECA50200C4330020BF
:1069B400383200207CA602002DE9F74F2D4C814689
:1069C4008846174601A9012218469B46A568FFF789
:1069D400C3FDD0B3DDF804A000260AF103025E452E
:1069E4003DD10021244800F037FE80F310000AF165
:1069F40001022A4004EB8202000440EA1940D060FC
:106A0400D4F80C340AF1020798472F4004EB8707A7
:106A140005EA0A030333F86014F8232069F3C50276
:106A240004F8232034F8232066F3891224F8232061
:106A340054F82320012168F39F2244F8232061F3B2
:106A440001026FF3820204F8232094F820341BB16E
:106A5400FFF796FE0028FBD103B0BDE8F08F02EAF1
:106A6400050104EB810157F82630CB600136013271
:106A7400B5E700BFB8330020D437002000231A46FE
:106A8400FFF79ABF13B502AC012344F8042D224644
:106A9400FFF792FF02B010BD07B58DE80C0002238A
:106AA4006A46FFF789FF03B05DF804FB7FB58DE804
:106AB4000C00089B0293099B03930A9B04930B9B72
:106AC40005936A460623FFF777FF07B05DF804FBDA
:106AD4000F4A30B5D2F810440023214641B903725D
:106AE400D2F810444CB9C2F810044160184630BDC5
:106AF4000D7A9D4205D04968F0E7626842606060A3
:106B0400F4E701330A2BE8D14FF0FF33EEE700BF7F
:106B1400B8330020084A38B50123D2F8104482F86B
:106B240020341D4604B938BD2368657220465B686D
:106B340098476468F6E700BFB8330020F0B5C3880F
:106B440085B004460D4633B1294A009229492A4AA0
:106B5400284600F025FE217A052946D0637A4BB1F8
:106B6400A088FFF7EDFD254B254953F82020284642
:106B740000F016FE234A23681168B3FBF1F1224B9F
:106B84001F68B1FBF7F34FF461664FF47A70B3FBFF
:106B9400F6F206FB123607FB13134FF03C0E00FB14
:106BA40003F1B6FBFEF3B1FBF7FC0EFB136607FB28
:106BB4001C11CDF804C0009641432846B1FBF7F1FF
:106BC4000291124900F0ECFD227A114BA08853F88F
:106BD40022600021FFF796FD0E49034632462846FF
:106BE40005B0BDE8F04000F0DBBD05B0F0BD00BF6E
:106BF400F7A60200DFA60200D7A60200A4A60200A0
:106C0400FCA60200E0370020DC370020FFA60200CB
:106C140028A702001BA70200037A052B10B50C4617
:106C24000FD0437A23B1084A0849204600F0B8FD42
:106C34000749204600F0B4FD2046BDE8104000F0AE
:106C4400A4BD002AF8D0F3E7F7A60200FCA60200D0
:106C5400F4A602002DE9F04385B01F460C9D0023E5
:106C640006460C46904695F80C902B7329463846F8
:106C7400FFF764FFB8F1060F09D8DFE808F0041243
:106C8400181F283340003146284600F089FD0022B1
:106C940029463846FFF7C0FF85F80C9005B0BDE8DB
:106CA400F08322683146284600F07AFDEFE794E845
:106CB4000C003146284600F073FDE8E7A368009312
:106CC400314694E80C00284600F06AFDDFE7E368EB
:106CD4000193A3680093314694E80C00284600F021
:106CE4005FFDD4E723690293E3680193A3680093EB
:106CF400314694E80C00284600F052FDC7E763696A
:106D0400039323690293E3680193A36800933146D4
:106D140094E80C00284600F043FDB8E708292DE963
:106D2400F84F80460E4617461C4636D8002593F881
:106D34000C901D7319461046FFF700FFDFF87CA086
:106D4400DFF87CB0AE422AD918F80520594620460F
:106D540000F026FD0135082DF4D11649DFF864B0A2
:106D6400204600F01DFD0025AE421DD918F805A0EF
:106D7400504603F035FB002814BF52462E225946D4
:106D8400204600F00DFD0135082DEDD101222146EC
:106D94003846FFF741FF84F80C90BDE8F88F514660
:106DA400204600F0FDFCD5E70349204600F0F8FC3E
:106DB400E9E700BFD2A60200D0A60200CEA60200D8
:106DC400C8A60200D4A60200084A10B50123084C44
:106DD40013600021A04204D801B11360054B186070
:106DE40010BD40085B000121F4E700BFE03700203C
:106DF40040420F00DC3700202DE9F84FDFF8A4B043
:106E04000025254B1B78ECB2A34201D8BDE8F88FCE
:106E1400224BD3F8008018F8349001204A46002110
:106E240003F00CFADBE9002300EA020601EA030797
:106E34003E4308EBC40A2CD023EA010122EA0000F5
:106E4400CBE90001484601F0E3FB18F834408146E1
:106E540022460120002103F0F1F9114BD3E9006728
:106E6400224606400F404846002103F0E7F98F42CE
:106E740008BF86420DD1DAF8043053B19AF80110F4
:106E84004A1E51425141A1EB090041424141204671
:106E940098470135B5E700BFE437002020380020CB
:106EA40010380020183800202DE9F84307461F4801
:106EB40000F082FB002837D13A460120002103F07C
:106EC400BDF91B4B04460D46D3E9000104EA000852
:106ED40005EA010958EA09021E461FD1384601F0A5
:106EE40097FB144B98B1D3E9000120432943C3E92C
:106EF4000001D6E900231D430F4B0C4819681443C5
:106F0400C6E900450022BDE8F84300F00FBBD3E911
:106F1400000120EA040021EA0501E8E720EA04046C
:106F240021EA0505C3E90045BDE8F883EC370020F4
:106F34001838002010380020E8370020042AF7B55C
:106F440005460C46164638D901F090FAC8B11C4BD8
:106F54001C491D601C4B1D4F1C701D4B00221E60E4
:106F64000023C1E900231B49C1E90023013CE4B229
:106F74000026FF2C0BD1184A1848002100F0C4FA4F
:106F840003E001F03BFA0028E1D003B0F0BD23B2E6
:106F940005EBC302032192788DF804108DF80520C7
:106FA40001A93A4615F833008DF8066001F068FA35
:106FB400013CE4B20028DCD0E7E70720E5E700BFA6
:106FC4002038002010380020E4370020AD6E020085
:106FD400E837002018380020FD6D020088A7020061
:106FE40070B5084D084E00242B789C4201D3002034
:106FF40070BD3368012113F8340001F0BFFA013485
:10700400F2E700BFE4370020203800201FB500213C
:10701400039001AA44F201000191029100F004F8E6
:1070240005B05DF804FB000010B572B6FFF772FD01
:10703400FFF7A6FB0028FBD1104C1149208800045F
:1070440040F00100FFF71AFD0E4B1B68DB0700D56B
:1070540000BE20880C49000440F00200FFF70EFD3A
:10706400BFF34F8F09490A4BCA6802F4E062134325
:10707400CB60BFF34F8F00BFFDE700BF3832002065
:107084008CA70200F0ED00E098A7020000ED00E0FC
:107094000400FA05094A537891780133DBB2994226
:1070A40008BF0023117899421FBF0370507818233A
:1070B40003FB002014BF0430002070472438002054
:1070C40073B5054602A8002400F8014D0E4600F0F1
:1070D40089FA0DF10600FFF7DDFF90B106700A4B47
:1070E4009DF8062045605A709DF8070000F09EFA4E
:1070F40024B9064B4FF48012C3F80021204602B095
:1071040070BD0424F0E700BF2438002000E100E053
:10711400024B4FF43C6043F001031847B0A7020050
:1071240038B50C4B0C4C4FF40032C3F880200125C9
:107134004FF48033C4F84833C4F808336560FFF76C
:10714400E7FF064BA56000241C60FFF7E1FF044B3A
:107154001C7038BD00E100E00010014040390020FF
:1071640031390020F8B51F4B1F491B680025C1F8B1
:107174004051C1F84451C1F84851C1F84C51C1F8CB
:107184000051C1F804514BB3D1F8044517490968BB
:10719400641A24F07F442F461A68A24209D8A41A1C
:1071A40015441A7CDE691AB11F745A6998699047AC
:1071B400AEB90F4B0F4A197813788B4205D10133BE
:1071C400DBB2022B08BF0023137012780A4B43F87A
:1071D40022500A4B4FF48012C3F80021F8BD334605
:1071E400DAE700BF44390020001001404039002094
:1071F4003C3900203D3900203439002000E100E012
:107204002DE9F74F9C4A9D49137809789C4E994281
:1072140057D00133DBB2022B08BF00231370994906
:107224001278994B0F6853F822003B1823F07F43E0
:1072340000220B60336815461446964613B942B1D2
:10724400336006E01968814229D902B13360091A12
:1072540019604FF0010833688C4FDFF83CB200939B
:107264004FF00009002D61D02C46ED69854B606814
:107274001A68831A23F07F41854B9942A36800F270
:10728400B7800B44236000236360A360E361336829
:1072940001222274002B40F0B3803460E2E7401AEC
:1072A4000C44D968C3F800E0D3F81CC031B13A19D2
:1072B40022F07F42DD615A6099601D4663460122D7
:1072C400BCE70025A846C6E7531CB978DBB299424F
:1072D4003B704FF0180303FB027208BF3D70137933
:1072E4009468022B1BD0032B11D0012B1ED1217CBF
:1072F400E1B9D36863601369A3605369E360936978
:10730400A361644B1B78002BB0D06160AEE700230F
:1073140035681A46002D67D143B1356006E03268FE
:1073240013469246002B5AD1002323743A787B7873
:107334009342C9D1B9F1000F06D13368009A9A4239
:1073440002D1B8F1000F44D03368002B73D0D3F8C6
:1073540000A0514D4B4BD5F804751C68DFF84081F3
:107364003E1B98F8003026F07F4603369BB94FF455
:107374008033C5F84433C5F80433484B4FF4003226
:107384004FF00109C3F880211A60C5F80090FFF797
:10739400BFFE88F80090B2452CBF5444A41924F0D1
:1073A4007F44C5F84045D5F80435DB1B23F07F4303
:1073B400E41B033324F07F44A3420AD9D5F80435EF
:1073C400C5F84035FFF7A4FE344B4FF40032C3F840
:1073D4000021304B00221A7003B0BDE8F08F9C42AC
:1073E4002CD09A46DB699DE72A740123ED6991E765
:1073F400121A22F07F429A4234BF9B1A002341E7BB
:10740400226819688A420BD88A1A1A60E36144E731
:10741400521AD969184661B92260E161DC6121E739
:10742400184619689142F3D3891A1960194603461C
:10743400F2E70B46F5E7FFF773FECAE754450DD1B3
:10744400D369336053B90F4801920121CBF8081076
:107454000360104B1970FFF75BFE019AE169236822
:10746400CAF81C1011B1086803440B6033689A42CF
:1074740018BF4FF0010957E73C3900203D3900207F
:1074840044390020403900203439002024380020B9
:10749400FEFF7F00303900200010014000E100E0D1
:1074A4003139002010B5FFF73BFE114B00200B22B1
:1074B40018709A7058700F4B18600F4B18700F4B60
:1074C40018700F4B4FF48012E021C3F8802183F829
:1074D40014131A6002F18042A2F56F221F24C2F82D
:1074E400084583F81113074BD2F804251A6010BD20
:1074F40024380020443900203C3900203D39002044
:1075040000E100E040390020074B9B784BB132B1D9
:1075140028B10368187C20B959745A617047072050
:1075240070470820704700BF243800202DE9F74336
:107534001E4FBB7805460E469046ABB3A0B3042954
:1075440030D9436983B3437C02A80024012B00F89B
:10755400014D0CBF8946A14600F044F80DF1060028
:10756400FFF798FDE0B101230370114B4560D3F898
:10757400043583609DF80630C660C0F81090C0F8EA
:1075840014807B709DF8070000F050F824B9094B73
:107594004FF48012C3F80021204603B0BDE8F08305
:1075A4000424EFE70724F7E70824F5E7243800204C
:1075B4000010014000E100E0064A92783AB130B18F
:1075C400426922B1002202740221FFF779BD08202A
:1075D400704700BF24380020014BD3F804057047DE
:1075E4000010014070B5EFF3108672B60C4A94682F
:1075F40001239CB993600B4B0B4DD3F880102940A9
:107604001160C3F88050D3F8841051604FF0FF32FA
:10761400C3F88420047006B962B670BD0370FAE73B
:107624004839002000E100E0FC06FFBD084B9A68E1
:1076340010B55AB150B9EFF3108272B605491C68FF
:107644000C605C684C60986002B962B610BD00BF03
:107654004839002000E100E000B550E8002F0B4657
:1076640040E8003E9EF0000FF7D110465DF804FBA1
:1076740000B550E8003F43EA010240E8002E9EF0C6
:10768400000FF6D110465DF804FB00B550E8002F5A
:1076940002EA010340E8003E9EF0000FF6D11046D6
:1076A4005DF804FB00B550E8003F03EB010240E83D
:1076B400002E9EF0000FF6D110465DF804FB00B5D5
:1076C40050E8003FA3EB010240E8002E9EF0000FBB
:1076D400F6D110465DF804FB0121FFF7C9BF002174
:1076E400FFF7D3BF10B590B14268836801689B1A55
:1076F400DBB20A60013BDBB2FF2B026802D100203F
:10770400107110BD11684C1C14600B70F2E70E2050
:1077140010BD37B5054602A8002400F8014DFFF757
:1077240061FF2A686B68116899420ED9481E10607F
:1077340011F8014CEB68A98A01FB0434AB68117998
:107744001B1ADBB2994238BF13719DF80700FFF78B
:107754006DFF204603B030BD37B5054602A80023AF
:1077640000F8013D0C46FFF73DFF2A681368591CD9
:107774001160E968641AA98AB4FBF1F41C709DF8DD
:107784000700FFF753FF03B030BD826810B504460D
:107794002AB143690168006998470023A36010BDBA
:1077A4000EB403B5039929B102AA04AB42F8043D0F
:1077B40000F06CF802B05DF804EB03B07047826827
:1077C40030B40468551C8560A154826843689A42A9
:1077D40002D330BCFFF7D9BF30BC70472DE9F84F56
:1077E4000A9C99460B9B1746824688460A46012600
:1077F400BA420FD24E4538BF4E4613F0010B01D1A9
:1078040064B900240125B9F1010F1AD909F1FF392E
:107814007D43F8E7B2FBF7F20136E9E79B070ED5A3
:10782400B9F1000F0CBF30252025A642EAD2013C55
:1078340029465046FFF7C3FF002CF6D1E1E7202587
:10784400F3E7B8FBF5F39F42E2D9DFF83C90B8FBCD
:10785400F5F3504619F8031005FB1388FFF7AFFF43
:10786400B5FBF7F5002DF2D1BBF1000F0AD03CB9FE
:10787400BDE8F88F013C20215046FFF7A0FF0CB172
:10788400A642F7D3BDE8F88FB6A702002DE9F74F5B
:10789400054617460C46002900F0358114F8011BF3
:1078A40049B92B7B002B00F02E81284603B0BDE89C
:1078B400F04FFFF76ABF252940F0218123460026B7
:1078C400194611F8012B2D2A24D0302A26D02B2A30
:1078D40027D000242A2A994603F1010124D13B68C8
:1078E4001A1D1B683A601C44894699F800302E2BF7
:1078F40025D109F101014FF00008894611F8012B47
:10790400A2F1300009281CD80A2303FB0823A3F1A1
:107914003008F2E746F001060B46D1E746F00206CE
:10792400FAE746F00406F7E71A780B46A2F13001AD
:107934000929DAD80A2101FB0424303CCAE74FF0B4
:10794400000899F8001001F0FB02682A02D119F826
:10795400011FF8E769290FD04BD8582965D007D8FB
:1079640025296ED009F101042378002B96D198E7DC
:10797400632962D06429F5D13A68D2F800A0111DB8
:107984008AEAEA723960A2EBEA724FF0010B092A23
:107994005BDCC34538BFC3462CB1BAF1000F01DB31
:1079A400710700D5013CB20702D5B8F1000F04D02D
:1079B400F30702D4002C4ED10024BAF1000F52DA9E
:1079C400CAF1000A2D212846FFF7F9FE06F003024A
:1079D400022A05D1B8F1000F02D1002C47D10024AE
:1079E4008DE8500043460A2251462846FFF7F6FE2A
:1079F400B8E773294CD014D87029B3D13B681A1D49
:107A04003A60302128461C68FFF7D9FE78212846C1
:107A1400FFF7D5FE0023019308230093102221468B
:107A2400E3E775292BD078299CD139680A1D3A607F
:107A340043468DE85000102228E03B681A1D19784F
:107A44003A602846FFF7BBFE8CE70A230BF1010BD3
:107A540092FBF3F29BE7A345AFD220212846013CD9
:107A6400FFF7ADFEA6E77007B0D52B21ABE7A34522
:107A7400B6D230212846013CFFF7A1FEADE73968B4
:107A84000A1D3A608DE8500043460A220968ACE7B3
:107A94003B681A1D3A60F107D3F800A012D5564688
:107AA400A6EB0A0B16F8011B41B95C457FF65AAFE9
:107AB40020212846013CFFF782FEF6E72846FFF71F
:107AC4007EFEEDE7BAF1000F11D0504602F01FFD23
:107AD4000646B44200D964B90AF1FF3A1AF8011F04
:107AE40000293FF43FAF2846FFF769FEF6E7564604
:107AF400EFE720212846013CFFF761FEE9E728462D
:107B0400FFF75DFE30E703B0BDE8F08FFFF7EABD95
:107B1400F8B546790446721E00239342246804D3C0
:107B240001460025B54202D3F8BD0133F5E70F68DD
:107B34002046FFF711FE01353946F3E72DE9F843F6
:107B4400878ACD1C8046FFF7E4FD043F3D4404468C
:107B5400B5FBF7F5002650B10123EDB20671437170
:107B6400C780013DC0F800808146AE4202D3204662
:107B7400BDE8F8834046FFF7CCFD074648B163797A
:107B8400013363710136C9F80000C0F800808146F2
:107B9400EBE72046FFF7BCFF3846BDE8F883012138
:107BA4000430FFF77FBD10B5012104460430FFF710
:107BB40086FD10F0FF0F04D12046BDE81040FFF70A
:107BC400A7BF10BD2DE9F843C68804330F46B3FBA5
:107BD400F6F4154606FB143380463CB9A6EB0309BC
:107BE400A94528BFA9462DB9BDE8F883D8F8008077
:107BF400013CF2E7043308EB0300A5EB09054A4610
:107C0400391902F028FCAE424C44D8F80080B14641
:107C14004FF0000328BFA946E5E72DE9F843C688DD
:107C24000F46191D1546B1FBF6F4804606FB1411E8
:107C34003CB9A6EB0109A94528BFA9462DB9BDE861
:107C4400F883D8F80080013CF2E704314144A5EB05
:107C540009054A46381902F0FEFBAE424C44D8F8F6
:107C64000080B1464FF0000128BFA946E6E741DF96
:107C740070470000064B10B500241C70054B1C60B7
:107C8400BFF35F8F0449054800F030F8204610BD6B
:107C94005C39002060390020C8A702005439002054
:107CA40007B502A8002300F8013DFFF79BFCF1EEA5
:107CB400103A23F09F03E1EE103ABFF35F8F0A4BB3
:107CC4004022C3F884219DF80700FFF7AFFC02F0BF
:107CD40033F920B1FFF7CBFF03B05DF804FB20BFFD
:107CE40040BF20BFF8E700BF00E100E00B684A682E
:107CF4004360934208BF0023016008BF436070479C
:107D0400436843B10268916852680B4493424360EC
:107D140004BF0023436070470D4930B5A1F5947248
:107D24000225914201D8002030BD8B1ADB1093FB51
:107D3400F5F302EBC30452F83330834205D802D280
:107D440004F10802EDE7606830BD2146E9E700BFB1
:107D540018A9020008B5FFF7DFFF024B002808BF8F
:107D6400184608BDDDA70200054B1B68082B01BFA0
:107D7400044B1868B0FA80F0400918BF002070471F
:107D8400300100103401001008B54FF08043002288
:107D9400C3F80C21C3F81021C3F838254FF08052E2
:107DA40003F54043D2F80414C3F82015D2F808149C
:107DB400C3F82415D2F80C14C3F82815D2F81014FB
:107DC400C3F82C15D2F81414C3F83015D2F81814CB
:107DD400C3F83415D2F81C14C3F84015D2F8201493
:107DE400C3F84415D2F82414C3F84815D2F828145B
:107DF400C3F84C15D2F82C14C3F85015D2F830142B
:107E0400C3F85415D2F83414C3F86015D2F83814F2
:107E1400C3F86415D2F83C14C3F86815D2F84014BA
:107E2400C3F86C15D2F84424C3F87025FFF79CFFFF
:107E340010B1384B384A1A60FFF796FF18B1374B28
:107E4400FB22C3F81825FFF78FFF48B13449354B9F
:107E54000A681B6822F00F0203F00F0313430B6040
:107E6400FFF782FF18B1304B4FF400721A604FF0E5
:107E74008043D3F80024D20744BF6FF00102C3F853
:107E840000242A4AD2F8883043F47003C2F88830B8
:107E9400BFF34F8FBFF36F8F4FF01023D3F800223F
:107EA400002A03DBD3F80432002B2FDA204B012203
:107EB400C3F80425D3F80024002AFBD04FF0102285
:107EC4001221C2F80012D3F80024002AFBD04FF08C
:107ED40010231222C3F80422154B1A46D3F80014B7
:107EE4000029FBD00021C3F80415D2F80034002B7C
:107EF400FBD0BFF34F8F0D490E4BCA6802F4E0620A
:107F04001343CB60BFF34F8F00BFFDE70A4B0B4A0F
:107F14001A6008BD8C5600404881030000F0004000
:107F2400E40E0040580200104096024000ED00E0CC
:107F340000E001400400FA05743200200090D003F0
:107F4400074B1B5C1F2B8ABF064A4FF0A04203F06D
:107F54001F03D2F80405D840C04300F00100704765
:107F6400D6AC020000030050074B1B5C1F2B86BFDE
:107F740003F01F0305494FF0A041012202FA03F365
:107F8400C1F80C35704700BFD6AC020000030050A6
:107F9400074B1B5C1F2B86BF03F01F0305494FF0E3
:107FA400A041012202FA03F3C1F80835704700BF6B
:107FB400D6AC02000003005008B50020FFF7E8FF2C
:107FC4000120FFF7E5FF0220FFF7E2FF0320BDE8F1
:107FD4000840FFF7DDBF08B50020FFF7C5FF01200B
:107FE400FFF7C2FF0220FFF7BFFF0320BDE80840F0
:107FF400FFF7BABF0A4B185C1F288ABF094B4FF022
:10800400A04300F01F00D3F804250121814021EA98
:1080140002000A40C3F80805C3F80C25704700BFE6
:10802400D6AC0200000300500B2809D00C2809D05C
:10803400182809D019280CBF03204FF0FF307047CF
:10804400002070470120704702207047C20770B5B6
:10805400044614D5154D164E00220320535D1F2BE4
:1080640086BF03F01F0331464FF0A04103F5E073D0
:108074000132042A41F82300F0D1FFF79DFFA30742
:1080840012D50C4C0A4D00220C20135D1F2B86BF09
:1080940003F01F0329464FF0A04103F5E0730132BA
:1080A400042A41F82300F0D170BD00BFD6AC020011
:1080B40000030050D2AC020038B5084C04F10803A8
:1080C4000546002818BF1C4623682BB11A68226095
:1080D4005B6828469847F7E738BD00BF6C39002035
:1080E40020B9054B01225A70FFF7E6BF012802D1DF
:1080F400014A9070F8E770476439002020B9034BB7
:1081040001225A70FFF7D8BF704700BF64390020BE
:1081140038B50B4C237883B90A486360A3602361A4
:10812400E36000F0D1F8054601F006FF08B900F05D
:10813400D9F801232370284638BD8525FBE700BF05
:1081440064390020E580020037B502A80023094CF9
:1081540000F8013DFFF746FAE368013BE360E56898
:1081640015B900F0D3F8A5709DF80700FFF75EFA83
:1081740003B030BD64390020012813B509D003D3FE
:1081840003281BD002B010BD0F4B0122C3F880207E
:10819400F8E702A800230D4C00F8013DFFF722FA8E
:1081A40023780BB9FFF7B4FFE3689DF807000133A8
:1081B400E3600123A370FFF739FAE3E700F092F8D4
:1081C400FFF7C2FFDEE700BF00E100E064390020F2
:1081D4001FB503788DF8003043680193037A8DF856
:1081E4000830C3680393054A054B684653F82130A9
:1081F40052F82110984705B05DF804FB7839002047
:10820400803900201FB503788DF80030436801934E
:1082140083688DF80830C3680393054A054B6846A4
:1082240053F8213052F82110984705B05DF804FB4B
:108234007839002080390020F0B5194B0678DFF832
:1082440070C043F82620174B96460A6943F8262047
:108254004B7F0CF806300C4607460FCC89B06D46B0
:108264000FC594E80F0085E80F001CF8063004964B
:1082740053B1BEF1000F0C4A694608BF0022381DF5
:1082840000F040FE09B0F0BDBEF1000F074A694698
:1082940008BF002207F10C0000F016FCF2E700BF53
:1082A4008039002078390020D5810200098202003B
:1082B4008839002000F180400023036082B0036805
:1082C4000193019B02B07047054A13792BB9012130
:1082D400106011715371184670478520704700BFB4
:1082E4008C390020084B1A68D20706D4E02283F8A0
:1082F40000230122C3F880211A604FF08043012239
:10830400C3F81825704700BF00E100E0044B0122C8
:108314001A604FF08042D2F81834DB03FBD4704764
:108324000C000040124B1B6810B573B14FF4807001
:10833400FFF7C0FF4FF080430122C3F808230D4B21
:10834400587910B95A711B6898470B4B1B6873B165
:108354004FF48270FFF7AEFF4FF080430222C3F860
:108364000823044B01201B68BDE81040184710BDCA
:10837400000100408C3900200401004000F18040DD
:1083840000F5C040002382B0036003680193019BA1
:1083940002B0704703681F2B83BF03F01F03036001
:1083A40001484FF0A04070470003005007B502ABEE
:1083B40043F8040D1846FFF7EDFF019B00EB830023
:1083C400D0F8003723F44033C0F80037D0F8003732
:1083D40043EA0141C0F8001703B05DF804FB000054
:1083E400054B4FF0FF32072843F8202084BF1B18A9
:1083F40083F85820704700BF9439002010B5174CFB
:1084040094F86A3043BBFF21E2180133302B82F821
:108414003010F9D10021C8B2FFF7E2FF01310C2975
:10842400F9D1002106220E4802F03EF80D4BE0225D
:1084340083F806234022C3F880214FF4BE701A60EB
:10844400FFF79CFF084B4FF00042C3F804230123BD
:1084540084F86A30002010BD082010BD9439002033
:10846400F839002000E100E000600040034B93F87D
:108474006A00003018BF0120704700BF9439002003
:10848400F7B53C4C2318064693F93030002B6FDACD
:108494008878C0F3400000280BBF082300230C2574
:1084A4000825AB4202D1042003B0F0BD54F8237078
:1084B400013745D1A7195DB287F8305044F823201D
:1084C40010B9234483F858608B785A0718D4D80716
:1084D40038D502A840F8086DFFF75CFF009B00EB5D
:1084E4008300D0F8003723F00203C0F80037224895
:1084F400F20806F007070123BB40875C3B43835423
:1085040088780A7810F0020029D0AB0003F1804388
:1085140003F5C0433602D3F8101521F44F3121F48A
:108524004071C3F810151204D3F8101506F47C56E4
:1085340002F4403216430E43C3F810650020B3E73B
:108544000133AEE702A84A7840F8046DFFF722FF32
:10855400019B03F5E073920040F82320C7E7083D30
:108564002C4494F8606046EA821284F860209BE709
:10857400082099E794390020F839002073B5224C7B
:108584002518064695F93020072A1ADD224492F868
:1085940058309B09032B10D102A840F8046DFFF753
:1085A400F9FE019AD0F81035D340DB0707D4022135
:1085B4003046FFF7FBFE02B070BD012BF7D003215C
:1085C400F6E7D3B2072BF6D8930003F1804303F503
:1085D400C043D3F8100540F00100C3F8100502F1C0
:1085E4004000800080B2FFF7C9FE0029E3D095F96E
:1085F400303054F82330002BDDD0012303FA02F28B
:10860400024BC3F80423D6E79439002000600040ED
:1086140007B502AB43F8040D1846FFF7BBFE019BF8
:10862400D0F81005D84000F0010003B05DF804FB59
:108634002DE9F04F89B00024614A624E624D0294E4
:1086440003940121A2F5C04052F8043B012B80B2EF
:1086540006D1D6F804330B4202D0FFF78FFE0C4349
:10866400AA424FEA4101EDD1584B1B68012B0ED1B0
:108674004FF4BE70FFF782FE4FF0A04344F0004475
:10868400D3F810350293524BD3F81035039314F0FA
:10869400FF0F34D1002C80F28F8004AE00230493AA
:1086A40073604C4F4FF0FF33069307934FF001086C
:1086B400002425467B1993F96020531C63D0D2B261
:1086C40022F0C00908AB4FEAD90003EB000B02F01B
:1086D40007011BF8083C08FA01F10B4253D007EBE1
:1086E4000903920993F9303057F823A0BAF1000F27
:1086F40021D1032A47D1335C0B4333541DE0354F5A
:1087040001260025344210D0AB0003F1804303F569
:10871400C043D3F81005D3F8101557F8253023B10A
:10872400C1F30141C0F3052098470135082D4FEAF4
:108734004606E7D1AEE7032ADDD001A8CDF80490C0
:10874400FFF728FE019B03F5E07350F823301BF874
:10875400180C0842C3F3014305D0022B13D1032A9A
:108764000BD1114604E0032B0DD1032A05D10221BC
:108774004846FFF71BFE0134E4B2BAF1000F02D001
:1087840011464846D0470135042D93D1A4B14FF08A
:10879400A0430299D3F8102503F540739142D3F80E
:1087A400103502D10399994206D002920393049A98
:1087B400059B069207937BE709B0BDE8F08F00BFE5
:1087C4000061004000600040206100407C61004086
:1087D4000003005094390020014B1B68184700BF68
:1087E400003A00200D4B984237B50D4610D102A82F
:1087F400002300F8013DFEF7F5FE094B1C7914B97E
:1088040001221D601A719DF80700FEF70FFF14B9CD
:10881400002003B030BD1120FBE700BF0020004062
:10882400003A0020034B984201BF034B00221A6018
:108834001A71704700200040003A00200023435082
:1088440082B043580193019B02B070472DE9F04177
:10885400234E244FDFF8908000254FF48034D7F85E
:108864000433A6F58041234289B20CD0336853B156
:10887400C7F848433846C7F80843FFF7DFFFE8B2B4
:10888400D8F8003098470135042D4FEA440406F126
:108894000406E4D1134CD4F80433DA070BD5D4F826
:1088A400003143B120464FF48071FFF7C7FF0E4BF0
:1088B40028461B689847D4F804339B070DD5D4F891
:1088C400043153B107484FF48271FFF7B7FF064BE9
:1088D40005201B68BDE8F0411847BDE8F08100BFE2
:1088E4004041024000400240083A00200023435027
:1088F40082B043580193019B02B070470A4610B5F9
:108904004FF48E71FFF7F2FF136A9168C95C136A22
:1089140001331362C0F81C1510BD8B690A4610B5EB
:108924004FF4847123B9FFF7E1FFD0F8183510BD77
:10893400FFF7DCFF536AD168D0F81805C854536AAE
:108944000133536210BD00001FB501238DF80030C0
:10895400044B02900191684693E80600904705B0E5
:108964005DF804FB0C3A002030B54D4AD2F80433CC
:1089740013F4007F85B015464FD0D2F82431002B74
:108984004BD04FF492711046FFF7B0FF4FF40173D0
:10899400C2F80833434B93F8291009B901215160F7
:1089A4003F4902228DF80020D1F88024C1F88024A8
:1089B40003929A690292DA68019200229A61DA615A
:1089C400684693E8060090473548D0F81C315BB1FF
:1089D40034490A6A4B699A420A464CD291F82830C3
:1089E400002B48D1FFF78AFF2D4AD2F8443193B1C6
:1089F4004FF4A2711046FFF779FF2A4B93F8291020
:108A040009B1012111609A692AB100229A61586A58
:108A1400D968FFF799FF05B030BDD5F804335B077B
:108A2400D2D5D5F80831002BCED01E4C1C48214697
:108A3400FFF773FF636AA2699A422346C4D1E269CD
:108A440052B12369E168E3600023606AA261E361D3
:108A54006362FFF779FFB7E794F829200AB9012286
:108A64006A600F4A4FF40171C2F8081300229A6138
:108A7400586AD968EDE74FF48E710948FFF736FF5D
:108A840051690029B0D00023029191688DF800301B
:108A940001915361684692E80A009847A4E700BF31
:108AA400002000400C3A00201F2886BF00F01F0061
:108AB400044B4FF0A04300F5E070022243F820205D
:108AC400704700BF000300502DE9F843674B047959
:108AD40091462C2202FB0432064692F82A200D46C7
:108AE4009846002A40F0BE8061490068FFF77AFE8C
:108AF4000746002840F0B88029684A1C10D01F2976
:108B040087BF01F01F035B4A0B464FF0A0420120D0
:108B1400984003F5E073C2F80805032042F82300E7
:108B24006868431C0DD01F288BBF00F01F03034649
:108B3400504A4FF0A04203F5E0734FF0000E42F8A4
:108B440023E03368AA6995F814E0C3F824256A7D04
:108B5400BEF1010F4EEA0202C3F86C25C3F81405F6
:108B6400C3F80C152BD1A968481C0DD01F298BBF45
:108B740001F01F020A463F484FF0A04002F5E072A0
:108B84004FF0000E40F822E0E868421C13D01F2882
:108B940087BF00F01F0E374A86464FF0A0424FF0C1
:108BA400010C0CFA0EFC0EF5E07EC2F808C54FF07D
:108BB400030C42F82EC0C3F80805C3F810152C2383
:108BC400634308EB0302C2F804902A6948F80320BF
:108BD400B9F1000F33D04FF48E7130682D7FFFF759
:108BE40085FE30684FF4A271FFF780FE3268224B95
:108BF400C2F80433120B53B2002BA8BF03F1604038
:108C04004FEA53134FEA4511BABF1C4802F00F054F
:108C140000F561404FEA8303B4BFC9B2C9B203F19E
:108C24006043B4BF415580F8001303F5614302F07B
:108C34001F02012101FA02F2C3F880211A6033688D
:108C44000422C3F800252C2303FB048300229A6129
:108C5400DA6183F829205A61012283F82A203846F0
:108C6400BDE8F8830827FAE71127F8E70C3A002053
:108C74006D890200000300508000020014ED00E042
:108C84002DE9F04103680479254D0022C3F800253D
:108C94002C2202FB04520646526872B1214AC3F8E0
:108CA4000823190B4AB20120520901F01F0100FAEE
:108CB40001F120321C4840F82210D3F80C05D3F8F7
:108CC4001485D3F80815D3F810754FF0FF3290428D
:108CD400C3F81425C3F80C25C3F80825C3F81025D8
:108CE40001D0FFF7E1FEB8F1FF3F02D04046FFF7A5
:108CF400DBFE7A1C02D03846FFF7D6FE4B1C02D0AE
:108D04000846FFF7D1FE3068FFF78CFD2C2303FBE8
:108D14000454002384F82A306360BDE8F08100BF66
:108D24000C3A00208402020000E100E02DE9F8433F
:108D3400234F06794FF02C0909FB067480466569B8
:108D4400002D37D16261A16025624FF48E710068F5
:108D540084F82850FFF7CAFDD8F800000123836087
:108D64002146FFF7CBFD6368A14633BBD8F800501A
:108D7400226A63699A4212D3D8F80030D3F81C21CE
:108D8400002AFBD00122DA6000202C2303FB0676A4
:108D940000237361BDE8F88394F8283043B9D5F80B
:108DA4001C31002BF8D049462846FFF7A7FDDFE722
:108DB4000F20EAE71120BDE8F8832846BDE8F883D0
:108DC4000C3A00200023435082B043580193019B86
:108DD40002B070471FB501238DF80030054B8DF8A4
:108DE40008000191684693E80600904705B05DF8D5
:108DF40004FB00BF383A00207FB5384AD2F824611A
:108E0400002E49D010464FF49271FFF7DBFF022386
:108E14008DF80030D2F88034C2F880340393D2F84D
:108E24003C358DF808302E4BDA68019200229A61A5
:108E3400DA61684693E806009047284AD2F844313C
:108E440073B14FF4A2711046FFF7BCFF244B99692C
:108E540031B100219961D2F83C05D968FFF7BAFF16
:108E64001E4AD2F82031ABB14FF490711046FFF78F
:108E7400A9FF1B4B596969B1D2F84C158DF808103C
:108E8400002299688DF8002001915A61684693E8A0
:108E94000600904704B070BDD2F81031002BCCD03E
:108EA4004FF488711046FFF78DFF0D4BD2F83C0547
:108EB40099698842C1D1DC696CB1D2F80052D96891
:108EC40025F02005C2F800521A699C61DA60DE615F
:108ED400FFF780FFB1E79C61D968F9E70020004003
:108EE400383A00201F2886BF00F01F00044B4FF0C3
:108EF400A04300F5E070022243F82020704700BF31
:108F0400000300502DE9F8436B4B06799146242267
:108F140002FB0632044692F820200D469846002AA9
:108F240040F0C68065490068FFF75CFC07460028EE
:108F340040F0C0802868421C10D01F2887BF00F072
:108F44001F035F4A03464FF0A0420121994003F5F5
:108F5400E073C2F80815032142F8231069684B1C1A
:108F64000DD01F298BBF01F01F030B46544A4FF04D
:108F7400A04203F5E0734FF0000E42F823E02368AB
:108F8400AA6995F814E0C3F824256A7DBEF1010F9F
:108F94004EEA0202C3F86C25C3F80C05C3F8141595
:108FA4002BD1A968481C0DD01F298BBF01F01F02CB
:108FB4000A4643484FF0A04002F5E0724FF0000E1D
:108FC40040F822E0E868421C13D01F2887BF00F055
:108FD4001F0E3B4A86464FF0A0424FF0010C0CFA9C
:108FE4000EFC0EF5E07EC2F808C54FF0030C42F803
:108FF4002EC0C3F80805C3F810152423734308EBE7
:109004000302C2F804902A6948F80320B9F1000F5A
:109014003DD04FF4887120682D7FFFF7D3FE4FF4C5
:1090240090712068FFF7CEFE4FF492712068FFF72D
:10903400C9FE20684FF4A271FFF7C4FE2268214BD9
:10904400C2F80433120B53B2002BA8BF03F16040E3
:109054004FEA53134FEA4511BABF1B4802F00F05FC
:1090640000F561404FEA8303B4BFC9B2C9B203F14A
:109074006043B4BF415580F8001303F5614302F027
:109084001F02012101FA02F2C3F880211A60236849
:109094000822C3F80025242303FB068300229A61D7
:1090A400DA615A61012283F820203846BDE8F8834A
:1090B4000827FAE71127F8E7383A0020FD8D020067
:1090C400000300501003020014ED00E02DE9F0410C
:1090D40003680479254D0022C3F80025242202FBED
:1090E40004520646526872B1214AC3F80823190B88
:1090F4004AB20120520901F01F0100FA01F12032A5
:109104001C4840F82210D3F80C05D3F81485D3F882
:109114000815D3F810754FF0FF329042C3F80C25B0
:10912400C3F81425C3F80825C3F8102501D0FFF7A8
:10913400D9FEB8F1FF3F02D04046FFF7D3FE7A1CB8
:1091440002D03846FFF7CEFE4B1C02D00846FFF78C
:10915400C9FE3068FFF766FB242303FB0454002395
:1091640084F820306360BDE8F08100BF383A002005
:109174001003020000E100E001F06043B3F1005F7E
:109184002DE9F041074632D11D4B0679242505FB14
:10919400063598466C696CBB6A61A96000684FF437
:1091A4009071FFF70FFE4FF4AC713868FFF70AFEB9
:1091B4003B686A69A968C3F84415C3F848250122C5
:1091C4009A606A68CAB9D3F82011D3F8582149B90A
:1091D400002AF8D00F20242303FB068600237361A2
:1091E400BDE8F081002A14BF0F200020F3E710200F
:1091F400BDE8F0811120BDE8F0812046BDE8F08192
:10920400383A00200220FEF7F5BE000008B5094BED
:109214001B7853B10020FEF7BBFE0120FEF7B8FE19
:109224000320BDE80840FEF7B3BEBDE80840FEF7E2
:10923400C3BE00BF5D3A0020F8B5754C23780546DF
:109244001BB100232370FFF7E1FF172D00F281808B
:10925400DFE805F00C13133F506070798186818636
:109264008E9292929292BCC0C7CED8D8FFF7CEFF0E
:10927400684B00241C702046F8BD0020FEF760FEF9
:10928400F8B10020FEF784FE022D0CBF4FF4E1611B
:109294004FF47A615F4B1D704FF400404FF47A54E1
:1092A4000025E0FB01454FF4FA42002320462946FD
:1092B40000F0D7FF002201465748BDE8F840FEF70A
:1092C40035B9FEF751FE022D0CBFC8214FF4C87109
:1092D400E0E70020FEF734FE40B10020FEF758FE20
:1092E4004FF4487103224B4B1A70D5E7FEF73CFE4E
:1092F400C821F7E70020FEF723FE30B10020FEF777
:1093040047FE4FF47A610422EDE7FEF72DFE4FF499
:10931400C871F8E70020FEF713FE40B10020FEF705
:1093240037FE3C4B05221A70CD210022C4E7FEF71C
:109334001BFEF6E70020FEF75DFE364B06221A7090
:1093440000226621B8E70020FEF70EFE0722314B0B
:109354001A7000248FE701202070FEF74BFEEFE720
:1093640001202070FEF746FE00224FF40071A3E7AF
:10937400FEF731FE0C22EAE72848294EFEF71CF9D5
:10938400D5F1110504461CD0D8B9012D13D0C8233A
:109394005D434FF47A5000214FF400474FF4FA42F2
:1093A4000023C7FB050100F05CFF224601461B4871
:1093B400FEF7BCF804460220FEF7D6FD0123337005
:1093C40059E70220FEF7E4FD0023F8E7FFF71EFF4C
:1093D4001222BCE7FFF71AFF0020FEF7C5FD132297
:1093E400B5E7FFF713FF0120FEF7BEFD1422AEE739
:1093F400FFF70CFF0020FEF7B7FD0120FEF7B4FDD8
:109404001522A4E7FEF7E7FD024B1D70A1E700BF9C
:10941400D03A0020D83A0020A03A0020603A002038
:109424005D3A00202DE9F04781460D46FEF7FCFD2C
:109434000328044631D8012D04D022D3022D2ED086
:10944400BDE8F087194D47003A18A918AE5C4A7870
:1094540052B1DFF86880164842464FF48061FEF747
:1094640065F808B988F800903B192B449A78114B99
:109474001A5596B1104B1B687BB13046BDE8F047D6
:1094840018470B48FEF798F8084B04EB44021344C2
:109494009E78084B1B5DB342EBD0BDE8F087034BCD
:1094A40000EB40041C446678E3E700BFC03A0020A8
:1094B400803A0020D93A0020D43A00205C3A0020B7
:1094C40002210078FFF7AEBF044B1B68DB0703D50E
:1094D400034B1878FFF7B0BE704700BFCC3A0020AA
:1094E400D83A002038B51C4B18601C4B10F002040D
:1094F4000546196019D01A4B1A480E221A700F2209
:10950400DA7010229A7111225A7204213322FDF763
:1095140015FD044648B9FDF763FD044628B9014624
:10952400114A1248FDF7F0FF0446EB0711D501205C
:10953400FEF78CFD6CB921460D4A0E48FDF7E4FF99
:10954400044630B90C4A0D480121BDE83840FDF706
:10955400DBBF204638BD00BFCC3A0020D43A0020FF
:10956400C03A002000AD0200C594020024AD020000
:10957400CD94020028AD02000992020020AD020041
:1095840074DF704775DF704776DF704777DF7047A9
:109594007ADF70477CDF704788DF70478ADF704767
:1095A4008BDF70478CDF704700F5E0704FF0A0430D
:1095B400032243F820207047704700002B4B188883
:1095C4004FF6FF73984270B5294D14D0294C0123EE
:1095D40013212B702370FFF7D7FF0246002835D0E4
:1095E400254B26491B881B0443F00100FDF74AFA6A
:1095F40000232B702370224CFFF7D2FF94F9002034
:1096040000210220FFF7C2FF08B1FDF7FFFC1A4E4C
:10961400227830881B49000440F00300FDF732FA39
:10962400194B30881B7800048BB1012B17D11749D3
:1096340040F00300FDF722FA15491648FFF7AEFF84
:1096440008B1FDF7E3FC00232B7070BDFEE712495F
:1096540040F00300FDF712FA0D491048EEE71049F7
:1096640040F00300FDF70AFAEDE700BF7A3200206C
:10967400203B0020643C002038320020A2B10200CC
:1096840084320020D5B1020078320020F0B102000B
:1096940088320020E6AF02000CB20200D8AF02000C
:1096A40024B202000120FEF7A5BC0020FEF7A2BCF4
:1096B4000220FEF79FBC000008B5104B024618704C
:1096C40010B101280BD008BD4FF440710C48FDF7D0
:1096D4002DFF0028F7D0BDE80840FDF797BC0848E7
:1096E400FDF76AFF08B1FDF791FC0020FEF73CFC92
:1096F4000320BDE80840FEF74BBC00BF78320020D1
:10970400E03A002008B50F4B187078B1082818D13A
:109714000120FEF73DFC00224FF440710A48FDF79A
:1097240005FF70B1BDE80840FDF770BC0648FDF7C1
:1097340043FF08B1FDF76AFC0120BDE80840FEF7CD
:1097440013BC08BD84320020003B0020154B10B52B
:10975400044618700320FEF71BFCA4B1012C20D191
:109764001148FDF729FF08B1FDF750FC0220FEF770
:10977400FBFB0E4B0E491888000440F00300BDE8C3
:109784001040FDF77BB922464FF440710648FDF7BF
:10979400CDFE08B1FDF73AFC044B064918880004D5
:1097A400EBE710BD403C0020203C00203832002074
:1097B400FEB0020057B1020008B5084B1878FFF755
:1097C4007BFF074B1878FFF7C1FF064B1878FFF7AC
:1097D40099FFBDE80840FFF7F1BE00BF78320020D2
:1097E400403C002084320020112808B523D00F28E3
:1097F4000FD0102816D00E2807D10F4B1B78002B42
:109804000CBF01200020FFF757FFBDE80840FFF719
:10981400D5BE0A4B1B78002B0CBF08200020FFF795
:1098240071FFF2E7064B1B78002B0CBF01200020D0
:10983400FFF78CFFE9E708BD78320020843200206E
:10984400403C00202DE9F04103881D2B86B00446DE
:109854003AD01AD8112B00F0068109D8102B00F049
:10986400D480A34BA3491888000440F0040036E1D7
:10987400122B9F4A00F010811C2BF2D11088637ABE
:1098840094F908209C4900040BE1222B984D00F028
:10989400218108D81F2B00F00981212BE1D12888D0
:1098A4009649000419E13B2B01D0562BD9D12888C5
:1098B4009349000440F00400FDF7E0F8914B1321B4
:1098C4001888FFF761FE21E0818C8F4A006A00F05E
:1098D40087FA237A13F00103054640F003818B4A8B
:1098E4001278C0B9012A17D0894B1E78012E40F096
:1098F4008980002D00F08680834AA18C206A00F0C4
:109904006FFA002832D18349FFF748FE002876D049
:10991400FDF77CFB73E01D460320754EFEF76AFBE2
:10992400237E308894F91B20012B4FEA004016D186
:10993400794940F00300FDF7A5F8217C3088237BAA
:10994400E27A0391E17B0291A17B0191617B009119
:109954000004724940F00300FDF7A8F8C4E7042BA3
:1099640040F003000CBF6E496E49E4E7604D664A5F
:1099740028886D496D4F000440F00300FDF782F81C
:10998400FF20FFF7FDFD06233B807B805F4B28888B
:1099940093F80080B8F1010F04F10A044FEA004083
:1099A4001FD1634940F00300FDF768F820464346A1
:1099B4003A466049FFF7F6FD044600B328885E493D
:1099C4000004224640F00100FDF75CF828885A495B
:1099D4000004224640F00100FDF754F8FFF7EEFDC5
:1099E4000DE0564940F00300FDF748F820463346A1
:1099F4003A465349FFF7D6FD04460028E6D106B09F
:109A0400BDE8F081434900207EE7C37B3D4A81885D
:109A14001180012B14461FD1354B4A491888000484
:109A240040F00300FDF72AF8FFF7BAFD464B218802
:109A340093F900200320FFF7A9FD08B1FDF7E6FA2A
:109A44000220FEF7A5FA0320FEF78EFA0A2202216D
:109A54002088FFF7A1FD59E7022BE5D1244B3B49B0
:109A640018880004DCE7274B027A4FF6FF7119804F
:109A7400374B002119701E4B36491888000440F0FA
:109A84000400FCF7FFFF344B1B78002BB7D1FEF723
:109A940093FAFFF791FEB2E71088638922892F4970
:109AA400000440F00300FCF7F7FFA8E700F1080208
:109AB40092E8030004AB83E803001946A088FFF78B
:109AC40061FD08B1FDF7A2FA288863892289244937
:109AD4000004E6E728882349000440F00300FCF76B
:109AE400CDFF8CE700287FF417AF0125FCE600BF0B
:109AF40038320020AAAF020012AF02007AAF02008F
:109B040035AF02007A320020F8AF0200783200202C
:109B1400403C0020883200202CAD0200AAAD020097
:109B240056AD02007FAD0200CDAD02007C320020B4
:109B3400FEAD0200E6AF020017AE02003AAE02002C
:109B4400D8AF02004FAE0200843200207EAE020085
:109B5400643C002096AE0200203B0020B1AE02001F
:109B6400DAAE020052AF020013B54FF40041774859
:109B7400FCF796FD08B1FDF749FAFCF7B3FCFDF7D5
:109B840091FC08B1FDF742FA714A72480121FDF7D0
:109B9400BBFC08B1FDF73AFA6F4A70480121FDF7A2
:109BA400B3FC08B1FDF732FA6D4A6E480121FDF7A6
:109BB400ABFC08B1FDF72AFA6B4A6C480121FDF7AA
:109BC400A3FC08B1FDF722FA69490320FFF78AFCD8
:109BD40008B1FDF71BFAFEF7EFF91D20FFF7E4FCCF
:109BE4001F20FFF7E1FC1E20FFF7DEFC1C20FFF71F
:109BF400DBFC604A6049D2F8103543F0031343F4A8
:109C0400E853C2F81035D2F8143543F0031343F483
:109C1400F853C2F81435D2F8183543F0031343F45B
:109C2400F053C2F81835D2F81C3543F0031343F44B
:109C3400E053C2F81C35514BC3F86015C3F86425D2
:109C4400A2F59D42503AC3F8682502F59D4254326C
:109C5400C3F86C25A2F59D42503AC3F8702502F56D
:109C64009D425432C3F87425454AC3F8782502F559
:109C74009E420C32C3F87C254FF47052C3F804257D
:109C8400FDF7F8FF08B1FDF7C1F900F019F908B1C3
:109C9400FDF7BCF902AC002344F8043D0120214641
:109CA40000F09AF908B1FDF7B1F9204600F05CFA2A
:109CB40008B1FDF7ABF9112332488DF8043000F0F8
:109CC40026FC304982B22046FFF764FC08B1FDF758
:109CD4009DF92D48FFF75CFC08B1FDF797F92B4C73
:109CE4002B492088000440F00300FCF7C7FE2088BD
:109CF4002849000440F00300FCF7C0FE20882649F0
:109D0400000440F00300FCF7B9FE20882349000456
:109D140040F00300FCF7B2FE20882149000440F023
:109D24000300FCF7ABFEFFF747FD00224FF4407140
:109D34001C48FDF7FBFB08B1FDF768F9FCF720FDB3
:109D44000028FBD1FDF7ACFFF8E700BFDD7502008A
:109D5400B5960200F4AF0200AF960200D0AF020045
:109D6400A9960200D4AF0200BD95020008B002001B
:109D7400ED970200006000400C11004000F001402B
:109D8400001100400CB002007C3200203832002068
:109D94001CB0020039B0020071B002009EB0020093
:109DA400D5B00200443C002070B558B14AB11688C1
:109DB4000024B44203D305196D789D4208D08C4227
:109DC40001D3002070BD055D01352C44A4B2F0E739
:109DD4008C42F6D2A31C1380005D013880B270BDA2
:109DE400F7B500230746ADF80630144612B9002033
:109DF40003B0F0BD09230DF10602FFF7D5FFBDF84E
:109E040006500646002DF2D00028F0D0204600F07F
:109E14007EFBB0420246EAD17919204600F0E5FA09
:109E2400B0FA80F04009E3E710DF704713B5044649
:109E340009496846FDF75AFF019808B902B010BDF8
:109E4400036841682046984718B16846FDF758FFF3
:109E5400F2E71120F2E700BF60B2020013B5044636
:109E640007496846FDF742FF019B0BB902B010BDDC
:109E740020461A68596890476846FDF741FFF3E7A2
:109E840078B202000C4A92F816335B09012B01D90F
:109E9400042B08D142F20200FDF7B8B81A6842F464
:109EA40080021A607047054B99680029F6D14FF477
:109EB40080031360704700BF00E100E048390020D0
:109EC400F7B5184F3C785CBB174E0125204635701A
:109ED400FFF7ACFF112820D02046FFF7BFFF134B3C
:109EE4001868019002A800F8054DFDF77BFB1049A6
:109EF40001A8FFF799FF0446B0FA80F040093870D2
:109F04009DF80300FDF792FB3CB90A4B34701C70BA
:109F1400FFF7B8FF2846FFF7A1FF204603B0F0BDC6
:109F24000824FAE7663C0020653C002059B2020090
:109F34002D700200673C0020014B1878704700BF69
:109F4400663C002007B508496846FDF7CFFE019B33
:109F540013B903B05DF804FB58681A689047684663
:109F6400FDF7CEFEF3E700BF6CB20200FFF7EABFD5
:109F740060DF704769DF704761DF704730B5114DAE
:109F8400ADF5017D4FF4FA740DF1020103A8ADF8AB
:109F94000240FFF7F1FF70B9294601A8FDF7A6FEBC
:109FA400029B002BF0D003A81A685968904701A8B7
:109FB400FDF7A6FEF4E7052801D0FDF727F80DF517
:109FC400017D30BDFCB40200024B1B780BB1FFF7DE
:109FD400D5BF7047683C00207FB506460C46002973
:109FE40000F0AF80584B0B600C22002101A800F058
:109FF4005BFA01238DF8063022688DF804604FF473
:10A00400C87301A92020ADF80830FFF7B3FF58B199
:10A014004E4B1D88FDF79EFE2D0445F001050246BA
:10A024004B492846FCF72EFD0C22002101A800F024
:10A034003BFA012322688DF8053001A940208DF8F0
:10A0440006308DF80730FFF795FF58B13F4B1D8858
:10A05400FDF780FE2D0445F0010502463D492846E2
:10A06400FCF710FD0C22002101A800F01DFAF723D3
:10A0740022688DF8046001A92320ADF80630FFF7AB
:10A0840079FF58B1314B1D88FDF764FE2D0445F06E
:10A094000105024630492846FCF7F4FC0C22002155
:10A0A40001A800F001FA012022688DF8040001A93A
:10A0B400FFF760FF58B1254B1D88FDF74BFE2D04BB
:10A0C40045F00105024625492846FCF7DBFC0C2235
:10A0D400002101A800F0E8F94FF4B063226801936D
:10A0E40001A9A120FFF746FF58B1184B1D88FDF7C1
:10A0F40031FE2D0445F00105024619492846FCF7B6
:10A10400C1FC0C22002101A800F0CEF99DF8043016
:10A1140022686FF3000301A9A0208DF80430FFF733
:10A1240029FF80B1094B1C88FDF714FE240444F078
:10A13400010402460B492046FCF7A4FC002004B0AD
:10A1440070BD0E20FBE7FAE72032002048320020E1
:10A154008CB20200D2B202001EB3020065B3020048
:10A16400B1B3020002B40200F8B504460768FFF771
:10A17400FFFE23689F42054620D21A4E1A493088B2
:10A18400000440F00200FCF779FC3088236817498A
:10A1940000043A4640F00200FCF77EFC4FF0805386
:10A1A4003088D3F80C31226811499B0203F1005323
:10A1B40000049A1A40F00200FCF764FC25B90D4B28
:10A1C40001221A702846F8BD064B28461C88FDF764
:10A1D400C1FD240444F00104024607492046FCF76B
:10A1E40051FCEFE74832002055B4020084B4020069
:10A1F400B5B40200683C0020DFB402004BDF7047B6
:10A204001FB50D4C01A8FFF7F9FF70B9214602A84C
:10A21400FDF76CFD039B002BF4D001981A68596874
:10A22400904702A8FDF76CFDF4E7052801D0FCF780
:10A23400EDFE04B010BD00BF14B50200B2F120035E
:10A244000AD5C2F1200301FA02F120FA03F341EA2C
:10A25400030100FA02F0704700FA03F14FF0000026
:10A26400704753EA020C61D02DE9F04BB3FA83F541
:10A274001E0007BFB2FA82F502FA05F403FA05F4E8
:10A284001646C5F120051EBF22FA05F73C432035CA
:10A2940056EA044C4FEA144418BF0134A3464FF065
:10A2A4000009C846904271EB030C39D3094207BF39
:10A2B400B0FA80F700FA07F6B1FA81F701FA07F667
:10A2C400C7F120071EBF20FA07FC46EA0C06203718
:10A2D400B6FBFBFC7F1B103F07F01F04C4F12006F4
:10A2E4000CFA04F42CFA06F644BF34460026202F58
:10A2F400A4BF2646002454EA060C08BF012418EB28
:10A30400040849EB0609A4FB027CC01B06FB02CC33
:10A3140004FB03CC71EB0C01904271EB030CC5D22E
:10A324000B46024649464046BDE8F08BB2FBF3F2C9
:10A334007F2805D8034B185C034B5B5C18407047BF
:10A34400002070472CB50200ACB50200A0F16103F7
:10A35400192B98BF20387047A0F14103192B98BFDF
:10A36400203070477F2805D8034B185C034B5B5C97
:10A3740018407047002070472CB50200ACB50200AD
:10A38400A0F16103192B98BF20387047A0F1410355
:10A39400192B98BF203070477F299ABF0170012084
:10A3A4006FF02E0070475AB10A787F2A0AD800B19C
:10A3B4000260002119605960501A18BF01207047CB
:10A3C400002070476FF02E007047000008B5034B63
:10A3D4005B689B681B68984708BD00BF90320020EB
:10A3E40008B50921FFF7F2FF08BD92B370B4134614
:10A3F40040EA010212F0030F17D05A1E10D004785D
:10A404000B789C420CD1431C4C1C02441846214638
:10A41400934205D00133013406780D78AE42F5D06D
:10A4240000780B78C01A70BC70470F2BE5D904680C
:10A434000A689442E1D1041D0A1D20461146043BDA
:10A44400042BDAD90434043206680D68AE42F4D021
:10A45400D3E700207047844640EA010313F0030F5A
:10A4640018D18446202A0BD32DE9F007B1E8F80768
:10A47400A0E8F807A2F12002202AF7D2BDE8F007ED
:10A48400042A07D351F8043B40F8043BA2F1040228
:10A49400042AF7D2002A05D011F8013B00F8013B49
:10A4A400013AF9D1604670478446002A2DD010F055
:10A4B400030F04D000F8011B013A26D0F7E7C9B214
:10A4C40041EA012141EA0141202A12D3A2F12002EA
:10A4D4002DE9F0030B460C460D460E460F46884602
:10A4E4008946A0E8FA03203AFBD2BDE8F003203203
:10A4F4000BD0042A05D340F8041B043A05D0042ADF
:10A50400F9D200F8011B013AFBD16046704700F113
:10A51400010110F0030F11D010F8012B002A23D0F1
:10A5240010F0030F0AD010F8012B002A1CD010F0F1
:10A53400030F03D010F8012B002A15D02DE9700069
:10A544004FF001324FF0803350F8044BA4EB020576
:10A5540025EA04051D4000D1F6E7A0F1040070BC13
:0EA5640010F8012B002AFBD1A0EB010070477C
:08A5740001810200000000005B
:08A57C004998020000000000F4
:10A58400E0AC020000000000E6AC020000000000A5
:10A59400EDAC020000000000F1AC0200000000007D
:10A5A400F5AC020000000000FAAC0200000000005C
:10A5B4008DA602000000040491A60200000000031E
:10A5C400DAAC02000000000084B2020000000303C1
:10A5D40008B502000000030320B5020000000303D5
:08A5E400D4A7020000000000F2
:10A5EC00E8320020B0330020B8330020F0320020D5
:08A5FC003C32002018000000B1
:08A604007D810200000000004E
:10A60C00CD9F02000000000005A202000000000027
:10A61C00000000000000000000000000000000002E
:10A62C00000000000000000000000000000000001E
:10A63C00000000000000000000000000000000000E
:04A64C00000000000A
:10A65000FFFFFFFFFFFFFFFFFFFFFFFFFFFFFFFF0A
:10A6600000000000000000000000D601070100000B
:10A6700051640200B5640200016402004261636B30
:10A68000656E647320666C757368656400617070D4
:10A690000062616C6C6F632E6C6F675F6D656D70CF
:10A6A0006F6F6C00F7A602003CA70200D7A602005D
:10A6B00044A702004CA7020054A702005CA70200B6
:10A6C00064A702006CA70200202530327800202009
:10A6D00020007C002563001B5B313B33316D00257E
:10A6E000734C6F67732064726F70706564202825E7
:10A6F000642925730D0A001B5B306D002573005B18
:10A70000253032643A253032643A253032642E25C1
:10A710003033642C253033645D20003C25733E20AB
:10A7200025733A20000000000000000092A70200FC
:10A7300074A702007CA7020081A702001B5B313BCB
:10A7400033306D001B5B313B33326D001B5B313BA3
:10A7500033336D001B5B313B33346D001B5B313B8E
:10A7600033356D001B5B313B33366D001B5B313B7A
:10A7700033376D007761726E696E6700696E666F60
:10A780000064656275670000EC3700204661746103
:10A790006C206572726F720053797374656D2072EC
:10A7A00065736574000000000000000000000000F8
:10A7B0000338FDD8704730313233343536373839C5
:10A7C00041424344454600007CA502007CA50200AE
:10A7D000040000007077725F6D676D7400556E6BDA
:10A7E0006E6F776E206572726F7220636F646500A2
:10A7F0000000000018A902000100000024A90200C6
:10A800000200000042A902000300000063A9020048
:10A810000400000076A902000500000087A90200DC
:10A82000060000009BA9020007000000B3A9020077
:10A8300008000000CBA9020009000000E3A9020003
:10A840000A000000FCA902000B00000014AA02008C
:10A850000C0000002BAA02000D0000003FAA02001D
:10A860000E00000051AA02000F00000060AA0200C2
:10A870001000000074AA0200110000008BAA020060
:10A88000120000009AAA020013000000AFAA020002
:10A8900080000000C3AA020081000000E4AA0200B8
:10A8A0008200000000AB0200830000001CAB02002D
:10A8B000840000003AAB0200850000005BAB0200A0
:10A8C0008600000080AB02009000000097AB020001
:10A8D00091000000B5AB020092000000D3AB020073
:10A8E00000820000E8AB02000182000006AC02001A
:10A8F0000282000022AC0200008400003EAC020094
:10A900000184000062AC0200028400008CAC0200F2
:10A9100003840000B1AC02004E52465F53554343DE
:10A92000455353004E52465F4552524F525F535665
:10A93000435F48414E444C45525F4D495353494E45
:10A9400047004E52465F4552524F525F534F465456
:10A950004445564943455F4E4F545F454E41424C36
:10A960004544004E52465F4552524F525F494E5445
:10A9700045524E414C004E52465F4552524F525F37
:10A980004E4F5F4D454D004E52465F4552524F521D
:10A990005F4E4F545F464F554E44004E52465F4502
:10A9A00052524F525F4E4F545F535550504F525476
:10A9B0004544004E52465F4552524F525F494E56F3
:10A9C000414C49445F504152414D004E52465F4513
:10A9D00052524F525F494E56414C49445F53544185
:10A9E0005445004E52465F4552524F525F494E56B3
:10A9F000414C49445F4C454E475448004E52465FD7
:10AA00004552524F525F494E56414C49445F464C65
:10AA1000414753004E52465F4552524F525F494E96
:10AA200056414C49445F44415441004E52465F45B3
:10AA300052524F525F444154415F53495A45004E70
:10AA400052465F4552524F525F54494D454F5554FF
:10AA5000004E52465F4552524F525F4E554C4C008D
:10AA60004E52465F4552524F525F464F5242494402
:10AA700044454E004E52465F4552524F525F494E3A
:10AA800056414C49445F41444452004E52465F4552
:10AA900052524F525F42555359004E52465F4552F3
:10AAA000524F525F434F4E4E5F434F554E54004EF0
:10AAB00052465F4552524F525F5245534F55524393
:10AAC0004553004E52465F4552524F525F4D4F44E0
:10AAD000554C455F4E4F545F494E495449414C498E
:10AAE0005A4544004E52465F4552524F525F4D55B3
:10AAF0005445585F494E49545F4641494C454400CE
:10AB00004E52465F4552524F525F4D555445585F25
:10AB10004C4F434B5F4641494C4544004E52465FC3
:10AB20004552524F525F4D555445585F554E4C4F0C
:10AB3000434B5F4641494C4544004E52465F4552A7
:10AB4000524F525F4D555445585F434F4E445F49F5
:10AB50004E49545F4641494C4544004E52465F457C
:10AB600052524F525F4D4F44554C455F414C5245F8
:10AB70004144595F494E495449414C495A45440062
:10AB80004E52465F4552524F525F53544F524147C7
:10AB9000455F46554C4C004E52465F4552524F520F
:10ABA0005F4150495F4E4F545F494D504C454D45B4
:10ABB0004E544544004E52465F4552524F525F46F6
:10ABC0004541545552455F4E4F545F454E41424CAE
:10ABD0004544004E52465F4552524F525F494F5FC7
:10ABE00050454E44494E47004E52465F4552524FE3
:10ABF000525F4452565F5457495F4552525F4F5619
:10AC0000455252554E004E52465F4552524F525F8A
:10AC10004452565F5457495F4552525F414E41433B
:10AC20004B004E52465F4552524F525F4452565F60
:10AC30005457495F4552525F444E41434B004E5278
:10AC4000465F4552524F525F424C455F4950535008
:10AC50005F52585F504B545F5452554E43415445D8
:10AC600044004E52465F4552524F525F424C455F40
:10AC7000495053505F4348414E4E454C5F414C5202
:10AC8000454144595F455849535453004E52465F1D
:10AC90004552524F525F424C455F495053505F4CB2
:10ACA000494E4B5F444953434F4E4E4543544544F0
:10ACB000004E52465F4552524F525F424C455F49EB
:10ACC0005053505F504545525F52454A45435445A5
:10ACD00044000B0C18190D0E0F10636C6F636B00A2
:10ACE000434C4F434B004750494F5445005052533B
:10ACF00000525443005541525400554152544500AE
:10AD00000B000300299402000C00030029940200A8
:10AD1000180003002994020019000300299402007E
:10AD2000603A0020803A0020A03A00205265636516
:10AD30006976656420414456207265706F72742C88
:10AD400020525353492025642C207068793A2031D1
:10AD5000204D6270730052656365697665642041B9
:10AD60004456207265706F72742C205253534920E0
:10AD700025642C207068793A20636F646564005202
:10AD80006563656976656420414456207265706F1D
:10AD900072742C20525353492025642C20706879FA
:10ADA0003A20756E6B6E6F776E0061646472202559
:10ADB0003032783A253032783A253032783A2530B8
:10ADC00032783A253032783A253032780044657648
:10ADD000696365202225732220666F756E642C20BE
:10ADE00073656E64696E67206120636F6E6E656364
:10ADF00074696F6E20726571756573742E00436F90
:10AE00006E6E656374696E67206F6E20636F646534
:10AE100064207068792E0073645F626C655F67619F
:10AE2000705F636F6E6E6563742829206661696C5C
:10AE300065643A20307825782E00436F6E6E656326
:10AE400074696E67206F6E20314D6270732E0043FF
:10AE50006F6E6E6563746564206173206120706538
:10AE6000726970686572616C2E2053686F756C64CE
:10AE7000206E6F742068617070656E642E00436F81
:10AE80006E6E656374656420617320612063656E16
:10AE90007472616C2E00446973636F6E6E656374C7
:10AEA00065643A20726561736F6E20307825782E64
:10AEB00000436F6E6E656374696F6E20696E7465B2
:10AEC0007276616C20757064617465643A203078C4
:10AED00025782C20307825782E00436F6E6E6563C0
:10AEE00074696F6E20696E74657276616C2075701E
:10AEF0006461746564202875706F6E207265717569
:10AF0000657374293A20307825782C20307825789C
:10AF10002E0052535349206368616E6765642C208C
:10AF20006E65773A2025642C206368616E6E656CCF
:10AF30003A20256400474154542074696D656F754B
:10AF4000742C20646973636F6E6E656374696E67D9
:10AF50002E00424C455F4741505F4556545F504874
:10AF6000595F5550444154453A206E6F7420696DC5
:10AF7000706C656D656E74656400424C455F474159
:10AF8000505F4556545F5048595F555044415445B1
:10AF90005F524551554553543A206E6F7420696D88
:10AFA000706C656D656E7465640052656365697685
:10AFB000656420616E20756E696D706C656D656E7F
:10AFC00074656420424C45206576656E742E0000E1
:10AFD000E03A0020003B00200401A000A000000097
:10AFE0000000000000000504A000A0000000000018
:10AFF00000000000203C00204C6F6E672072616EE4
:10B0000067652064656D6F00443C00204C6F6E677F
:10B010002072616E67652064656D6F004C6F6E67AE
:10B020002072616E67652064656D6F20202D2D6331
:10B03000656E7472616C2D2D00507265737320748F
:10B04000686520627574746F6E7320746F20736509
:10B0500074207570207468652063656E7472616C0D
:10B0600020696E2077616E746564206D6F64653A47
:10B0700000427574746F6E20313A2073776974637F
:10B0800068206265747765656E20636F646564200F
:10B0900070687920616E6420314D62707300427572
:10B0A00074746F6E20323A2073776974636820621B
:10B0B00065747765656E20302064626D20616E6412
:10B0C00020382064426D206F757470757420706F25
:10B0D0007765722E00427574746F6E20333A207358
:10B0E0007769746368206265747765656E20736341
:10B0F000616E6E696E67206D6F6465732E005363B9
:10B10000616E206D6F6465207365743A20736361AE
:10B110006E6E696E672C20747279696E6720746F29
:10B1200020636F6E6E6563742E2057696C6C2062AD
:10B1300065206170706C696564207768656E207346
:10B1400063616E6E696E672069732072652D73741A
:10B1500061727465642E005363616E206D6F646567
:10B16000207365743A207363616E6E696E67206F39
:10B170006E6C792E2057696C6C206265206170704E
:10B180006C696564207768656E207363616E6E69B3
:10B190006E672069732072652D73746172746564C3
:10B1A0002E007363616E5F73746172742C2073641C
:10B1B0005F626C655F6761705F646973636F6E6E19
:10B1C0006563742829206661696C65643A2030786B
:10B1D0002530782E004F757470757420706F776508
:10B1E000722073657420746F2025642064426D00A2
:10B1F0005374617274696E67207363616E206F6E41
:10B2000020636F646564207068792E0053746172E6
:10B2100074696E67207363616E206F6E20314D62BA
:10B2200070732E005068792073656C656374696F64
:10B230006E20646964206E6F74206D617463682091
:10B2400073657475702E205363616E206E6F742069
:10B25000737461727465642E0001000007000000C1
:10B260001CA602001CA60200080000000CA602009A
:10B270001CA602000800000004A602000CA60200A2
:10B28000080000006E72665F7364680073645F623A
:10B290006C655F6366675F736574282920726574E7
:10B2A00075726E6564202573207768656E20617401
:10B2B00074656D7074696E6720746F207365742097
:10B2C000424C455F434F4E4E5F4346475F474150B8
:10B2D0002E0073645F626C655F6366675F7365749D
:10B2E00028292072657475726E6564202573207735
:10B2F00068656E20617474656D7074696E67207422
:10B300006F2073657420424C455F4741505F434650
:10B31000475F524F4C455F434F554E542E00736468
:10B320005F626C655F6366675F736574282920726E
:10B33000657475726E6564202573207768656E206C
:10B34000617474656D7074696E6720746F207365C5
:10B350007420424C455F434F4E4E5F4346475F4724
:10B360004154542E0073645F626C655F6366675F6F
:10B3700073657428292072657475726E6564202562
:10B3800073207768656E20617474656D7074696E82
:10B390006720746F2073657420424C455F434F4DA6
:10B3A0004D4F4E5F4346475F56535F555549442EB8
:10B3B0000073645F626C655F6366675F73657428C2
:10B3C000292072657475726E656420257320776814
:10B3D000656E20617474656D7074696E6720746F3A
:10B3E0002073657420424C455F47415454535F437A
:10B3F00046475F415454525F5441425F53495A4556
:10B400002E0073645F626C655F6366675F7365746B
:10B4100028292072657475726E6564202573207703
:10B4200068656E20617474656D7074696E672074F0
:10B430006F2073657420424C455F47415454535FFD
:10B440004346475F534552564943455F4348414E43
:10B450004745442E00496E73756666696369656E7B
:10B46000742052414D20616C6C6F6361746564207F
:10B47000666F722074686520536F667444657669E0
:10B4800063652E004368616E6765207468652052AD
:10B49000414D207374617274206C6F636174696FC5
:10B4A0006E2066726F6D203078257820746F2030A2
:10B4B0007825782E004D6178696D756D2052414D6B
:10B4C0002073697A6520666F72206170706C6963A1
:10B4D0006174696F6E20697320307825782E00734F
:10B4E000645F626C655F656E61626C6528292072BD
:10B4F000657475726E65642025732E007CA502004C
:10B5000084A50200080000006E72665F7364685FC5
:10B51000626C650074A502007CA5020008000000B2
:10B520006E72665F7364685F736F63002020202013
:10B5300020202020206828282828202020202020A3
:10B540002020202020202020202020204810101003
:10B55000101010101010101010101010848484841B
:10B5600084848484848410101010101010818181D0
:10B57000818181010101010101010101010101013B
:10B5800001010101010101101010101010828282CE
:10B59000828282020202020202020202020202020B
:10B5A0000202020202020210101010200007032003
:10B5B00004170201085710408000000060B7020025
:10B5C00024B6020038B7020053756E004D6F6E004E
:10B5D00054756500576564005468750046726900CB
:10B5E00053617400000000004A616E00466562000D
:10B5F0004D617200417072004D6179004A756E00B4
:10B600004A756C0041756700536570004F637400A4
:10B610004E6F76004465630000000000414D00500D
:10B620004D0000005CB7020058B7020058B7020096
:10B6300058B7020058B7020058B7020058B70200C6
:10B6400058B7020058B7020058B70200FFFFFFFFCB
:10B65000FFFFFFFFFFFFFFFFFFFF000098B60200A4
:10B66000C8B50200D4B60200E8B502001CB602005C
:10B670007CB602002CB7020088B60200256D2F258B
:10B68000642F2579000000002561202562202565B2
:10B69000202554202559000053756E646179004DB2
:10B6A0006F6E6461790054756573646179005765E4
:10B6B000646E65736461790054687572736461794E
:10B6C00000467269646179005361747572646179CE
:10B6D000000000004A616E75617279004665627211
:10B6E00075617279004D6172636800417072696CB6
:10B6F000004D6179004A756E65004A756C790041AC
:10B7000075677573740053657074656D626572005A
:10B710004F63746F626572004E6F76656D6265721D
:10B7200000446563656D62657200000025483A2536
:10B730004D3A25530000000035A3020051A302003A
:10B740005DA3020069A3020085A3020091A3020089
:10B750009DA30200ABA30200000000002E00000029
:0CB7600043000000504F53495800000007
:10B76C00000000000020004000000000002000400D
:10B77C000000000070A602000000000000000000A5
:10B78C000090D0030100FFFF060090010000200391
:10B79C0008000000213B0020FF000000BCB50200A7
:10B7AC00BCB50200BCB50200BCB50200BCB50200C1
:040000032000626116
:00000001FF
