:020000022000DC
:106000000000042061620200B9620200BB6202006B
:10601000BD620200BF620200C16202000000000017
:10602000000000000000000000000000C362020049
:10603000C562020000000000C7620200C9620200DF
:1060400031830200CF620200F1870200D3620200B6
:10605000D5620200D76202004D860200DB620200B8
:10606000DD620200DF620200E1620200E362020020
:10607000E5620200E7620200E9620200EB620200F0
:10608000ED620200B1710200F1620200F3620200EF
:106090004D720200F7620200B19E0200FB62020034
:1060A000FD620200FF62020001630200036302005E
:1060B0000563020007630200CB620200CB620200AC
:1060C000096302000B6302000D6302000F6302000C
:1060D0006588020013630200156302001763020063
:1060E000196302001B6302001D630200CB62020001
:1060F000CB62020021630200CB6202001F63020038
:10610000364937480A1A02D0072291438D4635494D
:1061100035480A1A06D00722914381F309880222E2
:1061200082F3148831483249324A00F045F8324847
:106130003249334A00F040F832483349334A00F0DC
:106140003BF833483349344A00F036F83348344991
:10615000344A00F031F834483449354A00F02CF81C
:1061600034483549354A00F027F83548354900228A
:1061700000F02DF834483549002200F028F8344862
:106180003449091A082903DB002202600430016047
:10619000314A90471F482049884205D002680430A0
:1061A00003B4904703BCF7E700208646EC46002086
:1061B00000212A4A9047FEE7884207D0521A05D0AC
:1061C000037801300B700131013AF9D170478842F0
:1061D00002D002700130FAE770470000000004208E
:1061E00000E00320000004200000042088B6020024
:1061F00054320020A43200202463020024630200F1
:106200008EA4020088B602005432002054320020CE
:106210006CA502006CA502006CA502006CA5020032
:106220006CA502006CA502006CA502006CA5020022
:1062300088B60200D8B60200A4320020A4320020A2
:10624000A4320020693C00206C3C00206C3C002003
:106250006C3C00206C5C002085620200699B02009F
:106260000F484FF00701884385460E4880470E4887
:10627000016841F470010160BFF34F8FBFF36F8F6E
:10628000FFF73EBF09480A490A4A884207D0521A16
:1062900005D0037801300B700131013AF9D1704714
:1062A00000000420C17D020088ED00E038A5020056
:1062B0002032002054320020FEE7FEE7FEE7FEE732
:1062C000FEE7FEE7FEE7FEE7FEE7FEE7FEE7FEE7A6
:1062D000FEE7FEE7FEE7FEE7FEE7FEE7FEE7FEE796
:1062E000FEE7FEE7FEE7FEE7FEE7FEE7FEE7FEE786
:1062F000FEE7FEE7FEE7FEE7FEE7FEE7FEE7FEE776
:10630000FEE7FEE7FEE7FEE7FEE7FEE7FEE7FEE765
:10631000FEE7FEE7FEE7FEE7FEE7FEE7FEE7FEE755
:04632000FEE700BFD5
:10632400F0B595B01C46164608460D4601F054FCDF
:106334001A9B0D93CDE90864002423460C2205A979
:1063440028460A948DF82C400C9401F081FC079B9C
:106354000293BDF81830ADF80C30BDF81A30ADF822
:106364000E309DF814308DF8114003F00302012A19
:106374001DD1BDF81440059EC3F3C203C4F38314B6
:106384008DF81030A2000C230EA9284601F060FC01
:10639400C6F3952608AB0093224602AB0EA93046FD
:1063A40000F046FC284601F01BFC15B0F0BD022AA3
:1063B400F8D1BDF81640C3F3C203A4098DF8103018
:1063C4000C27082C264628BF08263B4632460EA931
:1063D400284601F03DFCA41B08AB02AA31460EA8D6
:1063E400374400F089FC002CEBD1DBE7014B0122A0
:1063F4001A707047E53200207047000070B50E4DEA
:1064040006460FCD88B06C460FC495E80F0084E8AB
:106414000F0008A9002E4FF00603084A41F8203D5A
:1064240008BF0022064801F00BFF08B100F012FE7D
:10643400044B1E7008B070BD6CA50200F16302002D
:1064440054320020A432002007B5044B0093044AC0
:106454004023FFF765FF03B05DF804FB69640200A5
:10646400A532002038B50D4B0D4D002018700D4895
:1064740004782D5DD2B21C4665B1043002F07EFE74
:1064840008B100F0E7FD084B1A7812B12378002B0D
:10649400FBD038BD0C3002F04FFCF1E7E5320020B0
:1064A4008839002054320020A432002008B508485E
:1064B400084A0378D35C3BB1043002F009FE0020A3
:1064C400BDE80840FFF79ABF0C3002F0DFFBF6E7A7
:1064D40054320020883900200120FFF78FBF0000CC
:1064E40010B5054CFFF7F8FF0421204600F0E0FA50
:1064F4000123637210BD00BF68320020037813F0DB
:10650400030F03F0040202D012B910467047B2B16F
:1065140003F00303012B03D0022B09D001207047A1
:106524000A6800880332C0F3831002440A60F5E766
:106534000B684288033303EB92130B60EEE70B689E
:106544004288013303EB92130288F4E72DE9F04FFC
:1065540089B00546C61C08A84C4C019200230F467E
:1065640000F8113D01F064F823683B60D4E901238D
:106574001344226801339B1A04F21C4704F5836A0E
:1065840004F21448B3421AD3019A0023002A75D0A6
:10659400012262F3010343F0040365F389132168C4
:1065A400A2689DF80F000A4003320E4444F82230DA
:1065B400266001F061F8012009B0BDE8F08F0121E7
:1065C400384601F08FF8504601F0A2F8404601F039
:1065D4009FF80DF120096068D4F808B049F8100D4F
:1065E40000EA0B00033004EB80004946FFF786FF06
:1065F400049B10B10BEA0300F4E7591C01EA0B01F8
:1066040004EB81010BEA0302C968069104EB8202E0
:10661400991CD268059201EA0B0B04EB8B0B02F078
:106624000302DBF80C1007910333012A04931BD0F7
:10663400022A21D1BDF81620BDF81AB092090332FE
:1066440003EB92030493404601F065F808B1049B00
:1066540063605946384601F045F8D4E901231344F0
:10666400226801339B1A8DE7BDF81420BDF81AB0D7
:10667400C2F383121344E5E78346E4E7022262F39C
:10668400010343F0040365F39F5388E7B833002004
:1066940038B5054608B3124CFF23A360084600230F
:1066A400C4F81834C4E90033C4F8143484F820342A
:1066B40000F078FB0B48C4F80C5401F046FA38B9E2
:1066C400094A0A4B0A499B1ADB0802469A4200D13E
:1066D40038BD21F822200132F8E70720F8E700BF8F
:1066E400B833002008A50200A0A4020008A50200F7
:1066F4002032002030B50B4C79B10B4A0B49121BE8
:10670400D20800239A4201D1002030BD01EB830559
:106714006D88854202D00133F4E7034654F8330010
:10672400F3E700BFA0A4020008A502002032002065
:10673400094B013903EBC000032909D8DFE801F054
:106744000A020406042070470079704740797047B4
:106754000020704702207047A0A40200034BD3E935
:106764000030C31A58425841704700BFB833002064
:106774002DE9F04387B0FFF7F1FF0646002840F00B
:10678400FF80804CC4F81804BFF34F8F6068D4F8BE
:10679400088006AF47F8100D00EA0800033004EB48
:1067A40080003946FFF7AAFE029B054650B12268D5
:1067B4009A4204D86260304607B0BDE8F08308EA24
:1067C4000300EBE7591C01EA080104EB810108EA24
:1067D4000302C968049104EB8202991CD2680392F3
:1067E40001EA0801033304EB8101029302F003037D
:1067F400C9680591022B57D1BDF80E3062489F0934
:10680400502FB94628BF4FF0500969F38F1309F18F
:106814000C01ADF80E3001F0B0F90646002800F086
:106824009D8001F0D9F90C222B460DEB0201304674
:1068340001F0E5F9029928EA01050135AD00A94501
:106844002AD95FFA89F925B3EDB2A9EB050908EA5B
:10685400010103315FFA89F8A9464C4D04EB81012B
:106864000C234A46304601F0CAF935B109F10C034C
:1068740042462946304601F0C2F9029B033703EB36
:1068840097070297D4F81834002B42D1D4F8105447
:1068940050E03E49A846E3E708EA010103310C232E
:1068A4004A4604EB8101E5E7012B57D1BDF80C30D2
:1068B4003548C3F38311062928BF062161F38913E0
:1068C40003318900ADF80C3001F057F90646002871
:1068D40044D001F081F90C222B460DEB0201304625
:1068E40001F08DF9BDF80C20C2F38312EB1C954224
:1068F4004FEA8303C6D202994A1C08EA0101033114
:10690400029204EB81010422304601F078F901354A
:10691400E8E7304601F064F9FFF720FF80F001005A
:10692400C6B248E76B7A23B12B6831461B68284608
:1069340098476D68002DF5D1304601F051F906A84D
:1069440000F8115D00F074FED4F818340BB9029B02
:1069540063609DF8070000F08FFEDDE7D4F8104473
:1069640044B90B4B0B491888000440F0020000F0B6
:1069740075F8D1E7236820469B6898476468EFE779
:10698400002618E7B833002008A50200C43300200D
:106994003832002098A502002DE9F74F2D4C81468E
:1069A4008846174601A9012218469B46D4F808A038
:1069B400FFF7CCFDD0B3019D0026E91C5E4506EB34
:1069C40001023DD10021244800F06CFE80F3100048
:1069D4006B1C03EA0A0304EB8303000440EA194036
:1069E400D860AF1CD4F80C34984707EA0A0704EBC4
:1069F400870705EA0A030333F86014F8232069F3D0
:106A0400C50204F8232034F8232066F3891224F8FD
:106A1400232054F82320012168F39F2244F82320E3
:106A240061F301026FF3820204F8232094F8203406
:106A34001BB1FFF79DFE0028FBD103B0BDE8F08F2A
:106A44000AEA020204EB820257F82630D3600136C8
:106A5400B4E700BFB8330020D437002000231A461F
:106A6400FFF79ABF13B502AC012344F8042D224664
:106A7400FFF792FF02B010BD07B5CDE90023022352
:106A84006A46FFF789FF03B05DF804FB7FB5CDE9E3
:106A94000023089B0293099B03930A9B04930B9B7B
:106AA40005936A460623FFF777FF07B05DF804FBFA
:106AB4000F4A30B5D2F810440023214641B903727D
:106AC400D2F810444CB9C2F810044160184630BDE5
:106AD4000D7A9D4205D04968F0E7626842606060C3
:106AE400F4E701330A2BE8D14FF0FF33EEE700BFA0
:106AF400B8330020084A38B50123D2F8104482F88C
:106B040020341D4604B938BD2368657220465B688D
:106B140098476468F6E700BFB8330020037A052B72
:106B240010B50C460FD0437A23B1084A08492046D1
:106B340000F052FE0749204600F04EFE2046BDE814
:106B4400104000F03EBE002AF8D0F3E7F3A502009F
:106B5400F8A5020018A60200F0B5C38885B0044663
:106B64000D4633B1284A00922849294A284600F0A4
:106B740033FE217A052945D0637A4BB1A088FFF70B
:106B8400D7FD244B244953F82020284600F024FE46
:106B9400224A23681168B3FBF1F1214B1F68B1FB52
:106BA400F7F34FF461664FF47A70B3FBF6F206FB29
:106BB400123607FB13134FF03C0C00FB03F1B6FB3A
:106BC400FCF3B1FBF7FE0CFB136607FB1E110096EA
:106BD40041432846B1FBF7F1CDE901E1114900F049
:106BE400FBFD227A104BA08853F822600021FFF7A6
:106BF40081FD0E4903463246284605B0BDE8F04003
:106C040000F0EABD05B0F0BDF3A5020003A6020042
:106C1400FBA50200C0A50200F8A50200E037002091
:106C2400DC3700201BA6020044A6020037A602009F
:106C34002DE9F04385B01F460C9D002306460C4603
:106C4400904695F80C902B7329463846FFF784FF3D
:106C5400B8F1060F09D8DFE808F00412181F28332A
:106C640040003146284600F0B7FD00222946384648
:106C7400FFF754FF85F80C9005B0BDE8F083226857
:106C84003146284600F0A8FDEFE7D4E90023314659
:106C9400284600F0A1FDE8E7A36800933146D4E953
:106CA4000023284600F098FDDFE7E3680193A3681A
:106CB40000933146D4E90023284600F08DFDD4E743
:106CC40023690293E3680193A36800933146D4E9EE
:106CD4000023284600F080FDC7E763690393236916
:106CE4000293E3680193A36800933146D4E9002337
:106CF400284600F071FDB8E708292DE9F84F8046D1
:106D04000E4617461C4636D8002593F80C901D7382
:106D140019461046FFF720FFDFF87CA0DFF87CB0AF
:106D2400AE422AD918F805205946204600F054FDF1
:106D34000135082DF4D11649DFF864B0204600F07F
:106D44004BFD0025AE421DD918F805A0504603F0AE
:106D5400D5FA002814BF52462E225946204600F088
:106D64003BFD0135082DEDD1012221463846FFF7C0
:106D7400D5FE84F80C90BDE8F88F5146204600F00B
:106D84002BFDD5E70349204600F026FDE9E700BFC7
:106D9400EEA50200ECA50200EAA50200E4A50200AB
:106DA400F0A50200084A10B50123084C1360002125
:106DB400A04204D801B11360054B186010BD40080F
:106DC4005B000121F4E700BFE037002040420F00E0
:106DD400DC3700202DE9F04F3B4F89B000263B4BB8
:106DE4001B78F5B2AB4202D809B0BDE8F08F384B3E
:106DF400196811F835000124A0F12002C0F1200324
:106E040004FA02F924FA03F349EA0309D7E900234F
:106E140004FA00F8CDE9042302EA080203EA0903AC
:106E2400134301EBC50B4CD0DDE9042322EA08022D
:106E340023EA0903C7E90023079101F0F5FB079949
:106E4400844611F83500A0F12002C0F1200324FA91
:106E540003F304FA02F21A4304FA00F300931D4BFD
:106E64000192DDE90045D3E9002314401D40224688
:106E74002B465FFA8CF40025CDE90445049CA0F16F
:106E84002005AC400394049CC0F1200124FA01F1D4
:106E9400039C0C430499039481400291DDE902456B
:106EA400AB4208BFA2420CD19BF801104B1E5942C1
:106EB4005941A1EB0C02DBF804305142514103B1BA
:106EC400984701368BE700BF18380020E4370020CC
:106ED40020380020103800202DE9F84F06462448B9
:106EE40000F090FB002841D10123A6F12001C6F156
:106EF400200203FA01FB23FA02F203FA06FA1D4BFD
:106F0400D3E900014BEA020B00EA0A0801EA0B0983
:106F140058EA09021F4623D1304601F085FB164B7F
:106F2400B8B1D3E9000140EA0A0441EA0B05C3E918
:106F34000045D7E900234BEA0305104B0C481968B8
:106F44004AEA0204C7E900450022BDE8F84F00F010
:106F540015BBD3E9000120EA0A0421EA0B05E6E7A0
:106F640020EA0A0421EA0B05C3E90045BDE8F88FCD
:106F7400EC3700201838002010380020E8370020B3
:106F8400042A2DE9F34105460C4616463AD901F088
:106F940071FAD8B11C4B1D491D601D4BDFF884806C
:106FA4001C701C4B00221E600023C1E900231A49F7
:106FB400C1E90023013CE4B200260327FF2C0CD1D5
:106FC400164A1748002100F0C7FA03E001F01AFA44
:106FD4000028DFD002B0BDE8F08123B205EBC30284
:106FE40001A992788DF8052015F833008DF8066014
:106FF40042468DF8047001F047FA013CE4B20028DF
:10700400DCD0E7E70720E5E720380020103800202F
:10701400E4370020E837002018380020D96D02003A
:10702400A4A60200DD6E020070B5084D084E0024CF
:107034002B789C4201D3002070BD3368012113F8E2
:10704400340001F0A7FA0134F2E700BFE43700206E
:10705400203800201FB50021039001AA44F201004A
:10706400CDE9011100F004F805B05DF804FB00005F
:1070740010B572B6FFF73EFDFFF77AFB0028FBD18F
:10708400104C11492088000440F00100FFF7E6FC91
:107094000E4B1B68DB0700D500BE20880C4900049A
:1070A40040F00200FFF7DAFCBFF34F8F09490A4BA7
:1070B400CA6802F4E0621343CB60BFF34F8F00BF92
:1070C400FDE700BF38320020A8A60200F0ED00E082
:1070D400B4A6020000ED00E00400FA05094A537862
:1070E40091780133DBB2994208BF002311789942A9
:1070F4001FBF03705078182303FB002014BF043013
:10710400002070472438002073B5054602A80024E7
:1071140000F8014D0E4600F08BFA0DF10600FFF762
:10712400DDFF90B106700A4B9DF8062045605A7049
:107134009DF8070000F0A0FA24B9064B4FF4801222
:10714400C3F80021204602B070BD0424F0E700BF5C
:107154002438002000E100E0024B4FF43C6043F08F
:1071640001031847D0A6020038B50C4B0C4C4FF461
:107174000032C3F8802001254FF48033C4F848332B
:10718400C4F808336560FFF7E7FF064BA5600024E9
:107194001C60FFF7E1FF044B1C7038BD00E100E008
:1071A400001001404039002031390020F8B51F4B50
:1071B4001F491B680025C1F84051C1F84451C1F86A
:1071C4004851C1F84C51C1F80051C1F804514BB3B6
:1071D400D1F8044517490968641A24F07F442F46FE
:1071E4001A68A24209D8A41A15441A7CDE691AB195
:1071F4001F74D3E905209047AEB90F4B0F4A197895
:1072040013788B4205D10133DBB2022B08BF002374
:10721400137012780A4B43F822500A4B4FF4801231
:10722400C3F80021F8BD3346DAE700BF4439002033
:1072340000100140403900203C3900203D39002035
:107244003439002000E100E02DE9F74F9E4A9F49C0
:10725400137809789E4D99423CD00133DBB2022B5E
:1072640008BF002313709B4912789B4B0F6853F897
:1072740022003B1823F07F4300220B602B68164644
:107284001446944613B942B12B6006E01968814252
:107294000ED902B12B60091A19604FF001082B684E
:1072A400DFF83CA200930027BEB9DFF83CB260E0EF
:1072B400401A0C44D968C3F800C0D3F81CE031B1BB
:1072C4003A1922F07F42C3E90121DE611E46012200
:1072D4007346D7E70026B046E1E73446F6697D4AAF
:1072E40063681268DFF804C2A068991A21F07F412C
:1072F400614500F2A58001442160012222742A68BC
:107304000023C4E90133E361002A40F0A2802C6029
:10731400CAE75A1C9BF80210D2B291428BF80020A3
:1073240004BF00228BF80020182202FB03B32A6852
:1073340019799C68022974D003297ED0012918D1B7
:10734400217CB1B9DA6862601A69A2605A699B69E2
:10735400A361624BE2601B78002BC0D06160BEE782
:107364009C4200F093809946DB69002BF8D10023FE
:1073740023749BF800309BF801209A42C9D12B68F2
:107384002FB9009A934202D1B8F1000F43D0002BD9
:1073940079D0D3F800A0524D4E4BD5F804751C6833
:1073A400DFF84C813E1B98F8003026F07F46033608
:1073B4009BB94FF48033C5F84433C5F80433494BC3
:1073C4004FF400324FF00109C3F880211A60C5F868
:1073D4000090FFF7C1FE88F80090B2452CBF5444DA
:1073E400A41924F07F44C5F84045D5F80435DB1BC7
:1073F40023F07F43E41B033324F07F44A3420AD9E0
:10740400D5F80435C5F84035FFF7A6FE354B4FF4E3
:107414000032C3F80021314B00221A7003B0BDE8DA
:10742400F08F13469146A0E71174D2690123002A14
:10743400FAD1002B9DD02A609BE700231946F6E77A
:10744400D31A23F07F43834234BFC31A002323603B
:1074540053E721681368994213D8591A1160E261FD
:1074640055E7091AD8691A4638B10346186888429C
:10747400F7D3401A1860184613462160E061DC61B6
:1074840012E71346F2E7FFF76FFEC4E74C450DD150
:10749400D3692B6053B90F4801920121CAF808102F
:1074A40003600E4B1970FFF757FE019AE1692368D8
:1074B400C9F81C1011B1086803440B602B689A4288
:1074C40018BF012753E700BF3C3900203D39002095
:1074D400443900204039002034390020303900205C
:1074E4000010014000E100E024380020FEFF7F008E
:1074F4003139002010B5FFF737FE114B00200B2265
:1075040018809A700F4B18600F4B18700F4B18703F
:107514000F4B4FF48012E021C3F8802183F8141339
:107524001A6002F18042A2F56F221F24C2F80845B6
:1075340083F81113074BD2F804251A6010BD00BF5D
:1075440024380020443900203C3900203D390020F3
:1075540000E100E040390020074B9B784BB132B189
:1075640028B10368187C20B959745A617047072000
:1075740070470820704700BF243800202DE9F743E6
:107584001D4FBB7805460E4690469BB390B3042925
:107594002ED9436973B3437C02A80024012B00F85D
:1075A400014D0CBF8946A14600F042F80DF10600DA
:1075B400FFF794FDD0B101230370104B4560D3F85D
:1075C4000435C0E90498C0E902369DF806307B70A2
:1075D4009DF8070000F050F824B9094B4FF48012CD
:1075E400C3F80021204603B0BDE8F0830424EFE78C
:1075F4000724F7E70824F5E72438002000100140A9
:1076040000E100E0064A92783AB130B1426922B111
:10761400002202740221FFF777BD0820704700BFE3
:1076240024380020014BD3F80405704700100140B2
:1076340070B5EFF3108672B60C4A946801239CB9B6
:1076440093600B4B0B4DD3F8801029401160C3F8A5
:107654008050D3F8841051604FF0FF32C3F8842077
:10766400047006B962B670BD0370FAE748390020A9
:1076740000E100E0FC06FFBD084B9A6810B55AB162
:1076840050B9EFF3108272B605491C680C605C684F
:107694004C60986002B962B610BD00BF4839002042
:1076A40000E100E050E8002F0B4640E8003C9CF06D
:1076B400000FF7D11046704750E8003F43EA01023B
:1076C40040E8002C9CF0000FF6D11046704750E8BB
:1076D400002F02EA010340E8003C9CF0000FF6D1C1
:1076E4001046704750E8003F03EB010240E8002CCD
:1076F4009CF0000FF6D11046704750E8003FA3EB12
:10770400010240E8002C9CF0000FF6D110467047AF
:107714000121FFF7D1BF0021FFF7D9BF10B590B108
:10772400D0E9012301689B1ADBB20A60013BDBB29A
:10773400FF2B026802D10020107110BD11684C1C8F
:1077440014600B70F2E70E20F7E737B5054602A880
:10775400002400F8014DFFF76BFF2A686B6811687D
:1077640099420ED9481E106011F8014CEB68A98AA1
:1077740001FB0434AB6811791B1ADBB2994238BFA0
:1077840013719DF80700FFF777FF204603B030BD63
:1077940037B5054602A8002300F8013D0C46FFF763
:1077A40047FF2A681368591C1160E968641AA98A9A
:1077B400B4FBF1F41C709DF80700FFF75DFF03B004
:1077C40030BD826810B504462AB143690168006976
:1077D40098470023A36010BD0EB403B5039929B1E3
:1077E40002AA04AB42F8043D00F06AF802B05DF866
:1077F40004EB03B07047826830B40468551C85609C
:10780400A154D0E901329A4202D330BCFFF7D9BF68
:1078140030BC70472DE9F84F9946DDE90A43174615
:10782400824688460A460126BA420FD24E4538BFE0
:107834004E4613F0010B01D164B900240125B9F1BE
:10784400010F1AD909F1FF397D43F8E7B2FBF7F2CA
:107854000136E9E79B070ED5B9F1000F0CBF3025BF
:107864002025A642EAD2013C29465046FFF7C3FF31
:10787400002CF6D1E1E72025F3E7B8FBF5F39F42AE
:10788400E2D9DFF83890B8FBF5F3504619F8031045
:1078940005FB1388FFF7AFFFB5FBF7F5002DF2D119
:1078A400BBF1000F02D00CB1A64201D3BDE8F88FA2
:1078B40020215046013CFFF79EFFF4E7D6A60200C4
:1078C4002DE9F74F054690460E46002900F03A810F
:1078D40016F8011B002958D0252940F0D180002733
:1078E40002E047F001071646324612F8013B2D2B01
:1078F400F7D0302B04D02B2B05D147F00407F2E747
:1079040047F00207EFE700242A2B06F101021BD1FE
:10791400D8F80030191D1B68C8F800101C4416461E
:1079240033782E2B1CD101364FF0000A314611F862
:10793400012BA2F13000092814D80A2303FB0A23DF
:10794400A3F1300A0E46F1E712F8013CA3F130012D
:107954000929E5D80A2101FB0434303C1646D3E753
:107964004FF0000A324612F8011B01F0FB006828B0
:107974001646F8D0692916D054D8582970D00ED894
:1079840025297DD03378002BA2D12B7B002B00F04E
:10799400D980284603B0BDE8F04FFFF712BF632932
:1079A40068D06429EED1D8F80020D2F80090111DD7
:1079B40089EAE972C8F80010A2EBE9724FF0010BF2
:1079C400092A61DCD34538BFD3462CB1B9F1000F85
:1079D40001DB790700D5013CBA0702D5BAF1000FE3
:1079E40004D0FB0702D4002C54D10024B9F1000FB9
:1079F40058DAC9F100092D212846FFF7FCFE07F0EB
:107A04000302022A05D1BAF1000F02D1002C4DD194
:107A14000024CDE9004753460A2249462846FFF789
:107A2400F9FEAFE7732954D016D87029AAD1D8F833
:107A340000301A1DC8F80020302128461C68FFF7C2
:107A4400DAFE78212846FFF7D6FE00220823CDE986
:107A5400003221461022E1E775292FD0782991D1EF
:107A6400D8F800100A1DC8F80020CDE90047534695
:107A740010222CE0D8F800301A1D1978C8F800201C
:107A84002846FFF7B8FE7DE70A230BF1010B92FBB2
:107A9400F3F295E7A345A9D220212846013CFFF73C
:107AA400AAFEA0E77807AAD52B21A5E7A345B0D263
:107AB40030212846013CFFF79EFEA7E7D8F80010C6
:107AC400CDE900470A1DC8F8002053460A22096878
:107AD400A4E7D8F800301A1DC8F80020F907D3F835
:107AE400009012D54F46A7EB090B17F8011B41B9BB
:107AF400A345BFF447AF20212846013CFFF77BFE96
:107B0400F6E72846FFF777FEEDE7B9F1000F17D047
:107B1400484602F08AFC0746BC4200D954B909F130
:107B2400FF3919F8011F00293FF42CAF2846FFF74D
:107B340062FEF6E720212846013CFFF75CFEEBE7F6
:107B44004F46E9E703B0BDE8F08FFFF7E7BDF8B5AE
:107B540046790146721E0546002393422D6803D3DD
:107B64000024A64202D8F8BD0133F6E70F68284680
:107B7400FFF70EFE01343946F3E72DE9F843868A10
:107B8400CD1C0746FFF7E1FD043E35440446B5FB32
:107B9400F6F5F0B14FF48073EDB28380C680013DF9
:107BA400076081464FF00008A84512D23846FFF717
:107BB400CCFD064648B163790133637108F10108CD
:107BC400C9F8000007608146EEE72046FFF7BFFFD3
:107BD40034462046BDE8F88301210430FFF782BD16
:107BE40010B5012104460430FFF787FD10F0FF0FA4
:107BF40004D12046BDE81040FFF7A9BF10BD2DE910
:107C0400F843C7880546181D8846B0FBF7F41646A6
:107C140007FB14003CB9A7EB0009B14528BFB146E6
:107C240026B9BDE8F8832D68013CF3E70430A6EBE0
:107C340009064A4608EB0401284402F09AFBB742BD
:107C44004C442D68B9464FF0000028BFB146E7E721
:107C54002DE9F843C7888846191D0546B1FBF7F49A
:107C6400164607FB14113CB9A7EB0109B14528BF1F
:107C7400B14626B9BDE8F8832D68013CF3E7043129
:107C84002944A6EB09064A4608EB040002F071FBFE
:107C9400B7424C442D68B9464FF0000128BFB146A5
:107CA400E7E741DF70470000064B10B500241C7065
:107CB400054B1C60BFF35F8F0449054800F030F8A2
:107CC400204610BD5C39002060390020E8A602007F
:107CD4005439002007B502A8002300F8013DFFF73E
:107CE400A7FCF1EE103A23F09F03E1EE103ABFF344
:107CF4005F8F0A4B4022C3F884219DF80700FFF7E9
:107D0400BBFC02F0B9F820B1FFF7CBFF03B05DF87C
:107D140004FB20BF40BF20BFF8E700BF00E100E044
:107D24000B684A684360934208BF0023016008BFA0
:107D340043607047436843B10268916852680B44DA
:107D44009342436004BF0023436070470D4930B53C
:107D5400A1F594720225914201D800200EE08B1AFD
:107D6400DB1093FBF5F302EBC30452F83330834288
:107D740005D802D204F10802EDE7606830BD21465F
:107D8400E9E700BF38A8020008B5FFF7DFFF024BA0
:107D9400002808BF184608BDFDA60200054B1B6855
:107DA400082B01BF044B1868B0FA80F0400918BFD3
:107DB40000207047300100103401001008B54FF066
:107DC40080430022C3F80C21C3F81021C3F83825DE
:107DD4004FF0805203F54043D2F80414C3F8201541
:107DE400D2F80814C3F82415D2F80C14C3F82815D3
:107DF400D2F81014C3F82C15D2F81414C3F83015A3
:107E0400D2F81814C3F83415D2F81C14C3F840156A
:107E1400D2F82014C3F84415D2F82414C3F8481532
:107E2400D2F82814C3F84C15D2F82C14C3F8501502
:107E3400D2F83014C3F85415D2F83414C3F86015CA
:107E4400D2F83814C3F86415D2F83C14C3F8681592
:107E5400D2F84014C3F86C15D2F84424C3F8702542
:107E6400FFF79CFF10B1384B384A1A60FFF796FFB2
:107E740018B1374BFB22C3F81825FFF78FFF48B121
:107E84003449354B0A681B6822F00F0203F00F03D4
:107E940013430B60FFF782FF18B1304B4FF40072AD
:107EA4001A604FF08043D3F80024D20744BF6FF028
:107EB4000102C3F800242A4AD2F8883043F470033C
:107EC400C2F88830BFF34F8FBFF36F8F4FF010238A
:107ED400D3F80022002A03DBD3F80432002B2FDA74
:107EE400204B0122C3F80425D3F80024002AFBD038
:107EF4004FF010221221C2F80012D3F80024002AF5
:107F0400FBD04FF010231222C3F80422154B1A465B
:107F1400D3F800140029FBD00021C3F80415D2F8CB
:107F24000034002BFBD0BFF34F8F0D490E4BCA68B2
:107F340002F4E0621343CB60BFF34F8F00BFFDE751
:107F44000A4B0B4A1A6008BD8C5600404881030056
:107F540000F00040E40E0040580200104096024039
:107F640000ED00E000E001400400FA057432002056
:107F74000090D003074B1B5C1F2B8ABF064A4FF0AF
:107F8400A04203F01F03D2F80405D840C04300F018
:107F940001007047F2AB020000030050074B1B5C6A
:107FA4001F2B86BF03F01F0305494FF0A041012298
:107FB40002FA03F3C1F80C35704700BFF2AB0200BC
:107FC40000030050074B1B5C1F2B86BF03F01F03ED
:107FD40005494FF0A041012202FA03F3C1F8083524
:107FE400704700BFF2AB02000003005008B5002048
:107FF400FFF7E8FF0120FFF7E5FF0220FFF7E2FFAC
:108004000320BDE80840FFF7DDBF08B50020FFF7F7
:10801400C5FF0120FFF7C2FF0220FFF7BFFF0320C7
:10802400BDE80840FFF7BABF0A4B185C1F288ABF97
:10803400094B4FF0A04300F01F00D3F804250121A1
:10804400814021EA02000A40C3F80805C3F80C2560
:10805400704700BFF2AB0200000300500B2809D0A8
:108064000C2809D0182809D019280CBF03204FF078
:10807400FF3070470020704701207047022070478E
:10808400C20710B504460CD54FF0A0430322C3F831
:108094003427C3F83827C3F83C27C3F84027FFF731
:1080A400A5FFA3070AD54FF0A0430C22C3F82C2741
:1080B400C3F83027C3F86027C3F8642710BD000055
:1080C40038B5084C04F108030546002818BF1C46BF
:1080D40023682BB11A6822605B6828469847F7E743
:1080E40038BD00BF6C39002020B9054B01225A70FD
:1080F400FFF7E6BF012802D1014A9070F8E7704704
:108104006439002020B9034B01225A70FFF7D8BF0D
:10811400704700BF6439002038B50B4C237883B90D
:108124000A486360A3602361E36000F0D1F8054668
:1081340001F0A2FE08B900F0D9F801232370284603
:1081440038BD8525FBE700BF64390020ED800200BF
:1081540037B502A80023094C00F8013DFFF768FA7F
:10816400E368013BE360E56815B900F0D3F8A57056
:108174009DF80700FFF780FA03B030BD6439002092
:10818400012813B509D003D303281BD002B010BDB6
:108194000F4B0122C3F88020F8E702A800230D4CFE
:1081A40000F8013DFFF744FA23780BB9FFF7B4FF59
:1081B400E3689DF807000133E3600123A370FFF730
:1081C4005BFAE3E700F092F8FFF7C2FFDEE700BFD7
:1081D40000E100E0643900201FB503788DF8003019
:1081E40043680193037A8DF80830C3680393054A02
:1081F400054B684653F8213052F82110984705B0D2
:108204005DF804FB78390020803900201FB503781D
:108214008DF800304368019383688DF80830C36893
:108224000393054A054B684653F8213052F8211050
:10823400984705B05DF804FB7839002080390020A8
:10824400F0B5194B0678DFF870E043F82620174B99
:1082540094460A6943F826204B7F0EF806300C46F4
:1082640007460FCC89B06D460FC594E80F0085E82A
:108274000F001EF80630049653B1BCF1000F0C4AEF
:10828400694608BF0022381D00F040FE09B0F0BD69
:10829400BCF1000F074A694608BF002207F10C0031
:1082A40000F01AFCF2E700BF803900207839002082
:1082B400DD810200118202008839002000F1804033
:1082C400002382B0036003680193019B02B07047EE
:1082D400054A13792BB901211060117153711846A5
:1082E40070478520704700BF8C390020084B1A68FE
:1082F400D20706D4E02283F800230122C3F88021A8
:108304001A604FF080430122C3F81825704700BF5C
:1083140000E100E0044B01221A604FF08042D2F8E1
:108324001834DB03FBD470470C000040124B1B686D
:1083340010B573B14FF48070FFF7C0FF4FF0804366
:108344000122C3F808230D4B587910B95A711B68E0
:1083540098470B4B1B6873B14FF48270FFF7AEFF65
:108364004FF080430222C3F80823044B01201B680A
:10837400BDE81040184710BD000100408C390020B2
:108384000401004000F1804000F5C040002382B0A9
:10839400036003680193019B02B0704703681F2BBD
:1083A40083BF03F01F03036001484FF0A0407047F0
:1083B4000003005007B502AB43F8040D1846FFF75D
:1083C400EDFF019B00EB8300D0F8003723F440332A
:1083D400C0F80037D0F8003743EA0141C0F800176D
:1083E40003B05DF804FB0000054B4FF0FF32072893
:1083F40043F8202084BF1B1883F85820704700BF1F
:108404009439002010B5174C94F86A3043BBFF210F
:10841400E2180133302B82F83010F9D10021C8B2B0
:10842400FFF7E2FF01310C29F9D1062200210E48A1
:1084340001F0C8FF0D4BE02283F806234022C3F865
:1084440080214FF4BE701A60FFF79CFF084B4FF079
:108454000042C3F80423012384F86A30002010BDCD
:108464000820FCE794390020F839002000E100E0FE
:1084740000600040034B93F86A00003018BF0120ED
:10848400704700BF94390020F7B5404F3B180446AD
:1084940093F93030002B944675DA8B78C3F340039C
:1084A400002B15BF0025082508200C20854202D189
:1084B400042003B0F0BD57F8252001324FEA8506A9
:1084C40049D1381947F825C080F8305013B97B19C1
:1084D40083F858408B785A071BD4D8073DD502A897
:1084E40040F8084DFFF75AFF009B00EB8300D0F8DB
:1084F400003723F00203C0F800372548E20804F0EF
:10850400070C012303FA0CF310F802C043EA0C032E
:108514008354887891F800C010F002002AD006F144
:10852400804303F5C0432402D3F8102522F44F32CC
:1085340022F44072C3F810254FEA0C4CD3F81025EE
:1085440004F47C540CF4403C44EA0C041443C3F893
:1085540010450020ADE70135A8E702A84A7840F8A5
:10856400044DFFF71BFF019B03F5E073920040F8F5
:108574002320C2E7083D3D4495F8604044EA8C1C42
:1085840085F860C095E7082093E700BF9439002080
:10859400F839002073B5224C2518064695F9302089
:1085A400072A1ADD224492F858309B09032B10D174
:1085B40002A840F8046DFFF7F1FE019AD0F81035D7
:1085C400D340DB0707D402213046FFF7F3FE02B0A5
:1085D40070BD012BF7D00321F6E7D3B2072BF6D8F1
:1085E400930003F1804303F5C043D3F8100540F032
:1085F4000100C3F8100502F14000800080B2FFF7CB
:10860400C1FE0029E3D095F9303054F82330002B13
:10861400DDD0012303FA02F2024BC3F80423D6E7A8
:10862400943900200060004007B502AB43F8040D04
:108634001846FFF7B3FE019BD0F81005D84000F0B0
:10864400010003B05DF804FB2DE9F04F002489B06C
:10865400CDE902445F4A604E604D01211368A2F5E2
:10866400C040012B80B206D1D6F804330B4202D0AD
:10867400FFF788FE0C430432AA424FEA4101EDD1D0
:10868400574B1B68012B0ED14FF4BE70FFF77AFED7
:108694004FF0A04344F00044D3F810350293514BFB
:1086A400D3F81035039314F0FF0F1AD04E4F002562
:1086B4000126344210D0AB0003F1804303F5C043DC
:1086C400D3F81005D3F8101557F82530C0F305205A
:1086D400C1F3014103B198470135082D4FEA46061D
:1086E400E7D1002C72DA04AE0023049373604FF0D8
:1086F400FF33CDE906333C4F4FF0010800252C46EB
:108704007B1993F96020531C47D0D2B222F0C009E0
:1087140008A84FEAD90300EB030B02F007011BF88A
:10872400080C08FA01F1084237D007EB0900920956
:1087340090F9300057F820A0BAF1000F05D1032AB0
:108744002BD1F05C0843F05401E0032AF9D001A8CE
:10875400CDF80490FFF722FE019B03F5E07350F877
:1087640023301BF8180C0842C3F3014305D0022B35
:1087740013D1032A0BD1114604E0032B0DD1032A94
:1087840005D102214846FFF715FE0134E4B2BAF1DF
:10879400000F02D011464846D0470135042DAFD111
:1087A400A4B14FF0A0430299D3F8102503F5407308
:1087B4009142D3F8103502D10399994206D002921E
:1087C4000393049A059B0692079397E709B0BDE8C3
:1087D400F08F00BF00610040006000402061004055
:1087E4007C6100400003005094390020014B1B6859
:1087F400184700BF003A00200D4B984237B50D468C
:1088040010D102A8002300F8013DFEF711FF094B27
:108814001C7914B901221D601A719DF80700FEF736
:108824002BFF14B9002003B030BD1120FBE700BFBB
:1088340000200040003A0020034B984201BF034B44
:1088440000221A601A71704700200040003A00208C
:108854000023435082B043580193019B02B07047F8
:108864002DE9F041234EDFF89480234F00254FF487
:108874008034D6F8043305F150018900234289B2CB
:108884000ED005EB08039B001B684BB1C6F84843A8
:108894003046C6F80843FFF7DBFF3B68E8B2984769
:1088A4000135042D4FEA4404E3D1124CD4F80433C7
:1088B400DA070BD5D4F8003143B120464FF4807168
:1088C400FFF7C6FF0C4B28461B689847D4F80433BF
:1088D4009B070DD5D4F8043153B106484FF4827187
:1088E400FFF7B6FF044B05201B68BDE8F0411847AD
:1088F400BDE8F08100400240083A0020509000108A
:108904000023435082B043580193019B02B0704747
:108914000A4610B54FF48E71FFF7F2FF136A91689F
:10892400C95C136A01331362C0F81C1510BD8B694E
:108934000A4610B54FF4847123B9FFF7E1FFD0F86C
:10894400183510BDFFF7DCFF536AD168D0F818055D
:10895400C854536A01335362F3E700001FB501237F
:108964008DF80030044BCDE90110D3E900126846BC
:10897400904705B05DF804FB0C3A002030B54C4A32
:10898400D2F8043313F4007F85B015464FD0D2F8E3
:108994002431002B4BD04FF492711046FFF7B0FFF7
:1089A4004FF40173C2F80833424B93F8291009B904
:1089B400012151603E4902228DF80020D1F8802423
:1089C400C1F8802403929A690292DA680192002223
:1089D400C3E906226846D3E9001290473448D0F828
:1089E4001C315BB133490A6A4B699A420A464BD23D
:1089F40091F82830002B47D1FFF78AFF2C4AD2F890
:108A0400443193B14FF4A2711046FFF779FF294B1B
:108A140093F8291009B1012111609A692AB1002241
:108A24009A61586AD968FFF799FF05B030BDD5F847
:108A340004335B07D2D5D5F80831002BCED01D4CBA
:108A44001B482146FFF773FF636AA2699A422346D3
:108A5400C4D1E269E1684AB12369E3600023606A32
:108A6400A261E3616362FFF779FFB7E794F8292015
:108A74000AB901226A600E4A4FF40170C2F8080371
:108A840000229A61586AEEE74FF48E710848FFF7A6
:108A940037FF51690029B1D00023029191688DF804
:108AA4000030019153616846D2E900139847A5E765
:108AB400002000400C3A00201F2886BF00F01F0051
:108AC400044B4FF0A04300F5E070022243F820204D
:108AD400704700BF000300502DE9F843664B04794A
:108AE40091462C2202FB0432064692F82A200D46B7
:108AF4009846002A40F0BC8060490068FFF77CFE7D
:108B04000746002840F0B68029684A1C10D01F2967
:108B140087BF01F01F035A4A0B464FF0A0420120C1
:108B2400984003F5E073C2F80805032042F82300D7
:108B34006868431C0DD01F288BBF00F01F03034639
:108B44004F4A4FF0A04203F5E0734FF0000C42F897
:108B540023C03368AA6995F814C0C3F824256A7D34
:108B6400BCF1010F4CEA0202C3F86C25C3F81405EA
:108B7400C3F80C152BD1A968481C0DD01F298BBF35
:108B840001F01F020A463E484FF0A04002F5E07291
:108B94004FF0000C40F822C0E868421C13D01F2894
:108BA40087BF00F01F0C364A84464FF0A0424FF0B6
:108BB400010E0EFA0CFE0CF5E07CC2F808E54FF04D
:108BC400030E42F82CE0C3F80805C3F810152C2353
:108BD400634308EB0302C2F804902A6948F80320AF
:108BE400B9F1000F31D04FF48E7130682D7FFFF74B
:108BF40087FE30684FF4A271FFF782FE3268214B82
:108C0400C2F80433120B53B2002BA8BF03F1604027
:108C14004FEA53134FEA4511BABF1B4802F00F0540
:108C240000F561404FEA8303C9B203F16043B4BF66
:108C3400415580F8001303F5614302F01F0201213E
:108C440001FA02F2C3F880211A6033680422C3F8DF
:108C540000252C2303FB04830022C3E9062283F8A6
:108C640029205A61012283F82A203846BDE8F88376
:108C74000827FAE71127F8E70C3A00208189020057
:108C8400000300508000020014ED00E02DE9F041E3
:108C940003680479254D0022C3F800252C2202FB29
:108CA40004520646526872B1214AC3F80823190BCC
:108CB4004AB20120520901F01F0100FA01F12032E9
:108CC4001C4840F82210D3F80C05D3F81485D3F8C7
:108CD4000815D3F810754FF0FF329042C3F81425ED
:108CE400C3F80C25C3F80825C3F8102501D0FFF7F5
:108CF400E3FEB8F1FF3F02D04046FFF7DDFE7A1CE9
:108D040002D03846FFF7D8FE4B1C02D00846FFF7C6
:108D1400D3FE3068FFF790FD2C2303FB045400239B
:108D240084F82A306360BDE8F08100BF0C3A00206B
:108D34008402020000E100E02DE9F843224F0679A5
:108D44004FF02C0909FB067480466569002D37D164
:108D54006261A16025624FF48E71006884F8285026
:108D6400FFF7CEFDD8F80000012383602146FFF70A
:108D7400CFFD6368A1462BBBD8F80050226A636913
:108D84009A4212D3D8F80030D3F81C21002AFBD021
:108D94000122DA6000202C2303FB06760023736192
:108DA400BDE8F88394F8283043B9D5F81C31002B7A
:108DB400F8D049462846FFF7ABFDDFE70F20EAE786
:108DC4001120EDE72846EBE70C3A0020002343503E
:108DD40082B043580193019B02B070471FB5012331
:108DE4008DF80030054B8DF8080001916846D3E9F1
:108DF4000012904705B05DF804FB00BF383A00202C
:108E04007FB5384AD2F82461002E49D010464FF479
:108E14009271FFF7DBFF02238DF80030D2F8803423
:108E2400C2F880340393D2F83C358DF808302E4BC9
:108E3400DA6801920022C3E906226846D3E90012E7
:108E44009047284AD2F8443173B14FF4A2711046C6
:108E5400FFF7BCFF244B996931B100219961D2F825
:108E64003C05D968FFF7BAFF1E4AD2F82031ABB1EE
:108E74004FF490711046FFF7A9FF1B4B596969B174
:108E8400D2F84C158DF80810002299688DF800204E
:108E940001915A616846D3E90012904704B070BD4D
:108EA400D2F81031002BCCD04FF488711046FFF764
:108EB4008DFF0D4BD2F83C0599698842C1D1DC691C
:108EC400D96864B1D2F8005225F02005C2F80052E6
:108ED4001A699C61DA60DE61FFF780FFB1E79C618B
:108EE400FAE700BF00200040383A00201F2886BF60
:108EF40000F01F00044B4FF0A04300F5E070022285
:108F040043F82020704700BF000300502DE9F843C8
:108F14006A4B06799146242202FB0632044692F8F3
:108F240020200D469846002A40F0C4806449006819
:108F3400FFF762FC0746002840F0BE802868421C08
:108F440010D01F2887BF00F01F035E4A03464FF06E
:108F5400A0420121994003F5E073C2F808150321EA
:108F640042F8231069684B1C0DD01F298BBF01F0F8
:108F74001F030B46534A4FF0A04203F5E0734FF032
:108F8400000C42F823C02368AA6995F814C0C3F8FA
:108F940024256A7DBCF1010F4CEA0202C3F86C255A
:108FA400C3F80C05C3F814152BD1A968481C0DD0BF
:108FB4001F298BBF01F01F020A4642484FF0A04010
:108FC40002F5E0724FF0000C40F822C0E868421C41
:108FD40013D01F2887BF00F01F0C3A4A84464FF075
:108FE400A0424FF0010E0EFA0CFE0CF5E07CC2F824
:108FF40008E54FF0030E42F82CE0C3F80805C3F867
:1090040010152423734308EB0302C2F804902A6961
:1090140048F80320B9F1000F3BD04FF48871206861
:109024002D7FFFF7D3FE4FF490712068FFF7CEFE3B
:109034004FF492712068FFF7C9FE20684FF4A271C3
:10904400FFF7C4FE2268204BC2F80433120B53B25C
:10905400002BA8BF03F160404FEA53134FEA4511B8
:10906400BABF1A4802F00F0500F561404FEA8303C6
:10907400C9B203F16043B4BF415580F8001303F54E
:10908400614302F01F02012101FA02F2C3F88021B8
:109094001A6023680822C3F80025242303FB0683EF
:1090A4000022C3E906225A61012283F820203846AF
:1090B400BDE8F8830827FAE71127F8E7383A0020D3
:1090C400058E0200000300501003020014ED00E0BE
:1090D4002DE9F04103680479254D0022C3F80025E9
:1090E400242202FB04520646526872B1214AC3F894
:1090F4000823190B4AB20120520901F01F0100FA9A
:1091040001F120321C4840F82210D3F80C05D3F8A2
:109114001485D3F80815D3F810754FF0FF32904238
:10912400C3F80C25C3F81425C3F80825C3F8102583
:1091340001D0FFF7DBFEB8F1FF3F02D04046FFF756
:10914400D5FE7A1C02D03846FFF7D0FE4B1C02D065
:109154000846FFF7CBFE3068FFF76EFB242303FBC2
:109164000454002384F820306360BDE8F08100BF1C
:10917400383A00201003020000E100E001F06043EF
:10918400B3F1005F2DE9F041074632D11C4B06795B
:10919400242505FB063598466C6964BB6A61A960A1
:1091A40000684FF49071FFF711FE4FF4AC7138680A
:1091B400FFF70CFE3B686A69A968C3F84415C3F855
:1091C400482501229A606A68BAB9D3F82011D3F805
:1091D400582149B9002AF8D00F20242303FB06861E
:1091E40000237361BDE8F081002A14BF0F20002022
:1091F400F3E71020F6E71120F4E72046F2E700BF7A
:10920400383A00200220FEF70FBF00002DE9F04796
:1092140081460D46FEF722FF0328044604D8012D9B
:1092240004D024D3022D2FD0BDE8F087194D470078
:109234003A18A918AE5C4A7852B1DFF8688016482B
:1092440042464FF48061FEF799F908B988F8009016
:109254003B192B449A78114B1A55002EE4D0104B2D
:109264001B68002BE0D03046BDE8F04718470A4899
:10927400FEF7C8F9074B04EB440213449E78074BEE
:109284001B5DB342D0D1E8E7024B00EB40041C4421
:109294006678E2E7C03A0020803A0020D93A0020FC
:1092A400D43A00205C3A002002210078FFF7AEBFD8
:1092B40008B5094B1B7853B10020FEF783FE01204B
:1092C400FEF780FE0320BDE80840FEF77BBEBDE844
:1092D4000840FEF78BBE00BF5D3A0020F8B5784C1D
:1092E400237805461BB100232370FFF7E1FF172DF8
:1092F40000F28280DFE805F00C13133F5061717AAD
:10930400828782878F9494949494BEC3CBD3DEDEF9
:10931400FFF7CEFF6B4B00241C702046F8BD0020E5
:10932400FEF728FEF8B10020FEF74CFE022D0CBF1C
:109334004FF4E1614FF47A61624B1D704FF40040C9
:109344004FF47A540025E0FB01454FF4FA42002320
:109354002046294600F012FF002201465A48BDE883
:10936400F840FEF70BB9FEF719FE022D0CBFC82119
:109374004FF4C871E0E70020FEF7FCFD40B1002087
:10938400FEF720FE4FF448714E4B03221A70D5E7C6
:10939400FEF704FEC821F7E70020FEF7EBFD38B125
:1093A4000020FEF70FFE4FF47A61464B0422EDE7EE
:1093B400FEF7F4FD4FF4C871F7E70020FEF7DAFD7D
:1093C40040B10020FEF7FEFD3E4B05221A70CD2170
:1093D4000022C3E7FEF7E2FDF6E70020FEF724FED5
:1093E400384B06221A7000226621B7E70020FEF7E8
:1093F400D5FD344B07221A7000248EE7012020701B
:10940400FEF712FEEFE701202070FEF70DFE0022AA
:109414004FF40071A2E7FEF7F8FD2A4B0C22EAE7AD
:109424002A482B4EFEF7EEF8D5F1110504461CD060
:10943400D8B9012D13D0C8235D434FF400474FF42E
:109444007A5000214FF4FA420023C7FB050100F0D3
:1094540095FE224601461D48FEF790F80446022078
:10946400FEF79CFD0123337057E70220FEF7AAFDA7
:109474000023F8E7FFF71CFF124B1222BBE7FFF7AC
:1094840017FF0020FEF78AFD0E4B1322B3E7FFF708
:109494000FFF0120FEF782FD0A4B1422ABE7FFF712
:1094A40007FF0020FEF77AFD0120FEF777FD054B4C
:1094B4001522A0E7FEF7A9FD024B1D709CE700BF33
:1094C400D03A0020D83A0020A03A0020603A002088
:1094D4005D3A0020044B1B68DB0703D5034B187867
:1094E400FFF7FCBE704700BFCC3A0020D83A0020FA
:1094F40038B51C4B18601C4B10F00204054619606B
:1095040019D01A4B1A480E221A700F22DA70102240
:109514009A7111225A7204213322FDF731FD044657
:1095240048B9FDF781FD044628B90146114A12489D
:10953400FEF712F80446EB0711D50120FEF7A0FD53
:109544006CB921460D4A0E48FEF706F8044630B9B8
:109554000C4A0D480121BDE83840FDF7FDBF204607
:1095640038BD00BFCC3A0020D43A0020C03A0020D5
:109574001CAC0200AD92020040AC0200D99402007F
:1095840044AC0200099202003CAC020074DF704754
:1095940075DF704776DF704777DF70477ADF704793
:1095A4007CDF704788DF70478ADF70478BDF704746
:1095B4008CDF7047704700002B4B18884FF6FF7301
:1095C400984270B5294D14D0294C012313212B70D6
:1095D4002370FFF7DFFF0246002835D0254B2649CC
:1095E4001B881B0443F00100FDF73CFA00232B7099
:1095F4002370224CFFF7DAFF94F9002000210220A7
:10960400FFF7CAFF08B1FDF725FD1A4E227830880E
:109614001B49000440F00300FDF724FA194B30887D
:109624001B7800048BB1012B17D1174940F00300BC
:10963400FDF714FA15491648FFF7B6FF08B1FDF710
:1096440009FD00232B7070BDFEE7124940F00300B2
:10965400FDF704FA0D491048EEE7104940F0030005
:10966400FDF7FCF9EDE700BF7A320020203B002033
:10967400643C002038320020BEB002008432002056
:10968400F1B00200783200200CB1020088320020D0
:1096940002AF020028B10200F4AE020040B10200A1
:1096A4000120FEF7C1BC0020FEF7BEBC0220FEF77D
:1096B400BBBC000008B5104B0246187010B101285D
:1096C4000BD008BD4FF440710C48FDF757FF00283C
:1096D400F7D0BDE80840FDF7BDBC0848FDF792FF90
:1096E40008B1FDF7B7FC0020FEF758FC0320BDE8E5
:1096F4000840FEF767BC00BF78320020E03A002043
:1097040008B50F4B187078B1082818D10120FEF75E
:1097140059FC00224FF440710A48FDF72FFF70B145
:10972400BDE80840FDF796BC0648FDF76BFF08B19D
:10973400FDF790FC0120BDE80840FEF72FBC08BDF2
:1097440084320020003B0020154B10B504461870ED
:109754000320FEF737FCA4B1012C20D11148FDF7FA
:1097640051FF08B1FDF776FC0220FEF717FC0E4B03
:109774000E491888000440F00300BDE81040FDF7CE
:109784006DB922464FF440710648FDF7F7FE08B163
:10979400FDF760FC044B064918880004EBE710BD94
:1097A400403C0020203C0020383200201AB0020047
:1097B40073B0020008B5084B1878FFF77BFF074B1E
:1097C4001878FFF7C1FF064B1878FFF799FFBDE83B
:1097D4000840FFF7F1BE00BF78320020403C002073
:1097E40084320020112808B523D00F280FD0102868
:1097F40016D00E2807D10F4B1B78002B0CBF01206D
:109804000020FFF757FFBDE80840FFF7D5BE0A4B1D
:109814001B78002B0CBF08200020FFF771FFF2E734
:10982400064B1B78002B0CBF01200020FFF78CFF98
:10983400E9E708BD7832002084320020403C002053
:109844002DE9F04103881D2B86B004463AD01AD87E
:10985400112B00F0068109D8102B00F0D480A34B03
:10986400A3491888000440F0040036E1122B9F4AF3
:1098740000F010811C2BF2D11088637A94F908202F
:109884009C4900040BE1222B984D00F0218108D85B
:109894001F2B00F00981212BE1D12888964900046F
:1098A40019E13B2B01D0562BD9D1288893490004C8
:1098B40040F00400FDF7D2F8914B13211888FFF70C
:1098C40069FE21E0818C8F4A006A00F02BFA237A2A
:1098D40013F00103054640F003818B4A1278C0B9A6
:1098E400012A17D0894B1E78012E40F08980002D63
:1098F40000F08680834AA18C206A00F013FA0028C5
:1099040032D18349FFF750FE002876D0FDF7A2FB41
:1099140073E01D460320754EFEF786FB237E3088D8
:1099240094F91B20012B4FEA004016D1794940F0ED
:109934000300FDF797F8217C3088237BE27A0391BA
:10994400E17B0291A17B0191617B0091000472494A
:1099540040F00300FDF79AF8C4E7042B40F003003D
:109964000CBF6E496E49E4E7604D664A28886D492C
:109974006D4F000440F00300FDF774F8FF20FFF77B
:1099840005FE06233B807B805F4B288893F800808C
:10999400B8F1010F04F10A044FEA00401FD16349F2
:1099A40040F00300FDF75AF8204643463A46604922
:1099B400FFF7FEFD044600B328885E4900042246F2
:1099C40040F00100FDF74EF828885A490004224669
:1099D40040F00100FDF746F8FFF7EEFD0DE05649B3
:1099E40040F00300FDF73AF8204633463A4653491F
:1099F400FFF7DEFD04460028E6D106B0BDE8F0819D
:109A0400434900207EE7C37B3D4A81881180012BB6
:109A140014461FD1354B4A491888000440F003000E
:109A2400FDF71CF8FFF7C2FD464B218893F900208F
:109A34000320FFF7B1FD08B1FDF70CFB0220FEF790
:109A4400C1FA0320FEF7AAFA0A2202212088FFF7AE
:109A5400A9FD59E7022BE5D1244B3B4918880004A2
:109A6400DCE7274B027A4FF6FF711980374B002150
:109A740019701E4B36491888000440F00400FCF7A6
:109A8400F1FF344B1B78002BB7D1FEF7AFFAFFF789
:109A940091FEB2E71088638922892F49000440F0BF
:109AA4000300FCF7E9FFA8E700F1080292E80300CD
:109AB40004AB83E803001946A088FFF769FD08B1E9
:109AC400FDF7C8FA28886389228924490004E6E757
:109AD40028882349000440F00300FCF7BFFF8CE70B
:109AE40000287FF417AF0125FCE600BF38320020C0
:109AF400C6AE02002EAE020096AE020051AE0200C7
:109B04007A32002014AF020078320020403C00205A
:109B14008832002048AC0200C6AC020072AC0200DD
:109B24009BAC0200E9AC02007C3200201AAD0200BA
:109B340002AF020033AD020056AD0200F4AE0200E3
:109B44006BAD0200843200209AAD0200643C002018
:109B5400B2AD0200203B0020CDAD0200F6AD020004
:109B64006EAE020013B54FF400414D48FCF790FD72
:109B740008B1FDF76FFAFCF7B3FCFDF7BBFC08B1C5
:109B8400FDF768FA474A48480121FDF7E5FC08B1AA
:109B9400FDF760FA454A46480121FDF7DDFC08B1AE
:109BA400FDF758FA434A44480121FDF7D5FC08B1B2
:109BB400FDF750FA414A42480121FDF7CDFC08B1B6
:109BC400FDF748FA3F490320FFF792FC08B1FDF77F
:109BD40041FAFEF70BFAFEF767F808B1FDF73AFA17
:109BE40000F00EF908B1FDF735FA02AC002344F891
:109BF400043D0120214600F08FF908B1FDF72AFA4F
:109C0400204600F051FA08B1FDF724FA11232E483A
:109C14008DF8043000F009FC2B4982B22046FFF78E
:109C2400BFFC08B1FDF716FA2848FFF7B7FC08B1E6
:109C3400FDF710FA264C27492088000440F0030061
:109C4400FCF70CFF20882449000440F00300FCF7D3
:109C540005FF20882149000440F00300FCF7FEFEC4
:109C640020881F49000440F00300FCF7F7FE208819
:109C74001C49000440F00300FCF7F0FEFFF79AFDD6
:109C840000224FF440711848FDF778FC08B1FDF745
:109C9400E1F9FCF76DFD0028FBD1FEF71BF8F8E7AE
:109CA40029760200B196020010AF0200AB960200C2
:109CB400ECAE0200A5960200F0AE0200B9950200D7
:109CC40024AF0200E997020028AF02007C32002092
:109CD4003832002038AF020055AF02008DAF0200C9
:109CE400BAAF0200F1AF0200443C002070B5C0B12D
:109CF4004AB116880024B44203D305196D789D42F5
:109D040008D0A14201D800200BE0055D01352C44A8
:109D1400A4B2F0E7A142F6D9A31C1380005D013878
:109D240080B270BDF7B500230746ADF8063014467F
:109D340012B9002003B0F0BD09230DF10602FFF7AC
:109D4400D5FFBDF806500646002DF2D00028F0D00D
:109D5400204600F06AFBB0420246EAD17919204657
:109D640000F0D1FAB0FA80F04009E3E710DF704761
:109D740013B5044609496846FDF7D2FF019808B9AE
:109D840002B010BDD0E900312046984718B16846AA
:109D9400FDF7D0FFF2E71120F2E700BF7CB102002B
:109DA40013B5044607496846FDF7BAFF019B0BB992
:109DB40002B010BD2046D3E9002190476846FDF764
:109DC400B9FFF3E794B102000B4A92F816335B092A
:109DD400012B08D9042B06D0084B996839B94FF4E4
:109DE40080031360704742F20200FDF733B91A682A
:109DF40042F480021A60704700E100E04839002014
:109E0400F7B5184F3C785CBB174E012520463570DA
:109E1400FFF7AEFF112820D02046FFF7C1FF134BF8
:109E24001868019002A800F8054DFDF701FC1049DF
:109E340001A8FFF79BFF0446B0FA80F04009387090
:109E44009DF80300FDF718FC3CB90A4B34701C70F4
:109E5400FFF7BAFF2846FFF7A3FF204603B0F0BD83
:109E64000824FAE7663C0020653C002075B1020036
:109E740075700200673C0020014B1878704700BFE2
:109E8400663C002007B508496846FDF749FF019B79
:109E940013B903B05DF804FBD3E90020904768468A
:109EA400FDF748FFF3E700BF88B10200FFF7EABF00
:109EB40060DF704769DF704761DF704730B5114D6F
:109EC400ADF5017D4FF4FA740DF1020103A8ADF86C
:109ED4000240FFF7F1FF70B9294601A8FDF720FF02
:109EE400029B002BF0D003A8D3E90021904701A8DE
:109EF400FDF720FFF4E7052801D0FDF7ABF80DF5D9
:109F0400017D30BD18B40200024B1B780BB1FFF782
:109F1400D5BF7047683C00207FB506460C46002933
:109F240000F0AF80584B0B600C22002101A800F018
:109F340049FA01238DF8063022688DF804604FF445
:109F4400C87301A92020ADF80830FFF7B3FF58B15A
:109F54004E4B1D88FDF718FF2D0445F00105024600
:109F64004B492846FCF77EFD0C22002101A800F095
:109F740029FA012322688DF8053001A940208DF8C3
:109F840006308DF80730FFF795FF58B13F4B1D8819
:109F9400FDF7FAFE2D0445F0010502463D49284629
:109FA400FCF760FD0C22002101A800F00BFAF72356
:109FB40022688DF8046001A92320ADF80630FFF76C
:109FC40079FF58B1314B1D88FDF7DEFE2D0445F0B5
:109FD4000105024630492846FCF744FD0C220021C5
:109FE40001A800F0EFF9012022688DF8040001A90E
:109FF400FFF760FF58B1254B1D88FDF7C5FE2D0402
:10A0040045F00105024625492846FCF72BFD0C22A4
:10A01400002101A800F0D6F94FF4B063226801933F
:10A0240001A9A120FFF746FF58B1184B1D88FDF781
:10A03400ABFE2D0445F00105024619492846FCF7FC
:10A0440011FD0C22002101A800F0BCF99DF8043098
:10A0540022686FF3000301A9A0208DF80430FFF7F4
:10A0640029FF60B1094B1C88FDF78EFE240444F0DF
:10A07400010402460B492046FCF7F4FC002004B01E
:10A0840070BD0E20FBE700BF2032002048320020C4
:10A09400A8B10200EEB102003AB2020081B202009D
:10A0A400CDB202001EB30200F8B504460768FFF7FC
:10A0B400FFFE2368BB42054620D91A4E1A49308850
:10A0C400000440F00200FCF7C9FC308823681749FB
:10A0D40000043A4640F00200FCF7CEFC4FF08053F7
:10A0E4003088D3F80C31226811499B0203F10053E4
:10A0F40000049A1A40F00200FCF7B4FC25B90D4B99
:10A1040001221A702846F8BD064B28461C88FDF724
:10A114003BFE240444F00104024607492046FCF7B0
:10A12400A1FCEFE74832002071B30200A0B30200A3
:10A13400D1B30200683C0020FBB302004BDF704740
:10A144001FB50D4C01A8FFF7F9FF70B9214602A80D
:10A15400FDF7E6FD039B002BF4D00198D3E9002121
:10A16400904702A8FDF7E6FDF4E7052801D0FCF7C7
:10A1740071FF04B010BD00BF30B4020053EA020CFA
:10A1840061D02DE9F04BB3FA83F51E0007BFB2FA94
:10A1940082F502FA05F403FA05F41646C5F1200522
:10A1A4001EBF22FA05F73C43203556EA044C4FEA19
:10A1B400144418BF0134A3464FF00009C846904226
:10A1C40071EB030C39D3094207BFB0FA80F700FAE8
:10A1D40007F6B1FA81F701FA07F6C7F120071EBFA7
:10A1E40020FA07FC46EA0C062037B6FBFBFC7F1B73
:10A1F400103F07F01F04C4F120060CFA04F42CFAF3
:10A2040006F644BF34460026202FA4BF2646002469
:10A2140054EA060C08BF012418EB040849EB0609AC
:10A22400A4FB027CC01B06FB02CC04FB03CC71EB39
:10A234000C01904271EB030CC5D20B460246494611
:10A244004046BDE8F08BB2FBF3F200007F2805D84E
:10A25400034B185C034B5B5C18407047002070474D
:10A2640048B40200C8B40200A0F16103192B98BFDE
:10A2740020387047A0F14103192B98BF2030704754
:10A284007F2805D8034B185C034B5B5C1840704770
:10A294000020704748B40200C8B40200A0F1610372
:10A2A400192B98BF20387047A0F14103192B98BF90
:10A2B400203070477F299ABF017001206FF02E0073
:10A2C40070475AB10A787F2A0AD800B10260002187
:10A2D40019605960501A18BF012070470020704758
:10A2E4006FF02E007047000008B5034B5B689B6855
:10A2F4001B68984708BD00BF9032002008B50921AB
:10A30400FFF7F2FF08BD92B370B4134640EA0102AE
:10A3140012F0030F17D05A1E10D004780B789C4209
:10A324000CD1431C4C1C024418462146934205D0D0
:10A334000133013406780D78AE42F5D000780B78FD
:10A34400C01A70BC70470F2BE5D904680A689442A0
:10A35400E1D1041D0A1D20461146043B042BDAD921
:10A364000434043206680D68AE42F4D0D3E700200A
:10A374007047844640EA010313F0030F18D1844662
:10A38400202A0BD32DE9F007B1E8F807A0E8F80775
:10A39400A2F12002202AF7D2BDE8F007042A07D34D
:10A3A40051F8043B40F8043BA2F10402042AF7D21A
:10A3B400002A05D011F8013B00F8013B013AF9D11C
:10A3C400604670478446002A2DD010F0030F04D055
:10A3D40000F8011B013A26D0F7E7C9B241EA01218E
:10A3E40041EA0141202A12D3A2F120022DE9F0030F
:10A3F4000B460C460D460E460F4688468946A0E895
:10A40400FA03203AFBD2BDE8F00320320BD0042A31
:10A4140005D340F8041B043A05D0042AF9D200F805
:10A42400011B013AFBD16046704700F1010110F0B5
:10A43400030F11D010F8012B002A23D010F0030FC2
:10A444000AD010F8012B002A1CD010F0030F03D0FF
:10A4540010F8012B002A15D02DE970004FF00132BD
:10A464004FF0803350F8044BA4EB020525EA0405B1
:10A474001D4000D1F6E7A0F1040070BC10F8012BD8
:0AA48400002AFBD1A0EB0100704795
:08A49000098102000000000038
:08A498004598020000000000DD
:10A4A000FCAB02000000000002AC02000000000053
:10A4B00009AC0200000000000DAC0200000000002A
:10A4C00011AC02000000000016AC02000000000009
:10A4D000A9A5020000000404ADA5020000000003CD
:10A4E000F6AB020000000000A0B102000000030370
:10A4F00024B40200000003033CB402000000030384
:08A50000F4A6020000000000B7
:10A50800E8320020B0330020B8330020F0320020B9
:08A518003C3200201800000095
:08A5200085810200000000002B
:10A528000D9F02000000000045A10200000000008D
:10A538000000000000000000000000000000000013
:10A548000000000000000000000000000000000003
:10A5580000000000000000000000000000000000F3
:04A5680000000000EF
:10A56C00FFFFFFFFFFFFFFFFFFFFFFFFFFFFFFFFEF
:10A57C0000000000000000000000D60107010000F0
:10A58C004D640200B1640200FD6302004261636B22
:10A59C00656E647320666C757368656400617070B9
:10A5AC000062616C6C6F632E6C6F675F6D656D70B4
:10A5BC006F6F6C00F3A5020058A60200FBA5020009
:10A5CC0060A6020068A6020070A6020078A602002F
:10A5DC0080A6020088A602002025303278002020B8
:10A5EC0020007C002563001B5B306D002573001B75
:10A5FC005B313B33316D0025734C6F677320647294
:10A60C006F70706564202825642925730D0A005B22
:10A61C00253032643A253032643A253032642E25A6
:10A62C003033642C253033645D20003C25733E2090
:10A63C0025733A200000000000000000AEA60200C6
:10A64C0090A6020098A602009DA602001B5B313B5F
:10A65C0033306D001B5B313B33326D001B5B313B88
:10A66C0033336D001B5B313B33346D001B5B313B73
:10A67C0033356D001B5B313B33366D001B5B313B5F
:10A68C0033376D007761726E696E6700696E666F45
:10A69C000064656275670000EC37002046617461E8
:10A6AC006C206572726F720053797374656D2072D1
:10A6BC0065736574000000000000000000000000DD
:10A6CC00000000000338FDD8704730313233343588
:10A6DC0036373839414243444546000098A40200BD
:10A6EC0098A40200040000007077725F6D676D74AF
:10A6FC0000556E6B6E6F776E206572726F72206391
:10A70C006F6465000000000038A802000100000022
:10A71C0044A802000200000062A80200030000002E
:10A72C0083A802000400000096A8020005000000A7
:10A73C00A7A8020006000000BBA80200070000004A
:10A74C00D3A8020008000000EBA8020009000000DA
:10A75C0003A902000A0000001CA902000B00000063
:10A76C0034A902000C0000004BA902000D000000EF
:10A77C005FA902000E00000071A902000F0000008A
:10A78C0080A902001000000094A902001100000032
:10A79C00ABA9020012000000BAA9020013000000CD
:10A7AC00CFA9020080000000E3A902008100000094
:10A7BC0004AA02008200000020AA0200830000000C
:10A7CC003CAA0200840000005AAA02008500000086
:10A7DC007BAA020086000000A0AA020090000000E4
:10A7EC00B7AA020091000000D5AA02009200000056
:10A7FC00F3AA02000082000008AB020001820000F4
:10A80C0026AB02000282000042AB02000084000072
:10A81C005EAB02000184000082AB020002840000E7
:10A82C00ACAB020003840000D1AB02004E52465F79
:10A83C0053554343455353004E52465F4552524F76
:10A84C00525F5356435F48414E444C45525F4D490D
:10A85C005353494E47004E52465F4552524F525F3A
:10A86C00534F46544445564943455F4E4F545F45FC
:10A87C004E41424C4544004E52465F4552524F5257
:10A88C005F494E5445524E414C004E52465F455224
:10A89C00524F525F4E4F5F4D454D004E52465F45F5
:10A8AC0052524F525F4E4F545F464F554E44004EDE
:10A8BC0052465F4552524F525F4E4F545F53555064
:10A8CC00504F52544544004E52465F4552524F52DF
:10A8DC005F494E56414C49445F504152414D004EE8
:10A8EC0052465F4552524F525F494E56414C494475
:10A8FC005F5354415445004E52465F4552524F529D
:10A90C005F494E56414C49445F4C454E47544800B4
:10A91C004E52465F4552524F525F494E56414C493A
:10A92C00445F464C414753004E52465F4552524F8E
:10A93C00525F494E56414C49445F44415441004E8C
:10A94C0052465F4552524F525F444154415F534906
:10A95C005A45004E52465F4552524F525F54494D34
:10A96C00454F5554004E52465F4552524F525F4E22
:10A97C00554C4C004E52465F4552524F525F464F1B
:10A98C005242494444454E004E52465F4552524F46
:10A99C00525F494E56414C49445F41444452004E2B
:10A9AC0052465F4552524F525F42555359004E52D8
:10A9BC00465F4552524F525F434F4E4E5F434F5589
:10A9CC004E54004E52465F4552524F525F524553C1
:10A9DC004F5552434553004E52465F4552524F52CB
:10A9EC005F4D4F44554C455F4E4F545F494E495453
:10A9FC0049414C495A4544004E52465F4552524FCC
:10AA0C00525F4D555445585F494E49545F46414934
:10AA1C004C4544004E52465F4552524F525F4D5585
:10AA2C005445585F4C4F434B5F4641494C4544009D
:10AA3C004E52465F4552524F525F4D555445585FEA
:10AA4C00554E4C4F434B5F4641494C4544004E528A
:10AA5C00465F4552524F525F4D555445585F434FD8
:10AA6C004E445F494E49545F4641494C4544004E63
:10AA7C0052465F4552524F525F4D4F44554C455FC5
:10AA8C00414C52454144595F494E495449414C4906
:10AA9C005A4544004E52465F4552524F525F5354F2
:10AAAC004F524147455F46554C4C004E52465F4510
:10AABC0052524F525F4150495F4E4F545F494D5077
:10AACC004C454D454E544544004E52465F455252FE
:10AADC004F525F464541545552455F4E4F545F456A
:10AAEC004E41424C4544004E52465F4552524F52E5
:10AAFC005F494F5F50454E44494E47004E52465FAA
:10AB0C004552524F525F4452565F5457495F45521B
:10AB1C00525F4F56455252554E004E52465F45526B
:10AB2C00524F525F4452565F5457495F4552525FE1
:10AB3C00414E41434B004E52465F4552524F525F7D
:10AB4C004452565F5457495F4552525F444E4143FD
:10AB5C004B004E52465F4552524F525F424C455F3E
:10AB6C00495053505F52585F504B545F5452554E9E
:10AB7C004341544544004E52465F4552524F525F3A
:10AB8C00424C455F495053505F4348414E4E454CF3
:10AB9C005F414C52454144595F4558495354530009
:10ABAC004E52465F4552524F525F424C455F4950A0
:10ABBC0053505F4C494E4B5F444953434F4E4E45A7
:10ABCC0043544544004E52465F4552524F525F42E9
:10ABDC004C455F495053505F504545525F52454A72
:10ABEC004543544544000D0E0F10636C6F636B00AE
:10ABFC00434C4F434B004750494F54450050525320
:10AC0C000052544300554152540055415254450092
:10AC1C000B000300119202000C00030011920200C1
:10AC2C001800030011920200190003001192020097
:10AC3C00603A0020803A0020A03A002052656365FB
:10AC4C006976656420414456207265706F72742C6D
:10AC5C0020525353492025642C207068793A2031B6
:10AC6C00204D62707300526563656976656420419E
:10AC7C004456207265706F72742C205253534920C5
:10AC8C0025642C207068793A20636F6465640052E7
:10AC9C006563656976656420414456207265706F02
:10ACAC0072742C20525353492025642C20706879DF
:10ACBC003A20756E6B6E6F776E006164647220253E
:10ACCC003032783A253032783A253032783A25309D
:10ACDC0032783A253032783A25303278004465762D
:10ACEC00696365202225732220666F756E642C20A3
:10ACFC0073656E64696E67206120636F6E6E656349
:10AD0C0074696F6E20726571756573742E00436F74
:10AD1C006E6E656374696E67206F6E20636F646519
:10AD2C0064207068792E0073645F626C655F676184
:10AD3C00705F636F6E6E6563742829206661696C41
:10AD4C0065643A20307825782E00436F6E6E65630B
:10AD5C0074696E67206F6E20314D6270732E0043E4
:10AD6C006F6E6E656374656420617320612070651D
:10AD7C00726970686572616C2E2053686F756C64B3
:10AD8C00206E6F742068617070656E642E00436F66
:10AD9C006E6E656374656420617320612063656EFB
:10ADAC007472616C2E00446973636F6E6E656374AC
:10ADBC0065643A20726561736F6E20307825782E49
:10ADCC0000436F6E6E656374696F6E20696E746597
:10ADDC007276616C20757064617465643A203078A9
:10ADEC0025782C20307825782E00436F6E6E6563A5
:10ADFC0074696F6E20696E74657276616C20757003
:10AE0C006461746564202875706F6E20726571754D
:10AE1C00657374293A20307825782C203078257881
:10AE2C002E0052535349206368616E6765642C2071
:10AE3C006E65773A2025642C206368616E6E656CB4
:10AE4C003A20256400474154542074696D656F7530
:10AE5C00742C20646973636F6E6E656374696E67BE
:10AE6C002E00424C455F4741505F4556545F504859
:10AE7C00595F5550444154453A206E6F7420696DAA
:10AE8C00706C656D656E74656400424C455F47413E
:10AE9C00505F4556545F5048595F55504441544596
:10AEAC005F524551554553543A206E6F7420696D6D
:10AEBC00706C656D656E746564005265636569766A
:10AECC00656420616E20756E696D706C656D656E64
:10AEDC0074656420424C45206576656E742E0000C6
:10AEEC00E03A0020003B00200401A000A00000007C
:10AEFC000000000000000504A000A00000000000FD
:10AF0C0000000000203C00204C6F6E672072616EC8
:10AF1C0067652064656D6F00443C00204C6F6E6764
:10AF2C002072616E67652064656D6F004C6F6E6793
:10AF3C002072616E67652064656D6F20202D2D6316
:10AF4C00656E7472616C2D2D005072657373207474
:10AF5C00686520627574746F6E7320746F207365EE
:10AF6C0074207570207468652063656E7472616CF2
:10AF7C0020696E2077616E746564206D6F64653A2C
:10AF8C0000427574746F6E20313A20737769746364
:10AF9C0068206265747765656E20636F64656420F4
:10AFAC0070687920616E6420314D62707300427557
:10AFBC0074746F6E20323A20737769746368206200
:10AFCC0065747765656E20302064626D20616E64F7
:10AFDC0020382064426D206F757470757420706F0A
:10AFEC007765722E00427574746F6E20333A20733D
:10AFFC007769746368206265747765656E20736326
:10B00C00616E6E696E67206D6F6465732E0053639D
:10B01C00616E206D6F6465207365743A2073636193
:10B02C006E6E696E672C20747279696E6720746F0E
:10B03C0020636F6E6E6563742E2057696C6C206292
:10B04C0065206170706C696564207768656E20732B
:10B05C0063616E6E696E672069732072652D7374FF
:10B06C0061727465642E005363616E206D6F64654C
:10B07C00207365743A207363616E6E696E67206F1E
:10B08C006E6C792E2057696C6C2062652061707033
:10B09C006C696564207768656E207363616E6E6998
:10B0AC006E672069732072652D73746172746564A8
:10B0BC002E007363616E5F73746172742C20736401
:10B0CC005F626C655F6761705F646973636F6E6EFE
:10B0DC006563742829206661696C65643A20307850
:10B0EC002530782E004F757470757420706F7765ED
:10B0FC00722073657420746F2025642064426D0087
:10B10C005374617274696E67207363616E206F6E25
:10B11C0020636F646564207068792E0053746172CB
:10B12C0074696E67207363616E206F6E20314D629F
:10B13C0070732E005068792073656C656374696F49
:10B14C006E20646964206E6F74206D617463682076
:10B15C0073657475702E205363616E206E6F74204E
:10B16C00737461727465642E0001000007000000A6
:10B17C0038A5020038A502000800000028A502002E
:10B18C0038A502000800000020A5020028A5020036
:10B19C00080000006E72665F7364680073645F621F
:10B1AC006C655F6366675F736574282920726574CC
:10B1BC0075726E6564202573207768656E206174E6
:10B1CC0074656D7074696E6720746F20736574207C
:10B1DC00424C455F434F4E4E5F4346475F4741509D
:10B1EC002E0073645F626C655F6366675F73657482
:10B1FC0028292072657475726E656420257320771A
:10B20C0068656E20617474656D7074696E67207406
:10B21C006F2073657420424C455F4741505F434635
:10B22C00475F524F4C455F434F554E542E0073644D
:10B23C005F626C655F6366675F7365742829207253
:10B24C00657475726E6564202573207768656E2051
:10B25C00617474656D7074696E6720746F207365AA
:10B26C007420424C455F434F4E4E5F4346475F4709
:10B27C004154542E0073645F626C655F6366675F54
:10B28C0073657428292072657475726E6564202547
:10B29C0073207768656E20617474656D7074696E67
:10B2AC006720746F2073657420424C455F434F4D8B
:10B2BC004D4F4E5F4346475F56535F555549442E9D
:10B2CC000073645F626C655F6366675F73657428A7
:10B2DC00292072657475726E6564202573207768F9
:10B2EC00656E20617474656D7074696E6720746F1F
:10B2FC002073657420424C455F47415454535F435F
:10B30C0046475F415454525F5441425F53495A453A
:10B31C002E0073645F626C655F6366675F73657450
:10B32C0028292072657475726E65642025732077E8
:10B33C0068656E20617474656D7074696E672074D5
:10B34C006F2073657420424C455F47415454535FE2
:10B35C004346475F534552564943455F4348414E28
:10B36C004745442E00496E73756666696369656E60
:10B37C00742052414D20616C6C6F63617465642064
:10B38C00666F722074686520536F667444657669C5
:10B39C0063652E004368616E676520746865205292
:10B3AC00414D207374617274206C6F636174696FAA
:10B3BC006E2066726F6D203078257820746F203087
:10B3CC007825782E004D6178696D756D2052414D50
:10B3DC002073697A6520666F72206170706C696386
:10B3EC006174696F6E20697320307825782E007334
:10B3FC00645F626C655F656E61626C6528292072A2
:10B40C00657475726E65642025732E0098A4020015
:10B41C00A0A40200080000006E72665F7364685F8F
:10B42C00626C650090A4020098A402000800000061
:10B43C006E72665F7364685F736F630020202020F8
:10B44C002020202020682828282820202020202088
:10B45C0020202020202020202020202048101010E8
:10B46C001010101010101010101010108484848400
:10B47C0084848484848410101010101010818181B5
:10B48C008181810101010101010101010101010120
:10B49C0001010101010101101010101010828282B3
:10B4AC0082828202020202020202020202020202F0
:10B4BC0002020202020202101010102000070320E8
:10B4CC000417020108571040800000007CB60200EF
:10B4DC0040B5020054B6020053756E004D6F6E00FD
:10B4EC0054756500576564005468750046726900B0
:10B4FC0053617400000000004A616E0046656200F2
:10B50C004D617200417072004D6179004A756E0098
:10B51C004A756C0041756700536570004F63740089
:10B52C004E6F76004465630000000000414D0050F2
:10B53C004D00000078B6020074B6020074B602002A
:10B54C0074B6020074B6020074B6020074B602003F
:10B55C0074B6020074B6020074B60200FFFFFFFF5F
:10B56C00FFFFFFFFFFFFFFFFFFFF0000B4B502006E
:10B57C00E4B40200F0B5020004B5020038B50200D4
:10B58C0098B5020048B60200A4B50200256D2F251F
:10B59C00642F257900000000256120256220256597
:10B5AC00202554202559000053756E646179004D97
:10B5BC006F6E6461790054756573646179005765C9
:10B5CC00646E657364617900546875727364617933
:10B5DC0000467269646179005361747572646179B3
:10B5EC00000000004A616E756172790046656272F6
:10B5FC0075617279004D6172636800417072696C9B
:10B60C00004D6179004A756E65004A756C79004190
:10B61C0075677573740053657074656D626572003F
:10B62C004F63746F626572004E6F76656D62657202
:10B63C0000446563656D62657200000025483A251B
:10B64C004D3A25530000000051A202006DA20200E9
:10B65C0079A2020085A20200A1A20200ADA2020002
:10B66C00B9A20200C7A20200000000002E000000D8
:0CB67C0043000000504F534958000000EC
:10B6880000000000002000400000000000200040F2
:10B69800000000008CA5020000000000000000006F
:10B6A8000090D0030100FFFF060090010000200376
:10B6B80008000000213B0020FF000000D8B4020071
:10B6C800D8B40200D8B40200D8B40200D8B402003A
:040000032000626116
:00000001FF
